{
    "contractName": "MGFToken",
    "abi": [
        {
            "inputs": [],
            "stateMutability": "nonpayable",
            "type": "constructor"
        },
        {
            "anonymous": false,
            "inputs": [
                {
                    "indexed": true,
                    "internalType": "address",
                    "name": "owner",
                    "type": "address"
                },
                {
                    "indexed": true,
                    "internalType": "address",
                    "name": "spender",
                    "type": "address"
                },
                {
                    "indexed": false,
                    "internalType": "uint256",
                    "name": "value",
                    "type": "uint256"
                }
            ],
            "name": "Approval",
            "type": "event"
        },
        {
            "anonymous": false,
            "inputs": [
                {
                    "indexed": true,
                    "internalType": "address",
                    "name": "delegator",
                    "type": "address"
                },
                {
                    "indexed": true,
                    "internalType": "address",
                    "name": "fromDelegate",
                    "type": "address"
                },
                {
                    "indexed": true,
                    "internalType": "address",
                    "name": "toDelegate",
                    "type": "address"
                }
            ],
            "name": "DelegateChanged",
            "type": "event"
        },
        {
            "anonymous": false,
            "inputs": [
                {
                    "indexed": true,
                    "internalType": "address",
                    "name": "delegate",
                    "type": "address"
                },
                {
                    "indexed": false,
                    "internalType": "uint256",
                    "name": "previousBalance",
                    "type": "uint256"
                },
                {
                    "indexed": false,
                    "internalType": "uint256",
                    "name": "newBalance",
                    "type": "uint256"
                }
            ],
            "name": "DelegateVotesChanged",
            "type": "event"
        },
        {
            "anonymous": false,
            "inputs": [
                {
                    "indexed": false,
                    "internalType": "address",
                    "name": "account",
                    "type": "address"
                }
            ],
            "name": "Paused",
            "type": "event"
        },
        {
            "anonymous": false,
            "inputs": [
                {
                    "indexed": true,
                    "internalType": "bytes32",
                    "name": "role",
                    "type": "bytes32"
                },
                {
                    "indexed": true,
                    "internalType": "bytes32",
                    "name": "previousAdminRole",
                    "type": "bytes32"
                },
                {
                    "indexed": true,
                    "internalType": "bytes32",
                    "name": "newAdminRole",
                    "type": "bytes32"
                }
            ],
            "name": "RoleAdminChanged",
            "type": "event"
        },
        {
            "anonymous": false,
            "inputs": [
                {
                    "indexed": true,
                    "internalType": "bytes32",
                    "name": "role",
                    "type": "bytes32"
                },
                {
                    "indexed": true,
                    "internalType": "address",
                    "name": "account",
                    "type": "address"
                },
                {
                    "indexed": true,
                    "internalType": "address",
                    "name": "sender",
                    "type": "address"
                }
            ],
            "name": "RoleGranted",
            "type": "event"
        },
        {
            "anonymous": false,
            "inputs": [
                {
                    "indexed": true,
                    "internalType": "bytes32",
                    "name": "role",
                    "type": "bytes32"
                },
                {
                    "indexed": true,
                    "internalType": "address",
                    "name": "account",
                    "type": "address"
                },
                {
                    "indexed": true,
                    "internalType": "address",
                    "name": "sender",
                    "type": "address"
                }
            ],
            "name": "RoleRevoked",
            "type": "event"
        },
        {
            "anonymous": false,
            "inputs": [
                {
                    "indexed": true,
                    "internalType": "address",
                    "name": "from",
                    "type": "address"
                },
                {
                    "indexed": true,
                    "internalType": "address",
                    "name": "to",
                    "type": "address"
                },
                {
                    "indexed": false,
                    "internalType": "uint256",
                    "name": "value",
                    "type": "uint256"
                }
            ],
            "name": "Transfer",
            "type": "event"
        },
        {
            "anonymous": false,
            "inputs": [
                {
                    "indexed": false,
                    "internalType": "address",
                    "name": "account",
                    "type": "address"
                }
            ],
            "name": "Unpaused",
            "type": "event"
        },
        {
            "inputs": [],
            "name": "BURNER_ROLE",
            "outputs": [
                {
                    "internalType": "bytes32",
                    "name": "",
                    "type": "bytes32"
                }
            ],
            "stateMutability": "view",
            "type": "function"
        },
        {
            "inputs": [],
            "name": "DEFAULT_ADMIN_ROLE",
            "outputs": [
                {
                    "internalType": "bytes32",
                    "name": "",
                    "type": "bytes32"
                }
            ],
            "stateMutability": "view",
            "type": "function"
        },
        {
            "inputs": [],
            "name": "DOMAIN_SEPARATOR",
            "outputs": [
                {
                    "internalType": "bytes32",
                    "name": "",
                    "type": "bytes32"
                }
            ],
            "stateMutability": "view",
            "type": "function"
        },
        {
            "inputs": [],
            "name": "MINTER_ROLE",
            "outputs": [
                {
                    "internalType": "bytes32",
                    "name": "",
                    "type": "bytes32"
                }
            ],
            "stateMutability": "view",
            "type": "function"
        },
        {
            "inputs": [],
            "name": "PAUSER_ROLE",
            "outputs": [
                {
                    "internalType": "bytes32",
                    "name": "",
                    "type": "bytes32"
                }
            ],
            "stateMutability": "view",
            "type": "function"
        },
        {
            "inputs": [
                {
                    "internalType": "address",
                    "name": "owner",
                    "type": "address"
                },
                {
                    "internalType": "address",
                    "name": "spender",
                    "type": "address"
                }
            ],
            "name": "allowance",
            "outputs": [
                {
                    "internalType": "uint256",
                    "name": "",
                    "type": "uint256"
                }
            ],
            "stateMutability": "view",
            "type": "function"
        },
        {
            "inputs": [
                {
                    "internalType": "address",
                    "name": "spender",
                    "type": "address"
                },
                {
                    "internalType": "uint256",
                    "name": "amount",
                    "type": "uint256"
                }
            ],
            "name": "approve",
            "outputs": [
                {
                    "internalType": "bool",
                    "name": "",
                    "type": "bool"
                }
            ],
            "stateMutability": "nonpayable",
            "type": "function"
        },
        {
            "inputs": [
                {
                    "internalType": "address",
                    "name": "account",
                    "type": "address"
                }
            ],
            "name": "balanceOf",
            "outputs": [
                {
                    "internalType": "uint256",
                    "name": "",
                    "type": "uint256"
                }
            ],
            "stateMutability": "view",
            "type": "function"
        },
        {
            "inputs": [
                {
                    "internalType": "uint256",
                    "name": "amount",
                    "type": "uint256"
                }
            ],
            "name": "burn",
            "outputs": [],
            "stateMutability": "nonpayable",
            "type": "function"
        },
        {
            "inputs": [
                {
                    "internalType": "address",
                    "name": "from",
                    "type": "address"
                },
                {
                    "internalType": "uint256",
                    "name": "amount",
                    "type": "uint256"
                }
            ],
            "name": "burn",
            "outputs": [],
            "stateMutability": "nonpayable",
            "type": "function"
        },
        {
            "inputs": [
                {
                    "internalType": "address",
                    "name": "account",
                    "type": "address"
                },
                {
                    "internalType": "uint256",
                    "name": "amount",
                    "type": "uint256"
                }
            ],
            "name": "burnFrom",
            "outputs": [],
            "stateMutability": "nonpayable",
            "type": "function"
        },
        {
            "inputs": [
                {
                    "internalType": "address",
                    "name": "account",
                    "type": "address"
                },
                {
                    "internalType": "uint32",
                    "name": "pos",
                    "type": "uint32"
                }
            ],
            "name": "checkpoints",
            "outputs": [
                {
                    "components": [
                        {
                            "internalType": "uint32",
                            "name": "fromBlock",
                            "type": "uint32"
                        },
                        {
                            "internalType": "uint224",
                            "name": "votes",
                            "type": "uint224"
                        }
                    ],
                    "internalType": "struct ERC20Votes.Checkpoint",
                    "name": "",
                    "type": "tuple"
                }
            ],
            "stateMutability": "view",
            "type": "function"
        },
        {
            "inputs": [],
            "name": "decimals",
            "outputs": [
                {
                    "internalType": "uint8",
                    "name": "",
                    "type": "uint8"
                }
            ],
            "stateMutability": "view",
            "type": "function"
        },
        {
            "inputs": [
                {
                    "internalType": "address",
                    "name": "spender",
                    "type": "address"
                },
                {
                    "internalType": "uint256",
                    "name": "subtractedValue",
                    "type": "uint256"
                }
            ],
            "name": "decreaseAllowance",
            "outputs": [
                {
                    "internalType": "bool",
                    "name": "",
                    "type": "bool"
                }
            ],
            "stateMutability": "nonpayable",
            "type": "function"
        },
        {
            "inputs": [
                {
                    "internalType": "address",
                    "name": "delegatee",
                    "type": "address"
                }
            ],
            "name": "delegate",
            "outputs": [],
            "stateMutability": "nonpayable",
            "type": "function"
        },
        {
            "inputs": [
                {
                    "internalType": "address",
                    "name": "delegatee",
                    "type": "address"
                },
                {
                    "internalType": "uint256",
                    "name": "nonce",
                    "type": "uint256"
                },
                {
                    "internalType": "uint256",
                    "name": "expiry",
                    "type": "uint256"
                },
                {
                    "internalType": "uint8",
                    "name": "v",
                    "type": "uint8"
                },
                {
                    "internalType": "bytes32",
                    "name": "r",
                    "type": "bytes32"
                },
                {
                    "internalType": "bytes32",
                    "name": "s",
                    "type": "bytes32"
                }
            ],
            "name": "delegateBySig",
            "outputs": [],
            "stateMutability": "nonpayable",
            "type": "function"
        },
        {
            "inputs": [
                {
                    "internalType": "address",
                    "name": "account",
                    "type": "address"
                }
            ],
            "name": "delegates",
            "outputs": [
                {
                    "internalType": "address",
                    "name": "",
                    "type": "address"
                }
            ],
            "stateMutability": "view",
            "type": "function"
        },
        {
            "inputs": [
                {
                    "internalType": "uint256",
                    "name": "blockNumber",
                    "type": "uint256"
                }
            ],
            "name": "getPastTotalSupply",
            "outputs": [
                {
                    "internalType": "uint256",
                    "name": "",
                    "type": "uint256"
                }
            ],
            "stateMutability": "view",
            "type": "function"
        },
        {
            "inputs": [
                {
                    "internalType": "address",
                    "name": "account",
                    "type": "address"
                },
                {
                    "internalType": "uint256",
                    "name": "blockNumber",
                    "type": "uint256"
                }
            ],
            "name": "getPastVotes",
            "outputs": [
                {
                    "internalType": "uint256",
                    "name": "",
                    "type": "uint256"
                }
            ],
            "stateMutability": "view",
            "type": "function"
        },
        {
            "inputs": [
                {
                    "internalType": "bytes32",
                    "name": "role",
                    "type": "bytes32"
                }
            ],
            "name": "getRoleAdmin",
            "outputs": [
                {
                    "internalType": "bytes32",
                    "name": "",
                    "type": "bytes32"
                }
            ],
            "stateMutability": "view",
            "type": "function"
        },
        {
            "inputs": [
                {
                    "internalType": "bytes32",
                    "name": "role",
                    "type": "bytes32"
                },
                {
                    "internalType": "uint256",
                    "name": "index",
                    "type": "uint256"
                }
            ],
            "name": "getRoleMember",
            "outputs": [
                {
                    "internalType": "address",
                    "name": "",
                    "type": "address"
                }
            ],
            "stateMutability": "view",
            "type": "function"
        },
        {
            "inputs": [
                {
                    "internalType": "bytes32",
                    "name": "role",
                    "type": "bytes32"
                }
            ],
            "name": "getRoleMemberCount",
            "outputs": [
                {
                    "internalType": "uint256",
                    "name": "",
                    "type": "uint256"
                }
            ],
            "stateMutability": "view",
            "type": "function"
        },
        {
            "inputs": [
                {
                    "internalType": "address",
                    "name": "account",
                    "type": "address"
                }
            ],
            "name": "getVotes",
            "outputs": [
                {
                    "internalType": "uint256",
                    "name": "",
                    "type": "uint256"
                }
            ],
            "stateMutability": "view",
            "type": "function"
        },
        {
            "inputs": [
                {
                    "internalType": "bytes32",
                    "name": "role",
                    "type": "bytes32"
                },
                {
                    "internalType": "address",
                    "name": "account",
                    "type": "address"
                }
            ],
            "name": "grantRole",
            "outputs": [],
            "stateMutability": "nonpayable",
            "type": "function"
        },
        {
            "inputs": [
                {
                    "internalType": "bytes32",
                    "name": "role",
                    "type": "bytes32"
                },
                {
                    "internalType": "address",
                    "name": "account",
                    "type": "address"
                }
            ],
            "name": "hasRole",
            "outputs": [
                {
                    "internalType": "bool",
                    "name": "",
                    "type": "bool"
                }
            ],
            "stateMutability": "view",
            "type": "function"
        },
        {
            "inputs": [
                {
                    "internalType": "address",
                    "name": "spender",
                    "type": "address"
                },
                {
                    "internalType": "uint256",
                    "name": "addedValue",
                    "type": "uint256"
                }
            ],
            "name": "increaseAllowance",
            "outputs": [
                {
                    "internalType": "bool",
                    "name": "",
                    "type": "bool"
                }
            ],
            "stateMutability": "nonpayable",
            "type": "function"
        },
        {
            "inputs": [],
            "name": "maxSupply",
            "outputs": [
                {
                    "internalType": "uint256",
                    "name": "",
                    "type": "uint256"
                }
            ],
            "stateMutability": "view",
            "type": "function"
        },
        {
            "inputs": [
                {
                    "internalType": "address",
                    "name": "to",
                    "type": "address"
                },
                {
                    "internalType": "uint256",
                    "name": "amount",
                    "type": "uint256"
                }
            ],
            "name": "mint",
            "outputs": [],
            "stateMutability": "nonpayable",
            "type": "function"
        },
        {
            "inputs": [],
            "name": "name",
            "outputs": [
                {
                    "internalType": "string",
                    "name": "",
                    "type": "string"
                }
            ],
            "stateMutability": "view",
            "type": "function"
        },
        {
            "inputs": [
                {
                    "internalType": "address",
                    "name": "owner",
                    "type": "address"
                }
            ],
            "name": "nonces",
            "outputs": [
                {
                    "internalType": "uint256",
                    "name": "",
                    "type": "uint256"
                }
            ],
            "stateMutability": "view",
            "type": "function"
        },
        {
            "inputs": [
                {
                    "internalType": "address",
                    "name": "account",
                    "type": "address"
                }
            ],
            "name": "numCheckpoints",
            "outputs": [
                {
                    "internalType": "uint32",
                    "name": "",
                    "type": "uint32"
                }
            ],
            "stateMutability": "view",
            "type": "function"
        },
        {
            "inputs": [],
            "name": "pause",
            "outputs": [],
            "stateMutability": "nonpayable",
            "type": "function"
        },
        {
            "inputs": [],
            "name": "paused",
            "outputs": [
                {
                    "internalType": "bool",
                    "name": "",
                    "type": "bool"
                }
            ],
            "stateMutability": "view",
            "type": "function"
        },
        {
            "inputs": [
                {
                    "internalType": "address",
                    "name": "owner",
                    "type": "address"
                },
                {
                    "internalType": "address",
                    "name": "spender",
                    "type": "address"
                },
                {
                    "internalType": "uint256",
                    "name": "value",
                    "type": "uint256"
                },
                {
                    "internalType": "uint256",
                    "name": "deadline",
                    "type": "uint256"
                },
                {
                    "internalType": "uint8",
                    "name": "v",
                    "type": "uint8"
                },
                {
                    "internalType": "bytes32",
                    "name": "r",
                    "type": "bytes32"
                },
                {
                    "internalType": "bytes32",
                    "name": "s",
                    "type": "bytes32"
                }
            ],
            "name": "permit",
            "outputs": [],
            "stateMutability": "nonpayable",
            "type": "function"
        },
        {
            "inputs": [
                {
                    "internalType": "address",
                    "name": "tokenAddress_",
                    "type": "address"
                }
            ],
            "name": "pullFunds",
            "outputs": [],
            "stateMutability": "nonpayable",
            "type": "function"
        },
        {
            "inputs": [
                {
                    "internalType": "bytes32",
                    "name": "role",
                    "type": "bytes32"
                },
                {
                    "internalType": "address",
                    "name": "account",
                    "type": "address"
                }
            ],
            "name": "renounceRole",
            "outputs": [],
            "stateMutability": "nonpayable",
            "type": "function"
        },
        {
            "inputs": [
                {
                    "internalType": "bytes32",
                    "name": "role",
                    "type": "bytes32"
                },
                {
                    "internalType": "address",
                    "name": "account",
                    "type": "address"
                }
            ],
            "name": "revokeRole",
            "outputs": [],
            "stateMutability": "nonpayable",
            "type": "function"
        },
        {
            "inputs": [
                {
                    "internalType": "bytes4",
                    "name": "interfaceId",
                    "type": "bytes4"
                }
            ],
            "name": "supportsInterface",
            "outputs": [
                {
                    "internalType": "bool",
                    "name": "",
                    "type": "bool"
                }
            ],
            "stateMutability": "view",
            "type": "function"
        },
        {
            "inputs": [],
            "name": "symbol",
            "outputs": [
                {
                    "internalType": "string",
                    "name": "",
                    "type": "string"
                }
            ],
            "stateMutability": "view",
            "type": "function"
        },
        {
            "inputs": [],
            "name": "totalSupply",
            "outputs": [
                {
                    "internalType": "uint256",
                    "name": "",
                    "type": "uint256"
                }
            ],
            "stateMutability": "view",
            "type": "function"
        },
        {
            "inputs": [
                {
                    "internalType": "address",
                    "name": "to",
                    "type": "address"
                },
                {
                    "internalType": "uint256",
                    "name": "amount",
                    "type": "uint256"
                }
            ],
            "name": "transfer",
            "outputs": [
                {
                    "internalType": "bool",
                    "name": "",
                    "type": "bool"
                }
            ],
            "stateMutability": "nonpayable",
            "type": "function"
        },
        {
            "inputs": [
                {
                    "internalType": "address",
                    "name": "account",
                    "type": "address"
                }
            ],
            "name": "transferAdmin",
            "outputs": [],
            "stateMutability": "nonpayable",
            "type": "function"
        },
        {
            "inputs": [
                {
                    "internalType": "address",
                    "name": "from",
                    "type": "address"
                },
                {
                    "internalType": "address",
                    "name": "to",
                    "type": "address"
                },
                {
                    "internalType": "uint256",
                    "name": "amount",
                    "type": "uint256"
                }
            ],
            "name": "transferFrom",
            "outputs": [
                {
                    "internalType": "bool",
                    "name": "",
                    "type": "bool"
                }
            ],
            "stateMutability": "nonpayable",
            "type": "function"
        },
        {
            "inputs": [],
            "name": "unpause",
            "outputs": [],
            "stateMutability": "nonpayable",
            "type": "function"
        }
    ],
    "bytecode": "6101606040527f6e71edae12b1b97f4d1f60370fef10105fa2faae0126114a169c64845d6126c9610140523480156200003757600080fd5b506040518060400160405280600981526020016826a3a3102a27a5a2a760b91b81525080604051806040016040528060018152602001603160f81b8152506040518060400160405280600981526020016826a3a3102a27a5a2a760b91b8152506040518060400160405280600381526020016226a3a360e91b8152508160059080519060200190620000cb9291906200037a565b508051620000e19060069060208401906200037a565b50506007805460ff1916905550815160209283012081519183019190912060e08290526101008190524660a0818152604080517f8b73c3c69bb8fe3d512ecc4cf759cc79239f7b179b0ffacaa9a75d522b39400f818801819052818301969096526060810194909452608080850193909352308483018190528151808603909301835260c09485019091528151919095012090529190915261012052506200018b60003362000215565b620001b77f9f2df0fed2c77648de5860a4cc508cd0818c85b8b8a1ab4ceeef8d981c8956a63362000215565b620001e37f3c11d16cbaffd01df69ce1c404f6340ee057498f5f00246190ea54220576a8483362000215565b6200020f7f65d7a28e3265b37a6474929f336521b332c1681b933f6cb9f3376673440d862a3362000215565b6200045c565b62000221828262000225565b5050565b6200023c82826200026860201b6200111a1760201c565b6000828152600160209081526040909120620002639183906200119e62000308821b17901c565b505050565b6000828152602081815260408083206001600160a01b038516845290915290205460ff1662000221576000828152602081815260408083206001600160a01b03851684529091529020805460ff19166001179055620002c43390565b6001600160a01b0316816001600160a01b0316837f2f8788117e7eff1d82e926ec794901d17c78024a50270940304540a733656f0d60405160405180910390a45050565b60006200031f836001600160a01b03841662000328565b90505b92915050565b6000818152600183016020526040812054620003715750815460018181018455600084815260208082209093018490558454848252828601909352604090209190915562000322565b50600062000322565b828054620003889062000420565b90600052602060002090601f016020900481019282620003ac5760008555620003f7565b82601f10620003c757805160ff1916838001178555620003f7565b82800160010185558215620003f7579182015b82811115620003f7578251825591602001919060010190620003da565b506200040592915062000409565b5090565b5b808211156200040557600081556001016200040a565b600181811c908216806200043557607f821691505b6020821081036200045657634e487b7160e01b600052602260045260246000fd5b50919050565b60805160a05160c05160e051610100516101205161014051612cb0620004b76000396000610f6001526000611687015260006116d6015260006116b10152600061160a015260006116340152600061165e0152612cb06000f3fe608060405234801561001057600080fd5b50600436106102745760003560e01c806375829def11610151578063a457c2d7116100c3578063d539139311610087578063d5391393146105a0578063d547741f146105c7578063d5abeb01146105da578063dd62ed3e146105ec578063e63ab1e914610625578063f1127ed81461064c57600080fd5b8063a457c2d714610541578063a9059cbb14610554578063c3cda52014610567578063ca15c8731461057a578063d505accf1461058d57600080fd5b80639010d07c116101155780639010d07c146104e557806391d14854146104f857806395d89b411461050b5780639ab24eb0146105135780639dc29fac14610526578063a217fddf1461053957600080fd5b806375829def1461049157806379cc6790146104a45780637ecebe00146104b75780638456cb59146104ca5780638e539e8c146104d257600080fd5b806339509351116101ea578063587cde1e116101ae578063587cde1e146103cb5780635c19a95c1461040f5780635c975abb146104225780635d5a92fb1461042d5780636fcfff451461044057806370a082311461046857600080fd5b806339509351146103775780633a46b1a81461038a5780633f4ba83a1461039d57806340c10f19146103a557806342966c68146103b857600080fd5b8063248a9ca31161023c578063248a9ca3146102ee578063282c51f3146103115780632f2ff15d14610338578063313ce5671461034d5780633644e5151461035c57806336568abe1461036457600080fd5b806301ffc9a71461027957806306fdde03146102a1578063095ea7b3146102b657806318160ddd146102c957806323b872dd146102db575b600080fd5b61028c6102873660046127d7565b610689565b60405190151581526020015b60405180910390f35b6102a96106b4565b604051610298919061282d565b61028c6102c436600461287c565b610746565b6004545b604051908152602001610298565b61028c6102e93660046128a6565b61075e565b6102cd6102fc3660046128e2565b60009081526020819052604090206001015490565b6102cd7f3c11d16cbaffd01df69ce1c404f6340ee057498f5f00246190ea54220576a84881565b61034b6103463660046128fb565b610782565b005b60405160128152602001610298565b6102cd6107ad565b61034b6103723660046128fb565b6107bc565b61028c61038536600461287c565b61083f565b6102cd61039836600461287c565b61087e565b61034b6108f8565b61034b6103b336600461287c565b61092e565b61034b6103c63660046128e2565b6109c5565b6103f76103d9366004612927565b6001600160a01b039081166000908152600960205260409020541690565b6040516001600160a01b039091168152602001610298565b61034b61041d366004612927565b6109cf565b60075460ff1661028c565b61034b61043b366004612927565b6109d9565b61045361044e366004612927565b610b0d565b60405163ffffffff9091168152602001610298565b6102cd610476366004612927565b6001600160a01b031660009081526002602052604090205490565b61034b61049f366004612927565b610b2f565b61034b6104b236600461287c565b610b51565b6102cd6104c5366004612927565b610b66565b61034b610b84565b6102cd6104e03660046128e2565b610bb7565b6103f76104f3366004612942565b610c13565b61028c6105063660046128fb565b610c2b565b6102a9610c54565b6102cd610521366004612927565b610c63565b61034b61053436600461287c565b610cea565b6102cd600081565b61028c61054f36600461287c565b610d1f565b61028c61056236600461287c565b610db1565b61034b610575366004612975565b610dbf565b6102cd6105883660046128e2565b610ef5565b61034b61059b3660046129cd565b610f0c565b6102cd7f9f2df0fed2c77648de5860a4cc508cd0818c85b8b8a1ab4ceeef8d981c8956a681565b61034b6105d53660046128fb565b611070565b6102cd6a52b7d2dcc80cd2e400000081565b6102cd6105fa366004612a37565b6001600160a01b03918216600090815260036020908152604080832093909416825291909152205490565b6102cd7f65d7a28e3265b37a6474929f336521b332c1681b933f6cb9f3376673440d862a81565b61065f61065a366004612a61565b611096565b60408051825163ffffffff1681526020928301516001600160e01b03169281019290925201610298565b60006001600160e01b03198216635a05180f60e01b14806106ae57506106ae826111b3565b92915050565b6060600580546106c390612aa1565b80601f01602080910402602001604051908101604052809291908181526020018280546106ef90612aa1565b801561073c5780601f106107115761010080835404028352916020019161073c565b820191906000526020600020905b81548152906001019060200180831161071f57829003601f168201915b5050505050905090565b6000336107548185856111e8565b5060019392505050565b60003361076c85828561130c565b610777858585611398565b506001949350505050565b60008281526020819052604090206001015461079e8133611577565b6107a883836115db565b505050565b60006107b76115fd565b905090565b6001600160a01b03811633146108315760405162461bcd60e51b815260206004820152602f60248201527f416363657373436f6e74726f6c3a2063616e206f6e6c792072656e6f756e636560448201526e103937b632b9903337b91039b2b63360891b60648201526084015b60405180910390fd5b61083b8282611724565b5050565b3360008181526003602090815260408083206001600160a01b03871684529091528120549091906107549082908690610879908790612aeb565b6111e8565b60004382106108cf5760405162461bcd60e51b815260206004820152601f60248201527f4552433230566f7465733a20626c6f636b206e6f7420796574206d696e6564006044820152606401610828565b6001600160a01b0383166000908152600a602052604090206108f19083611746565b9392505050565b7f65d7a28e3265b37a6474929f336521b332c1681b933f6cb9f3376673440d862a6109238133611577565b61092b611803565b50565b7f9f2df0fed2c77648de5860a4cc508cd0818c85b8b8a1ab4ceeef8d981c8956a66109598133611577565b6a52b7d2dcc80cd2e400000061096e60045490565b106109bb5760405162461bcd60e51b815260206004820152601f60248201527f45524332303a20746f74616c20737570706c79206f766572666c6f77696e67006044820152606401610828565b6107a88383611896565b61092b33826118a0565b61092b33826118aa565b60006109e58133611577565b6001600160a01b038216610a1f5760405133904780156108fc02916000818181858888f193505050501580156107a8573d6000803e3d6000fd5b816001600160a01b03811663a9059cbb336040516370a0823160e01b81523060048201526001600160a01b038516906370a0823190602401602060405180830381865afa158015610a74573d6000803e3d6000fd5b505050506040513d601f19601f82011682018060405250810190610a989190612b03565b6040516001600160e01b031960e085901b1681526001600160a01b03909216600483015260248201526044016020604051808303816000875af1158015610ae3573d6000803e3d6000fd5b505050506040513d601f19601f82011682018060405250810190610b079190612b1c565b50505050565b6001600160a01b0381166000908152600a60205260408120546106ae90611924565b6000610b3b8133611577565b610b46600083610782565b61083b600033611070565b610b5c82338361130c565b61083b82826118a0565b6001600160a01b0381166000908152600860205260408120546106ae565b7f65d7a28e3265b37a6474929f336521b332c1681b933f6cb9f3376673440d862a610baf8133611577565b61092b61198d565b6000438210610c085760405162461bcd60e51b815260206004820152601f60248201527f4552433230566f7465733a20626c6f636b206e6f7420796574206d696e6564006044820152606401610828565b6106ae600b83611746565b60008281526001602052604081206108f19083611a08565b6000918252602082815260408084206001600160a01b0393909316845291905290205460ff1690565b6060600680546106c390612aa1565b6001600160a01b0381166000908152600a60205260408120548015610cd7576001600160a01b0383166000908152600a60205260409020610ca5600183612b3e565b81548110610cb557610cb5612b55565b60009182526020909120015464010000000090046001600160e01b0316610cda565b60005b6001600160e01b03169392505050565b7f3c11d16cbaffd01df69ce1c404f6340ee057498f5f00246190ea54220576a848610d158133611577565b6107a883836118a0565b3360008181526003602090815260408083206001600160a01b038716845290915281205490919083811015610da45760405162461bcd60e51b815260206004820152602560248201527f45524332303a2064656372656173656420616c6c6f77616e63652062656c6f77604482015264207a65726f60d81b6064820152608401610828565b61077782868684036111e8565b600033610754818585611398565b83421115610e0f5760405162461bcd60e51b815260206004820152601d60248201527f4552433230566f7465733a207369676e617475726520657870697265640000006044820152606401610828565b604080517fe48329057bfd03d55e49b547132e39cffd9c1820ad7b9d4c5307691425d15adf60208201526001600160a01b038816918101919091526060810186905260808101859052600090610e8990610e819060a00160405160208183030381529060405280519060200120611a14565b858585611a62565b9050610e9481611a8a565b8614610ee25760405162461bcd60e51b815260206004820152601960248201527f4552433230566f7465733a20696e76616c6964206e6f6e6365000000000000006044820152606401610828565b610eec81886118aa565b50505050505050565b60008181526001602052604081206106ae90611ab2565b83421115610f5c5760405162461bcd60e51b815260206004820152601d60248201527f45524332305065726d69743a206578706972656420646561646c696e650000006044820152606401610828565b60007f0000000000000000000000000000000000000000000000000000000000000000888888610f8b8c611a8a565b6040805160208101969096526001600160a01b0394851690860152929091166060840152608083015260a082015260c0810186905260e0016040516020818303038152906040528051906020012090506000610fe682611a14565b90506000610ff682878787611a62565b9050896001600160a01b0316816001600160a01b0316146110595760405162461bcd60e51b815260206004820152601e60248201527f45524332305065726d69743a20696e76616c6964207369676e617475726500006044820152606401610828565b6110648a8a8a6111e8565b50505050505050505050565b60008281526020819052604090206001015461108c8133611577565b6107a88383611724565b60408051808201909152600080825260208201526001600160a01b0383166000908152600a60205260409020805463ffffffff84169081106110da576110da612b55565b60009182526020918290206040805180820190915291015463ffffffff8116825264010000000090046001600160e01b0316918101919091529392505050565b6111248282610c2b565b61083b576000828152602081815260408083206001600160a01b03851684529091529020805460ff1916600117905561115a3390565b6001600160a01b0316816001600160a01b0316837f2f8788117e7eff1d82e926ec794901d17c78024a50270940304540a733656f0d60405160405180910390a45050565b60006108f1836001600160a01b038416611abc565b60006001600160e01b03198216637965db0b60e01b14806106ae57506301ffc9a760e01b6001600160e01b03198316146106ae565b6001600160a01b03831661124a5760405162461bcd60e51b8152602060048201526024808201527f45524332303a20617070726f76652066726f6d20746865207a65726f206164646044820152637265737360e01b6064820152608401610828565b6001600160a01b0382166112ab5760405162461bcd60e51b815260206004820152602260248201527f45524332303a20617070726f766520746f20746865207a65726f206164647265604482015261737360f01b6064820152608401610828565b6001600160a01b0383811660008181526003602090815260408083209487168084529482529182902085905590518481527f8c5be1e5ebec7d5bd14f71427d1e84f3dd0314c0f7b2291e5b200ac8c7c3b925910160405180910390a3505050565b6001600160a01b038381166000908152600360209081526040808320938616835292905220546000198114610b07578181101561138b5760405162461bcd60e51b815260206004820152601d60248201527f45524332303a20696e73756666696369656e7420616c6c6f77616e63650000006044820152606401610828565b610b0784848484036111e8565b6001600160a01b0383166113fc5760405162461bcd60e51b815260206004820152602560248201527f45524332303a207472616e736665722066726f6d20746865207a65726f206164604482015264647265737360d81b6064820152608401610828565b6001600160a01b03821661145e5760405162461bcd60e51b815260206004820152602360248201527f45524332303a207472616e7366657220746f20746865207a65726f206164647260448201526265737360e81b6064820152608401610828565b611469838383611b0b565b6001600160a01b038316600090815260026020526040902054818110156114e15760405162461bcd60e51b815260206004820152602660248201527f45524332303a207472616e7366657220616d6f756e7420657863656564732062604482015265616c616e636560d01b6064820152608401610828565b6001600160a01b03808516600090815260026020526040808220858503905591851681529081208054849290611518908490612aeb565b92505081905550826001600160a01b0316846001600160a01b03167fddf252ad1be2c89b69c2b068fc378daa952ba7f163c4a11628f55a4df523b3ef8460405161156491815260200190565b60405180910390a3610b07848484611b16565b6115818282610c2b565b61083b57611599816001600160a01b03166014611b21565b6115a4836020611b21565b6040516020016115b5929190612b6b565b60408051601f198184030181529082905262461bcd60e51b82526108289160040161282d565b6115e5828261111a565b60008281526001602052604090206107a8908261119e565b6000306001600160a01b037f00000000000000000000000000000000000000000000000000000000000000001614801561165657507f000000000000000000000000000000000000000000000000000000000000000046145b1561168057507f000000000000000000000000000000000000000000000000000000000000000090565b50604080517f00000000000000000000000000000000000000000000000000000000000000006020808301919091527f0000000000000000000000000000000000000000000000000000000000000000828401527f000000000000000000000000000000000000000000000000000000000000000060608301524660808301523060a0808401919091528351808403909101815260c0909201909252805191012090565b61172e8282611cbd565b60008281526001602052604090206107a89082611d22565b8154600090815b818110156117aa5760006117618284611d37565b90508486828154811061177657611776612b55565b60009182526020909120015463ffffffff161115611796578092506117a4565b6117a1816001612aeb565b91505b5061174d565b81156117ee57846117bc600184612b3e565b815481106117cc576117cc612b55565b60009182526020909120015464010000000090046001600160e01b03166117f1565b60005b6001600160e01b031695945050505050565b60075460ff1661184c5760405162461bcd60e51b815260206004820152601460248201527314185d5cd8589b194e881b9bdd081c185d5cd95960621b6044820152606401610828565b6007805460ff191690557f5db9ee0a495bf2e6ff9c91a7834c1ba4fdd244a5e8aa4e537bd38aeae4b073aa335b6040516001600160a01b03909116815260200160405180910390a1565b61083b8282611d52565b61083b8282611ddc565b6001600160a01b03828116600081815260096020818152604080842080546002845282862054949093528787166001600160a01b03198416811790915590519190951694919391928592917f3134e8a2e6d97e929a7e54011ea5485d7d196dd5f0ba4d4ef95803e8e3fc257f9190a4610b07828483611df4565b600063ffffffff8211156119895760405162461bcd60e51b815260206004820152602660248201527f53616665436173743a2076616c756520646f65736e27742066697420696e203360448201526532206269747360d01b6064820152608401610828565b5090565b60075460ff16156119d35760405162461bcd60e51b815260206004820152601060248201526f14185d5cd8589b194e881c185d5cd95960821b6044820152606401610828565b6007805460ff191660011790557f62e78cea01bee320cd4e420270b5ea74000d11b0c9f74754ebdbfc544b05a2586118793390565b60006108f18383611f31565b60006106ae611a216115fd565b8360405161190160f01b6020820152602281018390526042810182905260009060620160405160208183030381529060405280519060200120905092915050565b6000806000611a7387878787611f5b565b91509150611a8081612048565b5095945050505050565b6001600160a01b03811660009081526008602052604090208054600181018255905b50919050565b60006106ae825490565b6000818152600183016020526040812054611b03575081546001818101845560008481526020808220909301849055845484825282860190935260409020919091556106ae565b5060006106ae565b6107a88383836121fe565b6107a8838383612264565b60606000611b30836002612be0565b611b3b906002612aeb565b67ffffffffffffffff811115611b5357611b53612bff565b6040519080825280601f01601f191660200182016040528015611b7d576020820181803683370190505b509050600360fc1b81600081518110611b9857611b98612b55565b60200101906001600160f81b031916908160001a905350600f60fb1b81600181518110611bc757611bc7612b55565b60200101906001600160f81b031916908160001a9053506000611beb846002612be0565b611bf6906001612aeb565b90505b6001811115611c6e576f181899199a1a9b1b9c1cb0b131b232b360811b85600f1660108110611c2a57611c2a612b55565b1a60f81b828281518110611c4057611c40612b55565b60200101906001600160f81b031916908160001a90535060049490941c93611c6781612c15565b9050611bf9565b5083156108f15760405162461bcd60e51b815260206004820181905260248201527f537472696e67733a20686578206c656e67746820696e73756666696369656e746044820152606401610828565b611cc78282610c2b565b1561083b576000828152602081815260408083206001600160a01b0385168085529252808320805460ff1916905551339285917ff6391f5c32d9c69d2a47ea670b442974b53935d1edc7fd64eb21e047a839171b9190a45050565b60006108f1836001600160a01b038416612296565b6000611d466002848418612c2c565b6108f190848416612aeb565b611d5c8282612389565b6004546001600160e01b031015611dce5760405162461bcd60e51b815260206004820152603060248201527f4552433230566f7465733a20746f74616c20737570706c79207269736b73206f60448201526f766572666c6f77696e6720766f74657360801b6064820152608401610828565b610b07600b61247c83612488565b611de68282612601565b610b07600b61276283612488565b816001600160a01b0316836001600160a01b031614158015611e165750600081115b156107a8576001600160a01b03831615611ea4576001600160a01b0383166000908152600a602052604081208190611e519061276285612488565b91509150846001600160a01b03167fdec2bacdd2f05b59de34da9b523dff8be42e5e38e818c82fdb0bae774387a7248383604051611e99929190918252602082015260400190565b60405180910390a250505b6001600160a01b038216156107a8576001600160a01b0382166000908152600a602052604081208190611eda9061247c85612488565b91509150836001600160a01b03167fdec2bacdd2f05b59de34da9b523dff8be42e5e38e818c82fdb0bae774387a7248383604051611f22929190918252602082015260400190565b60405180910390a25050505050565b6000826000018281548110611f4857611f48612b55565b9060005260206000200154905092915050565b6000807f7fffffffffffffffffffffffffffffff5d576e7357a4501ddfe92f46681b20a0831115611f92575060009050600361203f565b8460ff16601b14158015611faa57508460ff16601c14155b15611fbb575060009050600461203f565b6040805160008082526020820180845289905260ff881692820192909252606081018690526080810185905260019060a0016020604051602081039080840390855afa15801561200f573d6000803e3d6000fd5b5050604051601f1901519150506001600160a01b0381166120385760006001925092505061203f565b9150600090505b94509492505050565b600081600481111561205c5761205c612c4e565b036120645750565b600181600481111561207857612078612c4e565b036120c55760405162461bcd60e51b815260206004820152601860248201527f45434453413a20696e76616c6964207369676e617475726500000000000000006044820152606401610828565b60028160048111156120d9576120d9612c4e565b036121265760405162461bcd60e51b815260206004820152601f60248201527f45434453413a20696e76616c6964207369676e6174757265206c656e677468006044820152606401610828565b600381600481111561213a5761213a612c4e565b036121925760405162461bcd60e51b815260206004820152602260248201527f45434453413a20696e76616c6964207369676e6174757265202773272076616c604482015261756560f01b6064820152608401610828565b60048160048111156121a6576121a6612c4e565b0361092b5760405162461bcd60e51b815260206004820152602260248201527f45434453413a20696e76616c6964207369676e6174757265202776272076616c604482015261756560f01b6064820152608401610828565b60075460ff16156107a85760405162461bcd60e51b815260206004820152602a60248201527f45524332305061757361626c653a20746f6b656e207472616e736665722077686044820152691a5b19481c185d5cd95960b21b6064820152608401610828565b6001600160a01b038381166000908152600960205260408082205485841683529120546107a892918216911683611df4565b6000818152600183016020526040812054801561237f5760006122ba600183612b3e565b85549091506000906122ce90600190612b3e565b90508181146123335760008660000182815481106122ee576122ee612b55565b906000526020600020015490508087600001848154811061231157612311612b55565b6000918252602080832090910192909255918252600188019052604090208390555b855486908061234457612344612c64565b6001900381819060005260206000200160009055905585600101600086815260200190815260200160002060009055600193505050506106ae565b60009150506106ae565b6001600160a01b0382166123df5760405162461bcd60e51b815260206004820152601f60248201527f45524332303a206d696e7420746f20746865207a65726f2061646472657373006044820152606401610828565b6123eb60008383611b0b565b80600460008282546123fd9190612aeb565b90915550506001600160a01b0382166000908152600260205260408120805483929061242a908490612aeb565b90915550506040518181526001600160a01b038316906000907fddf252ad1be2c89b69c2b068fc378daa952ba7f163c4a11628f55a4df523b3ef9060200160405180910390a361083b60008383611b16565b60006108f18284612aeb565b8254600090819080156124d357856124a1600183612b3e565b815481106124b1576124b1612b55565b60009182526020909120015464010000000090046001600160e01b03166124d6565b60005b6001600160e01b031692506124ef83858763ffffffff16565b915060008111801561252d57504386612509600184612b3e565b8154811061251957612519612b55565b60009182526020909120015463ffffffff16145b1561258d5761253b8261276e565b86612547600184612b3e565b8154811061255757612557612b55565b9060005260206000200160000160046101000a8154816001600160e01b0302191690836001600160e01b031602179055506125f8565b8560405180604001604052806125a243611924565b63ffffffff1681526020016125b68561276e565b6001600160e01b0390811690915282546001810184556000938452602093849020835194909301519091166401000000000263ffffffff909316929092179101555b50935093915050565b6001600160a01b0382166126615760405162461bcd60e51b815260206004820152602160248201527f45524332303a206275726e2066726f6d20746865207a65726f206164647265736044820152607360f81b6064820152608401610828565b61266d82600083611b0b565b6001600160a01b038216600090815260026020526040902054818110156126e15760405162461bcd60e51b815260206004820152602260248201527f45524332303a206275726e20616d6f756e7420657863656564732062616c616e604482015261636560f01b6064820152608401610828565b6001600160a01b0383166000908152600260205260408120838303905560048054849290612710908490612b3e565b90915550506040518281526000906001600160a01b038516907fddf252ad1be2c89b69c2b068fc378daa952ba7f163c4a11628f55a4df523b3ef9060200160405180910390a36107a883600084611b16565b60006108f18284612b3e565b60006001600160e01b038211156119895760405162461bcd60e51b815260206004820152602760248201527f53616665436173743a2076616c756520646f65736e27742066697420696e20326044820152663234206269747360c81b6064820152608401610828565b6000602082840312156127e957600080fd5b81356001600160e01b0319811681146108f157600080fd5b60005b8381101561281c578181015183820152602001612804565b83811115610b075750506000910152565b602081526000825180602084015261284c816040850160208701612801565b601f01601f19169190910160400192915050565b80356001600160a01b038116811461287757600080fd5b919050565b6000806040838503121561288f57600080fd5b61289883612860565b946020939093013593505050565b6000806000606084860312156128bb57600080fd5b6128c484612860565b92506128d260208501612860565b9150604084013590509250925092565b6000602082840312156128f457600080fd5b5035919050565b6000806040838503121561290e57600080fd5b8235915061291e60208401612860565b90509250929050565b60006020828403121561293957600080fd5b6108f182612860565b6000806040838503121561295557600080fd5b50508035926020909101359150565b803560ff8116811461287757600080fd5b60008060008060008060c0878903121561298e57600080fd5b61299787612860565b955060208701359450604087013593506129b360608801612964565b92506080870135915060a087013590509295509295509295565b600080600080600080600060e0888a0312156129e857600080fd5b6129f188612860565b96506129ff60208901612860565b95506040880135945060608801359350612a1b60808901612964565b925060a0880135915060c0880135905092959891949750929550565b60008060408385031215612a4a57600080fd5b612a5383612860565b915061291e60208401612860565b60008060408385031215612a7457600080fd5b612a7d83612860565b9150602083013563ffffffff81168114612a9657600080fd5b809150509250929050565b600181811c90821680612ab557607f821691505b602082108103611aac57634e487b7160e01b600052602260045260246000fd5b634e487b7160e01b600052601160045260246000fd5b60008219821115612afe57612afe612ad5565b500190565b600060208284031215612b1557600080fd5b5051919050565b600060208284031215612b2e57600080fd5b815180151581146108f157600080fd5b600082821015612b5057612b50612ad5565b500390565b634e487b7160e01b600052603260045260246000fd5b7f416363657373436f6e74726f6c3a206163636f756e7420000000000000000000815260008351612ba3816017850160208801612801565b7001034b99036b4b9b9b4b733903937b6329607d1b6017918401918201528351612bd4816028840160208801612801565b01602801949350505050565b6000816000190483118215151615612bfa57612bfa612ad5565b500290565b634e487b7160e01b600052604160045260246000fd5b600081612c2457612c24612ad5565b506000190190565b600082612c4957634e487b7160e01b600052601260045260246000fd5b500490565b634e487b7160e01b600052602160045260246000fd5b634e487b7160e01b600052603160045260246000fdfea26469706673582212208011a11423a091ba2ebf62d4deb233bcd02d9918317c440d8e9ca2335d4f5ea864736f6c634300080d0033",
    "sourcePath": "f:/blockchain/solidityCode/contracts/MGFToken.sol",
    "compiler": {
        "name": "solc",
        "version": "0.8.13+commit.abaa5c0e"
    },
    "functionHashes": {
        "BURNER_ROLE()": "282c51f3",
        "DEFAULT_ADMIN_ROLE()": "a217fddf",
        "DOMAIN_SEPARATOR()": "3644e515",
        "MINTER_ROLE()": "d5391393",
        "PAUSER_ROLE()": "e63ab1e9",
        "allowance(address,address)": "dd62ed3e",
        "approve(address,uint256)": "095ea7b3",
        "balanceOf(address)": "70a08231",
        "burn(address,uint256)": "9dc29fac",
        "burn(uint256)": "42966c68",
        "burnFrom(address,uint256)": "79cc6790",
        "checkpoints(address,uint32)": "f1127ed8",
        "decimals()": "313ce567",
        "decreaseAllowance(address,uint256)": "a457c2d7",
        "delegate(address)": "5c19a95c",
        "delegateBySig(address,uint256,uint256,uint8,bytes32,bytes32)": "c3cda520",
        "delegates(address)": "587cde1e",
        "getPastTotalSupply(uint256)": "8e539e8c",
        "getPastVotes(address,uint256)": "3a46b1a8",
        "getRoleAdmin(bytes32)": "248a9ca3",
        "getRoleMember(bytes32,uint256)": "9010d07c",
        "getRoleMemberCount(bytes32)": "ca15c873",
        "getVotes(address)": "9ab24eb0",
        "grantRole(bytes32,address)": "2f2ff15d",
        "hasRole(bytes32,address)": "91d14854",
        "increaseAllowance(address,uint256)": "39509351",
        "maxSupply()": "d5abeb01",
        "mint(address,uint256)": "40c10f19",
        "name()": "06fdde03",
        "nonces(address)": "7ecebe00",
        "numCheckpoints(address)": "6fcfff45",
        "pause()": "8456cb59",
        "paused()": "5c975abb",
        "permit(address,address,uint256,uint256,uint8,bytes32,bytes32)": "d505accf",
        "pullFunds(address)": "5d5a92fb",
        "renounceRole(bytes32,address)": "36568abe",
        "revokeRole(bytes32,address)": "d547741f",
        "supportsInterface(bytes4)": "01ffc9a7",
        "symbol()": "95d89b41",
        "totalSupply()": "18160ddd",
        "transfer(address,uint256)": "a9059cbb",
        "transferAdmin(address)": "75829def",
        "transferFrom(address,address,uint256)": "23b872dd",
        "unpause()": "3f4ba83a"
    },
    "gasEstimates": {
        "creation": {
            "codeDepositCost": "2288000",
            "executionCost": "infinite",
            "totalCost": "infinite"
        },
        "external": {
            "BURNER_ROLE()": "263",
            "DEFAULT_ADMIN_ROLE()": "350",
            "DOMAIN_SEPARATOR()": "infinite",
            "MINTER_ROLE()": "239",
            "PAUSER_ROLE()": "327",
            "allowance(address,address)": "infinite",
            "approve(address,uint256)": "24681",
            "balanceOf(address)": "2692",
            "burn(address,uint256)": "infinite",
            "burn(uint256)": "infinite",
            "burnFrom(address,uint256)": "infinite",
            "checkpoints(address,uint32)": "5197",
            "decimals()": "289",
            "decreaseAllowance(address,uint256)": "26934",
            "delegate(address)": "infinite",
            "delegateBySig(address,uint256,uint256,uint8,bytes32,bytes32)": "infinite",
            "delegates(address)": "2612",
            "getPastTotalSupply(uint256)": "infinite",
            "getPastVotes(address,uint256)": "7191",
            "getRoleAdmin(bytes32)": "2493",
            "getRoleMember(bytes32,uint256)": "infinite",
            "getRoleMemberCount(bytes32)": "infinite",
            "getVotes(address)": "7190",
            "grantRole(bytes32,address)": "infinite",
            "hasRole(bytes32,address)": "2718",
            "increaseAllowance(address,uint256)": "26980",
            "maxSupply()": "283",
            "mint(address,uint256)": "infinite",
            "name()": "infinite",
            "nonces(address)": "2661",
            "numCheckpoints(address)": "2803",
            "pause()": "infinite",
            "paused()": "2382",
            "permit(address,address,uint256,uint256,uint8,bytes32,bytes32)": "infinite",
            "pullFunds(address)": "infinite",
            "renounceRole(bytes32,address)": "infinite",
            "revokeRole(bytes32,address)": "infinite",
            "supportsInterface(bytes4)": "infinite",
            "symbol()": "infinite",
            "totalSupply()": "2394",
            "transfer(address,uint256)": "infinite",
            "transferAdmin(address)": "infinite",
            "transferFrom(address,address,uint256)": "infinite",
            "unpause()": "infinite"
        },
        "internal": {
            "_afterTokenTransfer(address,address,uint256)": "infinite",
            "_beforeTokenTransfer(address,address,uint256)": "infinite",
            "_burn(address,uint256)": "infinite",
            "_mint(address,uint256)": "infinite"
        }
    }
}