{
  "address": "0xa513E6E4b8f2a923D98304ec87F64353C4D5C853",
  "abi": [
    {
      "anonymous": false,
      "inputs": [
        {
          "indexed": false,
          "internalType": "bool",
          "name": "success",
          "type": "bool"
        },
        {
          "indexed": false,
          "internalType": "bytes",
          "name": "num",
          "type": "bytes"
        }
      ],
      "name": "SetValue",
      "type": "event"
    },
    {
      "inputs": [],
      "name": "num",
      "outputs": [
        {
          "internalType": "uint256",
          "name": "",
          "type": "uint256"
        }
      ],
      "stateMutability": "view",
      "type": "function"
    },
    {
      "inputs": [],
      "name": "sender",
      "outputs": [
        {
          "internalType": "address",
          "name": "",
          "type": "address"
        }
      ],
      "stateMutability": "view",
      "type": "function"
    },
    {
      "inputs": [
        {
          "internalType": "address",
          "name": "_contract",
          "type": "address"
        },
        {
          "internalType": "uint256",
          "name": "_num",
          "type": "uint256"
        }
      ],
      "name": "setVars",
      "outputs": [],
      "stateMutability": "payable",
      "type": "function"
    },
    {
      "inputs": [],
      "name": "value",
      "outputs": [
        {
          "internalType": "uint256",
          "name": "",
          "type": "uint256"
        }
      ],
      "stateMutability": "view",
      "type": "function"
    }
  ],
  "transactionHash": "0x44c0c44ab63ad8830ffa4af50d42a87c896c3d00e78374b281d105747f69e666",
  "args": [],
  "numDeployments": 2,
  "solcInputHash": "d4055adfee30842fa60b7a28843bfdbe",
  "bytecode": "0x608060405234801561001057600080fd5b5061029d806100206000396000f3fe60806040526004361061003f5760003560e01c80633fa4f245146100445780634e70b1dc1461006d57806367e404ce14610083578063d1e0f308146100bb575b600080fd5b34801561005057600080fd5b5061005a60025481565b6040519081526020015b60405180910390f35b34801561007957600080fd5b5061005a60005481565b34801561008f57600080fd5b506001546100a3906001600160a01b031681565b6040516001600160a01b039091168152602001610064565b6100ce6100c93660046101a9565b6100d0565b005b600080836001600160a01b0316836040516024016100f091815260200190565b60408051601f198184030181529181526020820180516001600160e01b0316636466414b60e01b1790525161012591906101df565b600060405180830381855af49150503d8060008114610160576040519150601f19603f3d011682016040523d82523d6000602084013e610165565b606091505b50915091507f03bcec00a1c39d070f49d8b901272aa7fddc780e588670d714cc313a755d5ab8828260405161019b9291906101fb565b60405180910390a150505050565b600080604083850312156101bb578182fd5b82356001600160a01b03811681146101d1578283fd5b946020939093013593505050565b600082516101f1818460208701610237565b9190910192915050565b82151581526040602082015260008251806040840152610222816060850160208701610237565b601f01601f1916919091016060019392505050565b60005b8381101561025257818101518382015260200161023a565b83811115610261576000848401525b5050505056fea264697066735822122051afc4f6d0a8be2369077536295d177d3c819c7a0d25bf0c5eb3dc411e0e6a6b64736f6c63430008040033",
  "devdoc": {
    "kind": "dev",
    "methods": {},
    "version": 1
  },
  "userdoc": {
    "kind": "user",
    "methods": {},
    "version": 1
  },
  "storageLayout": {
    "storage": [
      {
        "astId": 3,
        "contract": "contracts/delegateCall/A.sol:A",
        "label": "num",
        "offset": 0,
        "slot": "0",
        "type": "t_uint256"
      },
      {
        "astId": 5,
        "contract": "contracts/delegateCall/A.sol:A",
        "label": "sender",
        "offset": 0,
        "slot": "1",
        "type": "t_address"
      },
      {
        "astId": 7,
        "contract": "contracts/delegateCall/A.sol:A",
        "label": "value",
        "offset": 0,
        "slot": "2",
        "type": "t_uint256"
      }
    ],
    "types": {
      "t_address": {
        "encoding": "inplace",
        "label": "address",
        "numberOfBytes": "20"
      },
      "t_uint256": {
        "encoding": "inplace",
        "label": "uint256",
        "numberOfBytes": "32"
      }
    }
  }
}