{
  "address": "0x5FbDB2315678afecb367f032d93F642f64180aa3",
  "abi": [
    {
      "inputs": [
        {
          "internalType": "uint256",
          "name": "x",
          "type": "uint256"
        },
        {
          "internalType": "uint256",
          "name": "y",
          "type": "uint256"
        }
      ],
      "name": "addAssemebly",
      "outputs": [
        {
          "internalType": "uint256",
          "name": "",
          "type": "uint256"
        }
      ],
      "stateMutability": "pure",
      "type": "function"
    },
    {
      "inputs": [
        {
          "internalType": "uint256",
          "name": "x",
          "type": "uint256"
        },
        {
          "internalType": "uint256",
          "name": "y",
          "type": "uint256"
        }
      ],
      "name": "addSolidity",
      "outputs": [
        {
          "internalType": "uint256",
          "name": "",
          "type": "uint256"
        }
      ],
      "stateMutability": "pure",
      "type": "function"
    }
  ],
  "transactionHash": "0xd837efba48a3e86ecde1cc90a327a371d374ed45e70a4c47b9a5eb3b5b4a2786",
  "args": [],
  "numDeployments": 1,
  "solcInputHash": "122d18d16c6765c31b00c4d48abc8a49",
  "bytecode": "0x608060405234801561001057600080fd5b5060fe8061001f6000396000f3fe6080604052348015600f57600080fd5b506004361060325760003560e01c80637de6fd7a146037578063de9bad0c146058575b600080fd5b604660423660046085565b6067565b60405190815260200160405180910390f35b604660633660046085565b6074565b8181016000908152602081f35b6000607e828460a5565b9392505050565b600080604083850312156096578182fd5b50508035926020909101359150565b6000821982111560c357634e487b7160e01b81526011600452602481fd5b50019056fea26469706673582212206719c1c7a372de4a854c349890965f67fe187cdb4a52f050fe2b1b52140b9d5e64736f6c63430008040033",
  "devdoc": {
    "kind": "dev",
    "methods": {},
    "version": 1
  },
  "userdoc": {
    "kind": "user",
    "methods": {},
    "version": 1
  },
  "storageLayout": {
    "storage": [],
    "types": null
  }
}