{
  "address": "0xCf7Ed3AccA5a467e9e704C703E8D87F634fB0Fc9",
  "abi": [
    {
      "inputs": [],
      "name": "num",
      "outputs": [
        {
          "internalType": "uint256",
          "name": "",
          "type": "uint256"
        }
      ],
      "stateMutability": "view",
      "type": "function"
    },
    {
      "inputs": [],
      "name": "sender",
      "outputs": [
        {
          "internalType": "address",
          "name": "",
          "type": "address"
        }
      ],
      "stateMutability": "view",
      "type": "function"
    },
    {
      "inputs": [
        {
          "internalType": "uint256",
          "name": "_num",
          "type": "uint256"
        }
      ],
      "name": "setVars",
      "outputs": [],
      "stateMutability": "payable",
      "type": "function"
    },
    {
      "inputs": [],
      "name": "value",
      "outputs": [
        {
          "internalType": "uint256",
          "name": "",
          "type": "uint256"
        }
      ],
      "stateMutability": "view",
      "type": "function"
    }
  ],
  "transactionHash": "0x4b530b5e1e6766e23efd4d0d700a01c1fb876dc63f6f0f95729898d20c22147c",
  "args": [],
  "numDeployments": 1,
  "solcInputHash": "23aedca5a85853e117fcf32921e6fb7d",
  "bytecode": "0x608060405234801561001057600080fd5b50610124806100206000396000f3fe608060405260043610603a5760003560e01c80633fa4f24514603f5780634e70b1dc1460665780636466414b14607a57806367e404ce1460a2575b600080fd5b348015604a57600080fd5b50605360025481565b6040519081526020015b60405180910390f35b348015607157600080fd5b50605360005481565b60a0608536600460d7565b600055600180546001600160a01b0319163317905534600255565b005b34801560ad57600080fd5b5060015460c0906001600160a01b031681565b6040516001600160a01b039091168152602001605d565b60006020828403121560e7578081fd5b503591905056fea264697066735822122006f9d200561220cef9864928e96829b9bb96ec448b0aad3398ebba068fed9b8664736f6c63430008040033",
  "devdoc": {
    "kind": "dev",
    "methods": {},
    "version": 1
  },
  "userdoc": {
    "kind": "user",
    "methods": {},
    "version": 1
  },
  "storageLayout": {
    "storage": [
      {
        "astId": 3,
        "contract": "contracts/delegateCall/B.sol:B",
        "label": "num",
        "offset": 0,
        "slot": "0",
        "type": "t_uint256"
      },
      {
        "astId": 5,
        "contract": "contracts/delegateCall/B.sol:B",
        "label": "sender",
        "offset": 0,
        "slot": "1",
        "type": "t_address"
      },
      {
        "astId": 7,
        "contract": "contracts/delegateCall/B.sol:B",
        "label": "value",
        "offset": 0,
        "slot": "2",
        "type": "t_uint256"
      }
    ],
    "types": {
      "t_address": {
        "encoding": "inplace",
        "label": "address",
        "numberOfBytes": "20"
      },
      "t_uint256": {
        "encoding": "inplace",
        "label": "uint256",
        "numberOfBytes": "32"
      }
    }
  }
}