{
  "address": "0xe7f1725E7734CE288F8367e1Bb143E90bb3F0512",
  "abi": [
    {
      "anonymous": false,
      "inputs": [
        {
          "indexed": false,
          "internalType": "bool",
          "name": "success",
          "type": "bool"
        },
        {
          "indexed": false,
          "internalType": "uint256",
          "name": "value",
          "type": "uint256"
        }
      ],
      "name": "Response",
      "type": "event"
    },
    {
      "inputs": [
        {
          "internalType": "address",
          "name": "_addr",
          "type": "address"
        }
      ],
      "name": "testCallDoesNotExist",
      "outputs": [],
      "stateMutability": "nonpayable",
      "type": "function"
    },
    {
      "inputs": [
        {
          "internalType": "address payable",
          "name": "_addr",
          "type": "address"
        }
      ],
      "name": "testCallFoo",
      "outputs": [],
      "stateMutability": "payable",
      "type": "function"
    },
    {
      "inputs": [
        {
          "internalType": "address payable",
          "name": "_addr",
          "type": "address"
        }
      ],
      "name": "testCallFooWithValueAndGas",
      "outputs": [],
      "stateMutability": "payable",
      "type": "function"
    }
  ],
  "transactionHash": "0x3a154b5f6efb48c2b32f746752817eb9eeebcd25823887872e3126d49b25d74a",
  "args": [],
  "numDeployments": 1,
  "solcInputHash": "1b7192a4a94792e296f35f56105deb94",
  "bytecode": "0x608060405234801561001057600080fd5b506103c4806100206000396000f3fe6080604052600436106100345760003560e01c8063074323281461003957806387ba61791461004e578063ff00726c14610061575b600080fd5b61004c61004736600461028f565b610081565b005b61004c61005c36600461028f565b6101ba565b34801561006d57600080fd5b5061004c61007c36600461028f565b61024c565b600080826001600160a01b03163461138890607b6040516024016100a59190610303565b60408051601f198184030181529181526020820180516001600160e01b03166324ccab8f60e01b179052516100da91906102ca565b600060405180830381858888f193505050503d8060008114610118576040519150601f19603f3d011682016040523d82523d6000602084013e61011d565b606091505b5091509150816101605760405162461bcd60e51b815260206004820152600a60248201526931b0b6361032b93937b960b11b604482015260640160405180910390fd5b60008180602001905181019061017691906102b2565b604080518515158152602081018390529192507f21070269129160b78954018449b4a2c215c575e4a94262560eaf9541e0c018a7910160405180910390a150505050565b600080826001600160a01b031661012c6040516024016101da919061033c565b60408051601f198184030181529181526020820180516001600160e01b03166324ccab8f60e01b1790525161020f91906102ca565b6000604051808303816000865af19150503d8060008114610118576040519150601f19603f3d011682016040523d82523d6000602084013e61011d565b60408051600481526024810182526020810180516001600160e01b0316630ee642d760e11b179052905160009182916001600160a01b0385169161020f916102ca565b6000602082840312156102a0578081fd5b81356102ab81610376565b9392505050565b6000602082840312156102c3578081fd5b5051919050565b60008251815b818110156102ea57602081860181015185830152016102d0565b818111156102f85782828501525b509190910192915050565b60408152600061032b60408301600881526763616c6c20666f6f60c01b602082015260400190565b905060ff8316602083015292915050565b60408152600061036460408301600881526763616c6c20666f6f60c01b602082015260400190565b905061ffff8316602083015292915050565b6001600160a01b038116811461038b57600080fd5b5056fea2646970667358221220ed283aa0a1d460d71bde171f90b3089c34a10518d971d1ca1d62a22416465b6964736f6c63430008040033",
  "devdoc": {
    "kind": "dev",
    "methods": {},
    "version": 1
  },
  "userdoc": {
    "kind": "user",
    "methods": {},
    "version": 1
  },
  "storageLayout": {
    "storage": [],
    "types": null
  }
}