{
  "address": "0xCf7Ed3AccA5a467e9e704C703E8D87F634fB0Fc9",
  "abi": [
    {
      "inputs": [],
      "stateMutability": "nonpayable",
      "type": "constructor"
    },
    {
      "anonymous": false,
      "inputs": [
        {
          "indexed": true,
          "internalType": "address",
          "name": "owner",
          "type": "address"
        },
        {
          "indexed": true,
          "internalType": "address",
          "name": "approved",
          "type": "address"
        },
        {
          "indexed": true,
          "internalType": "uint256",
          "name": "tokenId",
          "type": "uint256"
        }
      ],
      "name": "Approval",
      "type": "event"
    },
    {
      "anonymous": false,
      "inputs": [
        {
          "indexed": true,
          "internalType": "address",
          "name": "owner",
          "type": "address"
        },
        {
          "indexed": true,
          "internalType": "address",
          "name": "operator",
          "type": "address"
        },
        {
          "indexed": false,
          "internalType": "bool",
          "name": "approved",
          "type": "bool"
        }
      ],
      "name": "ApprovalForAll",
      "type": "event"
    },
    {
      "anonymous": false,
      "inputs": [
        {
          "indexed": false,
          "internalType": "address",
          "name": "_to",
          "type": "address"
        },
        {
          "indexed": false,
          "internalType": "uint256",
          "name": "tokenid_",
          "type": "uint256"
        }
      ],
      "name": "Mint",
      "type": "event"
    },
    {
      "anonymous": false,
      "inputs": [
        {
          "indexed": true,
          "internalType": "address",
          "name": "_to",
          "type": "address"
        },
        {
          "indexed": false,
          "internalType": "uint256",
          "name": "_amount",
          "type": "uint256"
        }
      ],
      "name": "MintMulti",
      "type": "event"
    },
    {
      "anonymous": false,
      "inputs": [
        {
          "indexed": true,
          "internalType": "bytes32",
          "name": "role",
          "type": "bytes32"
        },
        {
          "indexed": true,
          "internalType": "bytes32",
          "name": "previousAdminRole",
          "type": "bytes32"
        },
        {
          "indexed": true,
          "internalType": "bytes32",
          "name": "newAdminRole",
          "type": "bytes32"
        }
      ],
      "name": "RoleAdminChanged",
      "type": "event"
    },
    {
      "anonymous": false,
      "inputs": [
        {
          "indexed": true,
          "internalType": "bytes32",
          "name": "role",
          "type": "bytes32"
        },
        {
          "indexed": true,
          "internalType": "address",
          "name": "account",
          "type": "address"
        },
        {
          "indexed": true,
          "internalType": "address",
          "name": "sender",
          "type": "address"
        }
      ],
      "name": "RoleGranted",
      "type": "event"
    },
    {
      "anonymous": false,
      "inputs": [
        {
          "indexed": true,
          "internalType": "bytes32",
          "name": "role",
          "type": "bytes32"
        },
        {
          "indexed": true,
          "internalType": "address",
          "name": "account",
          "type": "address"
        },
        {
          "indexed": true,
          "internalType": "address",
          "name": "sender",
          "type": "address"
        }
      ],
      "name": "RoleRevoked",
      "type": "event"
    },
    {
      "anonymous": false,
      "inputs": [
        {
          "indexed": true,
          "internalType": "address",
          "name": "from",
          "type": "address"
        },
        {
          "indexed": true,
          "internalType": "address",
          "name": "to",
          "type": "address"
        },
        {
          "indexed": true,
          "internalType": "uint256",
          "name": "tokenId",
          "type": "uint256"
        }
      ],
      "name": "Transfer",
      "type": "event"
    },
    {
      "inputs": [],
      "name": "DEFAULT_ADMIN_ROLE",
      "outputs": [
        {
          "internalType": "bytes32",
          "name": "",
          "type": "bytes32"
        }
      ],
      "stateMutability": "view",
      "type": "function"
    },
    {
      "inputs": [
        {
          "internalType": "address",
          "name": "to",
          "type": "address"
        },
        {
          "internalType": "uint256",
          "name": "tokenId",
          "type": "uint256"
        }
      ],
      "name": "approve",
      "outputs": [],
      "stateMutability": "nonpayable",
      "type": "function"
    },
    {
      "inputs": [
        {
          "internalType": "address",
          "name": "owner",
          "type": "address"
        }
      ],
      "name": "balanceOf",
      "outputs": [
        {
          "internalType": "uint256",
          "name": "",
          "type": "uint256"
        }
      ],
      "stateMutability": "view",
      "type": "function"
    },
    {
      "inputs": [],
      "name": "currToken",
      "outputs": [
        {
          "internalType": "contract IERC20Upgradeable",
          "name": "",
          "type": "address"
        }
      ],
      "stateMutability": "view",
      "type": "function"
    },
    {
      "inputs": [
        {
          "internalType": "uint256",
          "name": "tokenId",
          "type": "uint256"
        }
      ],
      "name": "getApproved",
      "outputs": [
        {
          "internalType": "address",
          "name": "",
          "type": "address"
        }
      ],
      "stateMutability": "view",
      "type": "function"
    },
    {
      "inputs": [
        {
          "internalType": "bytes32",
          "name": "role",
          "type": "bytes32"
        }
      ],
      "name": "getRoleAdmin",
      "outputs": [
        {
          "internalType": "bytes32",
          "name": "",
          "type": "bytes32"
        }
      ],
      "stateMutability": "view",
      "type": "function"
    },
    {
      "inputs": [
        {
          "internalType": "bytes32",
          "name": "role",
          "type": "bytes32"
        },
        {
          "internalType": "uint256",
          "name": "index",
          "type": "uint256"
        }
      ],
      "name": "getRoleMember",
      "outputs": [
        {
          "internalType": "address",
          "name": "",
          "type": "address"
        }
      ],
      "stateMutability": "view",
      "type": "function"
    },
    {
      "inputs": [
        {
          "internalType": "bytes32",
          "name": "role",
          "type": "bytes32"
        }
      ],
      "name": "getRoleMemberCount",
      "outputs": [
        {
          "internalType": "uint256",
          "name": "",
          "type": "uint256"
        }
      ],
      "stateMutability": "view",
      "type": "function"
    },
    {
      "inputs": [
        {
          "internalType": "bytes32",
          "name": "role",
          "type": "bytes32"
        },
        {
          "internalType": "address",
          "name": "account",
          "type": "address"
        }
      ],
      "name": "grantRole",
      "outputs": [],
      "stateMutability": "nonpayable",
      "type": "function"
    },
    {
      "inputs": [
        {
          "internalType": "bytes32",
          "name": "role",
          "type": "bytes32"
        },
        {
          "internalType": "address",
          "name": "account",
          "type": "address"
        }
      ],
      "name": "hasRole",
      "outputs": [
        {
          "internalType": "bool",
          "name": "",
          "type": "bool"
        }
      ],
      "stateMutability": "view",
      "type": "function"
    },
    {
      "inputs": [
        {
          "internalType": "contract IERC20Upgradeable",
          "name": "currToken_",
          "type": "address"
        },
        {
          "internalType": "uint256",
          "name": "nftPrice_",
          "type": "uint256"
        },
        {
          "internalType": "address",
          "name": "tokenReceiveAddress_",
          "type": "address"
        }
      ],
      "name": "initialize",
      "outputs": [],
      "stateMutability": "nonpayable",
      "type": "function"
    },
    {
      "inputs": [
        {
          "internalType": "address",
          "name": "owner",
          "type": "address"
        },
        {
          "internalType": "address",
          "name": "operator",
          "type": "address"
        }
      ],
      "name": "isApprovedForAll",
      "outputs": [
        {
          "internalType": "bool",
          "name": "",
          "type": "bool"
        }
      ],
      "stateMutability": "view",
      "type": "function"
    },
    {
      "inputs": [
        {
          "internalType": "uint256",
          "name": "amount",
          "type": "uint256"
        }
      ],
      "name": "mintMulti",
      "outputs": [],
      "stateMutability": "nonpayable",
      "type": "function"
    },
    {
      "inputs": [],
      "name": "name",
      "outputs": [
        {
          "internalType": "string",
          "name": "",
          "type": "string"
        }
      ],
      "stateMutability": "view",
      "type": "function"
    },
    {
      "inputs": [],
      "name": "nftPrice",
      "outputs": [
        {
          "internalType": "uint256",
          "name": "",
          "type": "uint256"
        }
      ],
      "stateMutability": "view",
      "type": "function"
    },
    {
      "inputs": [
        {
          "internalType": "uint256",
          "name": "tokenId",
          "type": "uint256"
        }
      ],
      "name": "ownerOf",
      "outputs": [
        {
          "internalType": "address",
          "name": "",
          "type": "address"
        }
      ],
      "stateMutability": "view",
      "type": "function"
    },
    {
      "inputs": [
        {
          "internalType": "bytes32",
          "name": "role",
          "type": "bytes32"
        },
        {
          "internalType": "address",
          "name": "account",
          "type": "address"
        }
      ],
      "name": "renounceRole",
      "outputs": [],
      "stateMutability": "nonpayable",
      "type": "function"
    },
    {
      "inputs": [
        {
          "internalType": "bytes32",
          "name": "role",
          "type": "bytes32"
        },
        {
          "internalType": "address",
          "name": "account",
          "type": "address"
        }
      ],
      "name": "revokeRole",
      "outputs": [],
      "stateMutability": "nonpayable",
      "type": "function"
    },
    {
      "inputs": [
        {
          "internalType": "address",
          "name": "from",
          "type": "address"
        },
        {
          "internalType": "address",
          "name": "to",
          "type": "address"
        },
        {
          "internalType": "uint256",
          "name": "tokenId",
          "type": "uint256"
        }
      ],
      "name": "safeTransferFrom",
      "outputs": [],
      "stateMutability": "nonpayable",
      "type": "function"
    },
    {
      "inputs": [
        {
          "internalType": "address",
          "name": "from",
          "type": "address"
        },
        {
          "internalType": "address",
          "name": "to",
          "type": "address"
        },
        {
          "internalType": "uint256",
          "name": "tokenId",
          "type": "uint256"
        },
        {
          "internalType": "bytes",
          "name": "_data",
          "type": "bytes"
        }
      ],
      "name": "safeTransferFrom",
      "outputs": [],
      "stateMutability": "nonpayable",
      "type": "function"
    },
    {
      "inputs": [
        {
          "internalType": "address",
          "name": "operator",
          "type": "address"
        },
        {
          "internalType": "bool",
          "name": "approved",
          "type": "bool"
        }
      ],
      "name": "setApprovalForAll",
      "outputs": [],
      "stateMutability": "nonpayable",
      "type": "function"
    },
    {
      "inputs": [
        {
          "internalType": "bytes4",
          "name": "interfaceId",
          "type": "bytes4"
        }
      ],
      "name": "supportsInterface",
      "outputs": [
        {
          "internalType": "bool",
          "name": "",
          "type": "bool"
        }
      ],
      "stateMutability": "view",
      "type": "function"
    },
    {
      "inputs": [],
      "name": "symbol",
      "outputs": [
        {
          "internalType": "string",
          "name": "",
          "type": "string"
        }
      ],
      "stateMutability": "view",
      "type": "function"
    },
    {
      "inputs": [
        {
          "internalType": "uint256",
          "name": "index",
          "type": "uint256"
        }
      ],
      "name": "tokenByIndex",
      "outputs": [
        {
          "internalType": "uint256",
          "name": "",
          "type": "uint256"
        }
      ],
      "stateMutability": "view",
      "type": "function"
    },
    {
      "inputs": [
        {
          "internalType": "address",
          "name": "owner",
          "type": "address"
        },
        {
          "internalType": "uint256",
          "name": "index",
          "type": "uint256"
        }
      ],
      "name": "tokenOfOwnerByIndex",
      "outputs": [
        {
          "internalType": "uint256",
          "name": "",
          "type": "uint256"
        }
      ],
      "stateMutability": "view",
      "type": "function"
    },
    {
      "inputs": [],
      "name": "tokenReceiveAddress",
      "outputs": [
        {
          "internalType": "address",
          "name": "",
          "type": "address"
        }
      ],
      "stateMutability": "view",
      "type": "function"
    },
    {
      "inputs": [
        {
          "internalType": "uint256",
          "name": "tokenId",
          "type": "uint256"
        }
      ],
      "name": "tokenURI",
      "outputs": [
        {
          "internalType": "string",
          "name": "",
          "type": "string"
        }
      ],
      "stateMutability": "view",
      "type": "function"
    },
    {
      "inputs": [],
      "name": "totalSupply",
      "outputs": [
        {
          "internalType": "uint256",
          "name": "",
          "type": "uint256"
        }
      ],
      "stateMutability": "view",
      "type": "function"
    },
    {
      "inputs": [
        {
          "internalType": "address",
          "name": "from",
          "type": "address"
        },
        {
          "internalType": "address",
          "name": "to",
          "type": "address"
        },
        {
          "internalType": "uint256",
          "name": "tokenId",
          "type": "uint256"
        }
      ],
      "name": "transferFrom",
      "outputs": [],
      "stateMutability": "nonpayable",
      "type": "function"
    }
  ],
  "transactionHash": "0x9f1ac349384ff076268254f03e49fbf01b893bdcc797f2cb138617cdd5c2b460",
  "args": [],
  "numDeployments": 2,
  "solcInputHash": "92fee7ec7af52bb133a2303bac5a6112",
  "bytecode": "0x608060405234801561001057600080fd5b506128b3806100206000396000f3fe608060405234801561001057600080fd5b50600436106101cf5760003560e01c806351e5d91d11610104578063a217fddf116100a2578063c87b56dd11610071578063c87b56dd146103d6578063ca15c873146103e9578063d547741f146103fc578063e985e9c51461040f57600080fd5b8063a217fddf14610395578063a22cb4651461039d578063b88d4fde146103b0578063c350a1b5146103c357600080fd5b806388aac7b4116100de57806388aac7b4146103535780639010d07c1461036757806391d148541461037a57806395d89b411461038d57600080fd5b806351e5d91d1461031a5780636352211e1461032d57806370a082311461034057600080fd5b806323b872dd116101715780632f745c591161014b5780632f745c59146102ce57806336568abe146102e157806342842e0e146102f45780634f6ccce71461030757600080fd5b806323b872dd14610285578063248a9ca3146102985780632f2ff15d146102bb57600080fd5b8063095ea7b3116101ad578063095ea7b31461023c5780630d39fc81146102515780630ed368321461026957806318160ddd1461027d57600080fd5b806301ffc9a7146101d457806306fdde03146101fc578063081812fc14610211575b600080fd5b6101e76101e236600461244d565b61044b565b60405190151581526020015b60405180910390f35b61020461045c565b6040516101f391906125ef565b61022461021f3660046123f0565b6104ee565b6040516001600160a01b0390911681526020016101f3565b61024f61024a3660046123a9565b610588565b005b61025b61012f5481565b6040519081526020016101f3565b61013054610224906001600160a01b031681565b60fd5461025b565b61024f610293366004612263565b61069e565b61025b6102a63660046123f0565b60009081526065602052604090206001015490565b61024f6102c9366004612408565b6106cf565b61025b6102dc3660046123a9565b6106f5565b61024f6102ef366004612408565b61078b565b61024f610302366004612263565b610809565b61025b6103153660046123f0565b610824565b61024f6103283660046123f0565b6108c5565b61022461033b3660046123f0565b610a3d565b61025b61034e36600461220f565b610ab4565b61012e54610224906001600160a01b031681565b61022461037536600461242c565b610b3b565b6101e7610388366004612408565b610b5a565b610204610b85565b61025b600081565b61024f6103ab36600461237c565b610b94565b61024f6103be3660046122a3565b610b9f565b61024f6103d1366004612485565b610bd7565b6102046103e43660046123f0565b610d27565b61025b6103f73660046123f0565b610e0e565b61024f61040a366004612408565b610e25565b6101e761041d36600461222b565b6001600160a01b03918216600090815260ce6020908152604080832093909416825291909152205460ff1690565b600061045682610e4b565b92915050565b606060c9805461046b90612795565b80601f016020809104026020016040519081016040528092919081815260200182805461049790612795565b80156104e45780601f106104b9576101008083540402835291602001916104e4565b820191906000526020600020905b8154815290600101906020018083116104c757829003601f168201915b5050505050905090565b600081815260cb60205260408120546001600160a01b031661056c5760405162461bcd60e51b815260206004820152602c60248201527f4552433732313a20617070726f76656420717565727920666f72206e6f6e657860448201526b34b9ba32b73a103a37b5b2b760a11b60648201526084015b60405180910390fd5b50600090815260cd60205260409020546001600160a01b031690565b600061059382610a3d565b9050806001600160a01b0316836001600160a01b031614156106015760405162461bcd60e51b815260206004820152602160248201527f4552433732313a20617070726f76616c20746f2063757272656e74206f776e656044820152603960f91b6064820152608401610563565b336001600160a01b038216148061061d575061061d813361041d565b61068f5760405162461bcd60e51b815260206004820152603860248201527f4552433732313a20617070726f76652063616c6c6572206973206e6f74206f7760448201527f6e6572206e6f7220617070726f76656420666f7220616c6c00000000000000006064820152608401610563565b6106998383610e70565b505050565b6106a83382610ede565b6106c45760405162461bcd60e51b815260040161056390612654565b610699838383610fd5565b6000828152606560205260409020600101546106eb813361117c565b61069983836111e0565b600061070083610ab4565b82106107625760405162461bcd60e51b815260206004820152602b60248201527f455243373231456e756d657261626c653a206f776e657220696e646578206f7560448201526a74206f6620626f756e647360a81b6064820152608401610563565b506001600160a01b0391909116600090815260fb60209081526040808320938352929052205490565b6001600160a01b03811633146107fb5760405162461bcd60e51b815260206004820152602f60248201527f416363657373436f6e74726f6c3a2063616e206f6e6c792072656e6f756e636560448201526e103937b632b9903337b91039b2b63360891b6064820152608401610563565b6108058282611202565b5050565b61069983838360405180602001604052806000815250610b9f565b600061082f60fd5490565b82106108925760405162461bcd60e51b815260206004820152602c60248201527f455243373231456e756d657261626c653a20676c6f62616c20696e646578206f60448201526b7574206f6620626f756e647360a01b6064820152608401610563565b60fd82815481106108b357634e487b7160e01b600052603260045260246000fd5b90600052602060002001549050919050565b3332146109085760405162461bcd60e51b8152602060048201526011602482015270426c696e64626f783a206e6f7420656f6160781b6044820152606401610563565b600081116109585760405162461bcd60e51b815260206004820152601860248201527f426c696e64426f783a206d697373696e6720616d6f756e7400000000000000006044820152606401610563565b60005b818110156109d0576109703361012d54611224565b61012d5460408051338152602081019290925280517f0f6798a560793a54c3bcfe86a93cde1e73087d944c0ea20544137d41213968859281900390910190a16109be61012d80546001019055565b806109c8816127d0565b91505061095b565b5060008161012f546109e2919061271c565b9050610a04336101305461012e546001600160a01b0390811692911684611372565b60405182815233907f53dd95d829e31e93d4b97ced80cdb8c1d859de42fc3b07850e70e7f71ceaab359060200160405180910390a25050565b600081815260cb60205260408120546001600160a01b0316806104565760405162461bcd60e51b815260206004820152602960248201527f4552433732313a206f776e657220717565727920666f72206e6f6e657869737460448201526832b73a103a37b5b2b760b91b6064820152608401610563565b60006001600160a01b038216610b1f5760405162461bcd60e51b815260206004820152602a60248201527f4552433732313a2062616c616e636520717565727920666f7220746865207a65604482015269726f206164647265737360b01b6064820152608401610563565b506001600160a01b0316600090815260cc602052604090205490565b6000828152609760205260408120610b5390836113cc565b9392505050565b60009182526065602090815260408084206001600160a01b0393909316845291905290205460ff1690565b606060ca805461046b90612795565b6108053383836113d8565b610ba93383610ede565b610bc55760405162461bcd60e51b815260040161056390612654565b610bd1848484846114a7565b50505050565b600054610100900460ff16610bf25760005460ff1615610bf6565b303b155b610c595760405162461bcd60e51b815260206004820152602e60248201527f496e697469616c697a61626c653a20636f6e747261637420697320616c72656160448201526d191e481a5b9a5d1a585b1a5e995960921b6064820152608401610563565b600054610100900460ff16158015610c7b576000805461ffff19166101011790555b610c836114da565b610cd06040518060400160405280600c81526020016b08aa0964090cae4de4084def60a31b815250604051806040016040528060078152602001660908aa49e849eb60cb1b815250611503565b610cd86114da565b61012e80546001600160a01b038087166001600160a01b03199283161790925561012f8590556101308054928516929091169190911790558015610bd1576000805461ff001916905550505050565b600081815260cb60205260409020546060906001600160a01b0316610da65760405162461bcd60e51b815260206004820152602f60248201527f4552433732314d657461646174613a2055524920717565727920666f72206e6f60448201526e3732bc34b9ba32b73a103a37b5b2b760891b6064820152608401610563565b6000610dbd60408051602081019091526000815290565b90506000815111610ddd5760405180602001604052806000815250610b53565b80610de784611551565b604051602001610df892919061250e565b6040516020818303038152906040529392505050565b60008181526097602052604081206104569061166b565b600082815260656020526040902060010154610e41813361117c565b6106998383611202565b60006001600160e01b0319821663780e9d6360e01b1480610456575061045682611675565b600081815260cd6020526040902080546001600160a01b0319166001600160a01b0384169081179091558190610ea582610a3d565b6001600160a01b03167f8c5be1e5ebec7d5bd14f71427d1e84f3dd0314c0f7b2291e5b200ac8c7c3b92560405160405180910390a45050565b600081815260cb60205260408120546001600160a01b0316610f575760405162461bcd60e51b815260206004820152602c60248201527f4552433732313a206f70657261746f7220717565727920666f72206e6f6e657860448201526b34b9ba32b73a103a37b5b2b760a11b6064820152608401610563565b6000610f6283610a3d565b9050806001600160a01b0316846001600160a01b03161480610f9d5750836001600160a01b0316610f92846104ee565b6001600160a01b0316145b80610fcd57506001600160a01b03808216600090815260ce602090815260408083209388168352929052205460ff165b949350505050565b826001600160a01b0316610fe882610a3d565b6001600160a01b03161461104c5760405162461bcd60e51b815260206004820152602560248201527f4552433732313a207472616e736665722066726f6d20696e636f72726563742060448201526437bbb732b960d91b6064820152608401610563565b6001600160a01b0382166110ae5760405162461bcd60e51b8152602060048201526024808201527f4552433732313a207472616e7366657220746f20746865207a65726f206164646044820152637265737360e01b6064820152608401610563565b6110b98383836116b5565b6110c4600082610e70565b6001600160a01b038316600090815260cc602052604081208054600192906110ed90849061273b565b90915550506001600160a01b038216600090815260cc6020526040812080546001929061111b9084906126f0565b9091555050600081815260cb602052604080822080546001600160a01b0319166001600160a01b0386811691821790925591518493918716917fddf252ad1be2c89b69c2b068fc378daa952ba7f163c4a11628f55a4df523b3ef91a4505050565b6111868282610b5a565b6108055761119e816001600160a01b0316601461176d565b6111a983602061176d565b6040516020016111ba92919061253d565b60408051601f198184030181529082905262461bcd60e51b8252610563916004016125ef565b6111ea828261194f565b600082815260976020526040902061069990826119d5565b61120c82826119ea565b60008281526097602052604090206106999082611a51565b6001600160a01b03821661127a5760405162461bcd60e51b815260206004820181905260248201527f4552433732313a206d696e7420746f20746865207a65726f20616464726573736044820152606401610563565b600081815260cb60205260409020546001600160a01b0316156112df5760405162461bcd60e51b815260206004820152601c60248201527f4552433732313a20746f6b656e20616c7265616479206d696e746564000000006044820152606401610563565b6112eb600083836116b5565b6001600160a01b038216600090815260cc602052604081208054600192906113149084906126f0565b9091555050600081815260cb602052604080822080546001600160a01b0319166001600160a01b03861690811790915590518392907fddf252ad1be2c89b69c2b068fc378daa952ba7f163c4a11628f55a4df523b3ef908290a45050565b604080516001600160a01b0385811660248301528416604482015260648082018490528251808303909101815260849091019091526020810180516001600160e01b03166323b872dd60e01b179052610bd1908590611a66565b6000610b538383611b38565b816001600160a01b0316836001600160a01b0316141561143a5760405162461bcd60e51b815260206004820152601960248201527f4552433732313a20617070726f766520746f2063616c6c6572000000000000006044820152606401610563565b6001600160a01b03838116600081815260ce6020908152604080832094871680845294825291829020805460ff191686151590811790915591519182527f17307eab39ab6107e8899845ad3d59bd9653f200f220920489ca2b5937696c31910160405180910390a3505050565b6114b2848484610fd5565b6114be84848484611b70565b610bd15760405162461bcd60e51b815260040161056390612602565b600054610100900460ff166115015760405162461bcd60e51b8152600401610563906126a5565b565b600054610100900460ff1661152a5760405162461bcd60e51b8152600401610563906126a5565b815161153d9060c9906020850190612176565b5080516106999060ca906020840190612176565b6060816115755750506040805180820190915260018152600360fc1b602082015290565b8160005b811561159f5780611589816127d0565b91506115989050600a83612708565b9150611579565b60008167ffffffffffffffff8111156115c857634e487b7160e01b600052604160045260246000fd5b6040519080825280601f01601f1916602001820160405280156115f2576020820181803683370190505b5090505b8415610fcd5761160760018361273b565b9150611614600a866127eb565b61161f9060306126f0565b60f81b81838151811061164257634e487b7160e01b600052603260045260246000fd5b60200101906001600160f81b031916908160001a905350611664600a86612708565b94506115f6565b6000610456825490565b60006001600160e01b031982166380ac58cd60e01b14806116a657506001600160e01b03198216635b5e139f60e01b145b80610456575061045682611c7d565b6001600160a01b0383166117105761170b8160fd8054600083815260fe60205260408120829055600182018355919091527f9346ac6dd7de6b96975fec380d4d994c4c12e6a8897544f22915316cc6cca2800155565b611733565b816001600160a01b0316836001600160a01b031614611733576117338382611ca2565b6001600160a01b03821661174a5761069981611d3f565b826001600160a01b0316826001600160a01b031614610699576106998282611e18565b6060600061177c83600261271c565b6117879060026126f0565b67ffffffffffffffff8111156117ad57634e487b7160e01b600052604160045260246000fd5b6040519080825280601f01601f1916602001820160405280156117d7576020820181803683370190505b509050600360fc1b8160008151811061180057634e487b7160e01b600052603260045260246000fd5b60200101906001600160f81b031916908160001a905350600f60fb1b8160018151811061183d57634e487b7160e01b600052603260045260246000fd5b60200101906001600160f81b031916908160001a905350600061186184600261271c565b61186c9060016126f0565b90505b6001811115611900576f181899199a1a9b1b9c1cb0b131b232b360811b85600f16601081106118ae57634e487b7160e01b600052603260045260246000fd5b1a60f81b8282815181106118d257634e487b7160e01b600052603260045260246000fd5b60200101906001600160f81b031916908160001a90535060049490941c936118f98161277e565b905061186f565b508315610b535760405162461bcd60e51b815260206004820181905260248201527f537472696e67733a20686578206c656e67746820696e73756666696369656e746044820152606401610563565b6119598282610b5a565b6108055760008281526065602090815260408083206001600160a01b03851684529091529020805460ff191660011790556119913390565b6001600160a01b0316816001600160a01b0316837f2f8788117e7eff1d82e926ec794901d17c78024a50270940304540a733656f0d60405160405180910390a45050565b6000610b53836001600160a01b038416611e5c565b6119f48282610b5a565b156108055760008281526065602090815260408083206001600160a01b0385168085529252808320805460ff1916905551339285917ff6391f5c32d9c69d2a47ea670b442974b53935d1edc7fd64eb21e047a839171b9190a45050565b6000610b53836001600160a01b038416611eab565b6000611abb826040518060400160405280602081526020017f5361666545524332303a206c6f772d6c6576656c2063616c6c206661696c6564815250856001600160a01b0316611fc89092919063ffffffff16565b8051909150156106995780806020019051810190611ad991906123d4565b6106995760405162461bcd60e51b815260206004820152602a60248201527f5361666545524332303a204552433230206f7065726174696f6e20646964206e6044820152691bdd081cdd58d8d9595960b21b6064820152608401610563565b6000826000018281548110611b5d57634e487b7160e01b600052603260045260246000fd5b9060005260206000200154905092915050565b60006001600160a01b0384163b15611c7257604051630a85bd0160e11b81526001600160a01b0385169063150b7a0290611bb49033908990889088906004016125b2565b602060405180830381600087803b158015611bce57600080fd5b505af1925050508015611bfe575060408051601f3d908101601f19168201909252611bfb91810190612469565b60015b611c58573d808015611c2c576040519150601f19603f3d011682016040523d82523d6000602084013e611c31565b606091505b508051611c505760405162461bcd60e51b815260040161056390612602565b805181602001fd5b6001600160e01b031916630a85bd0160e11b149050610fcd565b506001949350505050565b60006001600160e01b03198216635a05180f60e01b1480610456575061045682611fd7565b60006001611caf84610ab4565b611cb9919061273b565b600083815260fc6020526040902054909150808214611d0c576001600160a01b038416600090815260fb60209081526040808320858452825280832054848452818420819055835260fc90915290208190555b50600091825260fc602090815260408084208490556001600160a01b03909416835260fb81528383209183525290812055565b60fd54600090611d519060019061273b565b600083815260fe602052604081205460fd8054939450909284908110611d8757634e487b7160e01b600052603260045260246000fd5b906000526020600020015490508060fd8381548110611db657634e487b7160e01b600052603260045260246000fd5b600091825260208083209091019290925582815260fe909152604080822084905585825281205560fd805480611dfc57634e487b7160e01b600052603160045260246000fd5b6001900381819060005260206000200160009055905550505050565b6000611e2383610ab4565b6001600160a01b03909316600090815260fb60209081526040808320868452825280832085905593825260fc9052919091209190915550565b6000818152600183016020526040812054611ea357508154600181810184556000848152602080822090930184905584548482528286019093526040902091909155610456565b506000610456565b60008181526001830160205260408120548015611fbe576000611ecf60018361273b565b8554909150600090611ee39060019061273b565b9050818114611f64576000866000018281548110611f1157634e487b7160e01b600052603260045260246000fd5b9060005260206000200154905080876000018481548110611f4257634e487b7160e01b600052603260045260246000fd5b6000918252602080832090910192909255918252600188019052604090208390555b8554869080611f8357634e487b7160e01b600052603160045260246000fd5b600190038181906000526020600020016000905590558560010160008681526020019081526020016000206000905560019350505050610456565b6000915050610456565b6060610fcd848460008561200c565b60006001600160e01b03198216637965db0b60e01b148061045657506301ffc9a760e01b6001600160e01b0319831614610456565b60608247101561206d5760405162461bcd60e51b815260206004820152602660248201527f416464726573733a20696e73756666696369656e742062616c616e636520666f6044820152651c8818d85b1b60d21b6064820152608401610563565b6001600160a01b0385163b6120c45760405162461bcd60e51b815260206004820152601d60248201527f416464726573733a2063616c6c20746f206e6f6e2d636f6e74726163740000006044820152606401610563565b600080866001600160a01b031685876040516120e091906124f2565b60006040518083038185875af1925050503d806000811461211d576040519150601f19603f3d011682016040523d82523d6000602084013e612122565b606091505b509150915061213282828661213d565b979650505050505050565b6060831561214c575081610b53565b82511561215c5782518084602001fd5b8160405162461bcd60e51b815260040161056391906125ef565b82805461218290612795565b90600052602060002090601f0160209004810192826121a457600085556121ea565b82601f106121bd57805160ff19168380011785556121ea565b828001600101855582156121ea579182015b828111156121ea5782518255916020019190600101906121cf565b506121f69291506121fa565b5090565b5b808211156121f657600081556001016121fb565b600060208284031215612220578081fd5b8135610b5381612841565b6000806040838503121561223d578081fd5b823561224881612841565b9150602083013561225881612841565b809150509250929050565b600080600060608486031215612277578081fd5b833561228281612841565b9250602084013561229281612841565b929592945050506040919091013590565b600080600080608085870312156122b8578081fd5b84356122c381612841565b935060208501356122d381612841565b925060408501359150606085013567ffffffffffffffff808211156122f6578283fd5b818701915087601f830112612309578283fd5b81358181111561231b5761231b61282b565b604051601f8201601f19908116603f011681019083821181831017156123435761234361282b565b816040528281528a602084870101111561235b578586fd5b82602086016020830137918201602001949094529598949750929550505050565b6000806040838503121561238e578182fd5b823561239981612841565b9150602083013561225881612859565b600080604083850312156123bb578182fd5b82356123c681612841565b946020939093013593505050565b6000602082840312156123e5578081fd5b8151610b5381612859565b600060208284031215612401578081fd5b5035919050565b6000806040838503121561241a578182fd5b82359150602083013561225881612841565b6000806040838503121561243e578182fd5b50508035926020909101359150565b60006020828403121561245e578081fd5b8135610b5381612867565b60006020828403121561247a578081fd5b8151610b5381612867565b600080600060608486031215612499578283fd5b83356124a481612841565b92506020840135915060408401356124bb81612841565b809150509250925092565b600081518084526124de816020860160208601612752565b601f01601f19169290920160200192915050565b60008251612504818460208701612752565b9190910192915050565b60008351612520818460208801612752565b835190830190612534818360208801612752565b01949350505050565b7f416363657373436f6e74726f6c3a206163636f756e7420000000000000000000815260008351612575816017850160208801612752565b7001034b99036b4b9b9b4b733903937b6329607d1b60179184019182015283516125a6816028840160208801612752565b01602801949350505050565b6001600160a01b03858116825284166020820152604081018390526080606082018190526000906125e5908301846124c6565b9695505050505050565b602081526000610b5360208301846124c6565b60208082526032908201527f4552433732313a207472616e7366657220746f206e6f6e20455243373231526560408201527131b2b4bb32b91034b6b83632b6b2b73a32b960711b606082015260800190565b60208082526031908201527f4552433732313a207472616e736665722063616c6c6572206973206e6f74206f6040820152701ddb995c881b9bdc88185c1c1c9bdd9959607a1b606082015260800190565b6020808252602b908201527f496e697469616c697a61626c653a20636f6e7472616374206973206e6f74206960408201526a6e697469616c697a696e6760a81b606082015260800190565b60008219821115612703576127036127ff565b500190565b60008261271757612717612815565b500490565b6000816000190483118215151615612736576127366127ff565b500290565b60008282101561274d5761274d6127ff565b500390565b60005b8381101561276d578181015183820152602001612755565b83811115610bd15750506000910152565b60008161278d5761278d6127ff565b506000190190565b600181811c908216806127a957607f821691505b602082108114156127ca57634e487b7160e01b600052602260045260246000fd5b50919050565b60006000198214156127e4576127e46127ff565b5060010190565b6000826127fa576127fa612815565b500690565b634e487b7160e01b600052601160045260246000fd5b634e487b7160e01b600052601260045260246000fd5b634e487b7160e01b600052604160045260246000fd5b6001600160a01b038116811461285657600080fd5b50565b801515811461285657600080fd5b6001600160e01b03198116811461285657600080fdfea264697066735822122003004bce7d407dfa17995effc3f9b0f9bf01746d58e4ba1bae833059dff4ac9c64736f6c63430008040033",
  "devdoc": {
    "kind": "dev",
    "methods": {
      "approve(address,uint256)": {
        "details": "See {IERC721-approve}."
      },
      "balanceOf(address)": {
        "details": "See {IERC721-balanceOf}."
      },
      "getApproved(uint256)": {
        "details": "See {IERC721-getApproved}."
      },
      "getRoleAdmin(bytes32)": {
        "details": "Returns the admin role that controls `role`. See {grantRole} and {revokeRole}. To change a role's admin, use {_setRoleAdmin}."
      },
      "getRoleMember(bytes32,uint256)": {
        "details": "Returns one of the accounts that have `role`. `index` must be a value between 0 and {getRoleMemberCount}, non-inclusive. Role bearers are not sorted in any particular way, and their ordering may change at any point. WARNING: When using {getRoleMember} and {getRoleMemberCount}, make sure you perform all queries on the same block. See the following https://forum.openzeppelin.com/t/iterating-over-elements-on-enumerableset-in-openzeppelin-contracts/2296[forum post] for more information."
      },
      "getRoleMemberCount(bytes32)": {
        "details": "Returns the number of accounts that have `role`. Can be used together with {getRoleMember} to enumerate all bearers of a role."
      },
      "grantRole(bytes32,address)": {
        "details": "Grants `role` to `account`. If `account` had not been already granted `role`, emits a {RoleGranted} event. Requirements: - the caller must have ``role``'s admin role."
      },
      "hasRole(bytes32,address)": {
        "details": "Returns `true` if `account` has been granted `role`."
      },
      "isApprovedForAll(address,address)": {
        "details": "See {IERC721-isApprovedForAll}."
      },
      "name()": {
        "details": "See {IERC721Metadata-name}."
      },
      "ownerOf(uint256)": {
        "details": "See {IERC721-ownerOf}."
      },
      "renounceRole(bytes32,address)": {
        "details": "Revokes `role` from the calling account. Roles are often managed via {grantRole} and {revokeRole}: this function's purpose is to provide a mechanism for accounts to lose their privileges if they are compromised (such as when a trusted device is misplaced). If the calling account had been revoked `role`, emits a {RoleRevoked} event. Requirements: - the caller must be `account`."
      },
      "revokeRole(bytes32,address)": {
        "details": "Revokes `role` from `account`. If `account` had been granted `role`, emits a {RoleRevoked} event. Requirements: - the caller must have ``role``'s admin role."
      },
      "safeTransferFrom(address,address,uint256)": {
        "details": "See {IERC721-safeTransferFrom}."
      },
      "safeTransferFrom(address,address,uint256,bytes)": {
        "details": "See {IERC721-safeTransferFrom}."
      },
      "setApprovalForAll(address,bool)": {
        "details": "See {IERC721-setApprovalForAll}."
      },
      "symbol()": {
        "details": "See {IERC721Metadata-symbol}."
      },
      "tokenByIndex(uint256)": {
        "details": "See {IERC721Enumerable-tokenByIndex}."
      },
      "tokenOfOwnerByIndex(address,uint256)": {
        "details": "See {IERC721Enumerable-tokenOfOwnerByIndex}."
      },
      "tokenURI(uint256)": {
        "details": "See {IERC721Metadata-tokenURI}."
      },
      "totalSupply()": {
        "details": "See {IERC721Enumerable-totalSupply}."
      },
      "transferFrom(address,address,uint256)": {
        "details": "See {IERC721-transferFrom}."
      }
    },
    "version": 1
  },
  "userdoc": {
    "kind": "user",
    "methods": {},
    "version": 1
  },
  "storageLayout": {
    "storage": [
      {
        "astId": 578,
        "contract": "contracts/HeroBoxV1.sol:HeroBoxV1",
        "label": "_initialized",
        "offset": 0,
        "slot": "0",
        "type": "t_bool"
      },
      {
        "astId": 581,
        "contract": "contracts/HeroBoxV1.sol:HeroBoxV1",
        "label": "_initializing",
        "offset": 1,
        "slot": "0",
        "type": "t_bool"
      },
      {
        "astId": 2940,
        "contract": "contracts/HeroBoxV1.sol:HeroBoxV1",
        "label": "__gap",
        "offset": 0,
        "slot": "1",
        "type": "t_array(t_uint256)50_storage"
      },
      {
        "astId": 3261,
        "contract": "contracts/HeroBoxV1.sol:HeroBoxV1",
        "label": "__gap",
        "offset": 0,
        "slot": "51",
        "type": "t_array(t_uint256)50_storage"
      },
      {
        "astId": 184,
        "contract": "contracts/HeroBoxV1.sol:HeroBoxV1",
        "label": "_roles",
        "offset": 0,
        "slot": "101",
        "type": "t_mapping(t_bytes32,t_struct(RoleData)179_storage)"
      },
      {
        "astId": 472,
        "contract": "contracts/HeroBoxV1.sol:HeroBoxV1",
        "label": "__gap",
        "offset": 0,
        "slot": "102",
        "type": "t_array(t_uint256)49_storage"
      },
      {
        "astId": 33,
        "contract": "contracts/HeroBoxV1.sol:HeroBoxV1",
        "label": "_roleMembers",
        "offset": 0,
        "slot": "151",
        "type": "t_mapping(t_bytes32,t_struct(AddressSet)4066_storage)"
      },
      {
        "astId": 143,
        "contract": "contracts/HeroBoxV1.sol:HeroBoxV1",
        "label": "__gap",
        "offset": 0,
        "slot": "152",
        "type": "t_array(t_uint256)49_storage"
      },
      {
        "astId": 1087,
        "contract": "contracts/HeroBoxV1.sol:HeroBoxV1",
        "label": "_name",
        "offset": 0,
        "slot": "201",
        "type": "t_string_storage"
      },
      {
        "astId": 1089,
        "contract": "contracts/HeroBoxV1.sol:HeroBoxV1",
        "label": "_symbol",
        "offset": 0,
        "slot": "202",
        "type": "t_string_storage"
      },
      {
        "astId": 1093,
        "contract": "contracts/HeroBoxV1.sol:HeroBoxV1",
        "label": "_owners",
        "offset": 0,
        "slot": "203",
        "type": "t_mapping(t_uint256,t_address)"
      },
      {
        "astId": 1097,
        "contract": "contracts/HeroBoxV1.sol:HeroBoxV1",
        "label": "_balances",
        "offset": 0,
        "slot": "204",
        "type": "t_mapping(t_address,t_uint256)"
      },
      {
        "astId": 1101,
        "contract": "contracts/HeroBoxV1.sol:HeroBoxV1",
        "label": "_tokenApprovals",
        "offset": 0,
        "slot": "205",
        "type": "t_mapping(t_uint256,t_address)"
      },
      {
        "astId": 1107,
        "contract": "contracts/HeroBoxV1.sol:HeroBoxV1",
        "label": "_operatorApprovals",
        "offset": 0,
        "slot": "206",
        "type": "t_mapping(t_address,t_mapping(t_address,t_bool))"
      },
      {
        "astId": 1948,
        "contract": "contracts/HeroBoxV1.sol:HeroBoxV1",
        "label": "__gap",
        "offset": 0,
        "slot": "207",
        "type": "t_array(t_uint256)44_storage"
      },
      {
        "astId": 2163,
        "contract": "contracts/HeroBoxV1.sol:HeroBoxV1",
        "label": "_ownedTokens",
        "offset": 0,
        "slot": "251",
        "type": "t_mapping(t_address,t_mapping(t_uint256,t_uint256))"
      },
      {
        "astId": 2167,
        "contract": "contracts/HeroBoxV1.sol:HeroBoxV1",
        "label": "_ownedTokensIndex",
        "offset": 0,
        "slot": "252",
        "type": "t_mapping(t_uint256,t_uint256)"
      },
      {
        "astId": 2170,
        "contract": "contracts/HeroBoxV1.sol:HeroBoxV1",
        "label": "_allTokens",
        "offset": 0,
        "slot": "253",
        "type": "t_array(t_uint256)dyn_storage"
      },
      {
        "astId": 2174,
        "contract": "contracts/HeroBoxV1.sol:HeroBoxV1",
        "label": "_allTokensIndex",
        "offset": 0,
        "slot": "254",
        "type": "t_mapping(t_uint256,t_uint256)"
      },
      {
        "astId": 2490,
        "contract": "contracts/HeroBoxV1.sol:HeroBoxV1",
        "label": "__gap",
        "offset": 0,
        "slot": "255",
        "type": "t_array(t_uint256)46_storage"
      },
      {
        "astId": 5041,
        "contract": "contracts/HeroBoxV1.sol:HeroBoxV1",
        "label": "_tokenIdTracker",
        "offset": 0,
        "slot": "301",
        "type": "t_struct(Counter)2947_storage"
      },
      {
        "astId": 5044,
        "contract": "contracts/HeroBoxV1.sol:HeroBoxV1",
        "label": "currToken",
        "offset": 0,
        "slot": "302",
        "type": "t_contract(IERC20Upgradeable)834"
      },
      {
        "astId": 5046,
        "contract": "contracts/HeroBoxV1.sol:HeroBoxV1",
        "label": "nftPrice",
        "offset": 0,
        "slot": "303",
        "type": "t_uint256"
      },
      {
        "astId": 5048,
        "contract": "contracts/HeroBoxV1.sol:HeroBoxV1",
        "label": "tokenReceiveAddress",
        "offset": 0,
        "slot": "304",
        "type": "t_address"
      }
    ],
    "types": {
      "t_address": {
        "encoding": "inplace",
        "label": "address",
        "numberOfBytes": "20"
      },
      "t_array(t_bytes32)dyn_storage": {
        "base": "t_bytes32",
        "encoding": "dynamic_array",
        "label": "bytes32[]",
        "numberOfBytes": "32"
      },
      "t_array(t_uint256)44_storage": {
        "base": "t_uint256",
        "encoding": "inplace",
        "label": "uint256[44]",
        "numberOfBytes": "1408"
      },
      "t_array(t_uint256)46_storage": {
        "base": "t_uint256",
        "encoding": "inplace",
        "label": "uint256[46]",
        "numberOfBytes": "1472"
      },
      "t_array(t_uint256)49_storage": {
        "base": "t_uint256",
        "encoding": "inplace",
        "label": "uint256[49]",
        "numberOfBytes": "1568"
      },
      "t_array(t_uint256)50_storage": {
        "base": "t_uint256",
        "encoding": "inplace",
        "label": "uint256[50]",
        "numberOfBytes": "1600"
      },
      "t_array(t_uint256)dyn_storage": {
        "base": "t_uint256",
        "encoding": "dynamic_array",
        "label": "uint256[]",
        "numberOfBytes": "32"
      },
      "t_bool": {
        "encoding": "inplace",
        "label": "bool",
        "numberOfBytes": "1"
      },
      "t_bytes32": {
        "encoding": "inplace",
        "label": "bytes32",
        "numberOfBytes": "32"
      },
      "t_contract(IERC20Upgradeable)834": {
        "encoding": "inplace",
        "label": "contract IERC20Upgradeable",
        "numberOfBytes": "20"
      },
      "t_mapping(t_address,t_bool)": {
        "encoding": "mapping",
        "key": "t_address",
        "label": "mapping(address => bool)",
        "numberOfBytes": "32",
        "value": "t_bool"
      },
      "t_mapping(t_address,t_mapping(t_address,t_bool))": {
        "encoding": "mapping",
        "key": "t_address",
        "label": "mapping(address => mapping(address => bool))",
        "numberOfBytes": "32",
        "value": "t_mapping(t_address,t_bool)"
      },
      "t_mapping(t_address,t_mapping(t_uint256,t_uint256))": {
        "encoding": "mapping",
        "key": "t_address",
        "label": "mapping(address => mapping(uint256 => uint256))",
        "numberOfBytes": "32",
        "value": "t_mapping(t_uint256,t_uint256)"
      },
      "t_mapping(t_address,t_uint256)": {
        "encoding": "mapping",
        "key": "t_address",
        "label": "mapping(address => uint256)",
        "numberOfBytes": "32",
        "value": "t_uint256"
      },
      "t_mapping(t_bytes32,t_struct(AddressSet)4066_storage)": {
        "encoding": "mapping",
        "key": "t_bytes32",
        "label": "mapping(bytes32 => struct EnumerableSetUpgradeable.AddressSet)",
        "numberOfBytes": "32",
        "value": "t_struct(AddressSet)4066_storage"
      },
      "t_mapping(t_bytes32,t_struct(RoleData)179_storage)": {
        "encoding": "mapping",
        "key": "t_bytes32",
        "label": "mapping(bytes32 => struct AccessControlUpgradeable.RoleData)",
        "numberOfBytes": "32",
        "value": "t_struct(RoleData)179_storage"
      },
      "t_mapping(t_bytes32,t_uint256)": {
        "encoding": "mapping",
        "key": "t_bytes32",
        "label": "mapping(bytes32 => uint256)",
        "numberOfBytes": "32",
        "value": "t_uint256"
      },
      "t_mapping(t_uint256,t_address)": {
        "encoding": "mapping",
        "key": "t_uint256",
        "label": "mapping(uint256 => address)",
        "numberOfBytes": "32",
        "value": "t_address"
      },
      "t_mapping(t_uint256,t_uint256)": {
        "encoding": "mapping",
        "key": "t_uint256",
        "label": "mapping(uint256 => uint256)",
        "numberOfBytes": "32",
        "value": "t_uint256"
      },
      "t_string_storage": {
        "encoding": "bytes",
        "label": "string",
        "numberOfBytes": "32"
      },
      "t_struct(AddressSet)4066_storage": {
        "encoding": "inplace",
        "label": "struct EnumerableSetUpgradeable.AddressSet",
        "members": [
          {
            "astId": 4065,
            "contract": "contracts/HeroBoxV1.sol:HeroBoxV1",
            "label": "_inner",
            "offset": 0,
            "slot": "0",
            "type": "t_struct(Set)3765_storage"
          }
        ],
        "numberOfBytes": "64"
      },
      "t_struct(Counter)2947_storage": {
        "encoding": "inplace",
        "label": "struct CountersUpgradeable.Counter",
        "members": [
          {
            "astId": 2946,
            "contract": "contracts/HeroBoxV1.sol:HeroBoxV1",
            "label": "_value",
            "offset": 0,
            "slot": "0",
            "type": "t_uint256"
          }
        ],
        "numberOfBytes": "32"
      },
      "t_struct(RoleData)179_storage": {
        "encoding": "inplace",
        "label": "struct AccessControlUpgradeable.RoleData",
        "members": [
          {
            "astId": 176,
            "contract": "contracts/HeroBoxV1.sol:HeroBoxV1",
            "label": "members",
            "offset": 0,
            "slot": "0",
            "type": "t_mapping(t_address,t_bool)"
          },
          {
            "astId": 178,
            "contract": "contracts/HeroBoxV1.sol:HeroBoxV1",
            "label": "adminRole",
            "offset": 0,
            "slot": "1",
            "type": "t_bytes32"
          }
        ],
        "numberOfBytes": "64"
      },
      "t_struct(Set)3765_storage": {
        "encoding": "inplace",
        "label": "struct EnumerableSetUpgradeable.Set",
        "members": [
          {
            "astId": 3760,
            "contract": "contracts/HeroBoxV1.sol:HeroBoxV1",
            "label": "_values",
            "offset": 0,
            "slot": "0",
            "type": "t_array(t_bytes32)dyn_storage"
          },
          {
            "astId": 3764,
            "contract": "contracts/HeroBoxV1.sol:HeroBoxV1",
            "label": "_indexes",
            "offset": 0,
            "slot": "1",
            "type": "t_mapping(t_bytes32,t_uint256)"
          }
        ],
        "numberOfBytes": "64"
      },
      "t_uint256": {
        "encoding": "inplace",
        "label": "uint256",
        "numberOfBytes": "32"
      }
    }
  }
}