{
  "address": "0x5FbDB2315678afecb367f032d93F642f64180aa3",
  "abi": [
    {
      "inputs": [],
      "stateMutability": "nonpayable",
      "type": "constructor"
    },
    {
      "anonymous": false,
      "inputs": [
        {
          "indexed": true,
          "internalType": "address",
          "name": "owner",
          "type": "address"
        },
        {
          "indexed": true,
          "internalType": "address",
          "name": "spender",
          "type": "address"
        },
        {
          "indexed": false,
          "internalType": "uint256",
          "name": "value",
          "type": "uint256"
        }
      ],
      "name": "Approval",
      "type": "event"
    },
    {
      "anonymous": false,
      "inputs": [
        {
          "indexed": true,
          "internalType": "address",
          "name": "delegator",
          "type": "address"
        },
        {
          "indexed": true,
          "internalType": "address",
          "name": "fromDelegate",
          "type": "address"
        },
        {
          "indexed": true,
          "internalType": "address",
          "name": "toDelegate",
          "type": "address"
        }
      ],
      "name": "DelegateChanged",
      "type": "event"
    },
    {
      "anonymous": false,
      "inputs": [
        {
          "indexed": true,
          "internalType": "address",
          "name": "delegate",
          "type": "address"
        },
        {
          "indexed": false,
          "internalType": "uint256",
          "name": "previousBalance",
          "type": "uint256"
        },
        {
          "indexed": false,
          "internalType": "uint256",
          "name": "newBalance",
          "type": "uint256"
        }
      ],
      "name": "DelegateVotesChanged",
      "type": "event"
    },
    {
      "anonymous": false,
      "inputs": [
        {
          "indexed": false,
          "internalType": "address",
          "name": "account",
          "type": "address"
        }
      ],
      "name": "Paused",
      "type": "event"
    },
    {
      "anonymous": false,
      "inputs": [
        {
          "indexed": true,
          "internalType": "bytes32",
          "name": "role",
          "type": "bytes32"
        },
        {
          "indexed": true,
          "internalType": "bytes32",
          "name": "previousAdminRole",
          "type": "bytes32"
        },
        {
          "indexed": true,
          "internalType": "bytes32",
          "name": "newAdminRole",
          "type": "bytes32"
        }
      ],
      "name": "RoleAdminChanged",
      "type": "event"
    },
    {
      "anonymous": false,
      "inputs": [
        {
          "indexed": true,
          "internalType": "bytes32",
          "name": "role",
          "type": "bytes32"
        },
        {
          "indexed": true,
          "internalType": "address",
          "name": "account",
          "type": "address"
        },
        {
          "indexed": true,
          "internalType": "address",
          "name": "sender",
          "type": "address"
        }
      ],
      "name": "RoleGranted",
      "type": "event"
    },
    {
      "anonymous": false,
      "inputs": [
        {
          "indexed": true,
          "internalType": "bytes32",
          "name": "role",
          "type": "bytes32"
        },
        {
          "indexed": true,
          "internalType": "address",
          "name": "account",
          "type": "address"
        },
        {
          "indexed": true,
          "internalType": "address",
          "name": "sender",
          "type": "address"
        }
      ],
      "name": "RoleRevoked",
      "type": "event"
    },
    {
      "anonymous": false,
      "inputs": [
        {
          "indexed": true,
          "internalType": "address",
          "name": "from",
          "type": "address"
        },
        {
          "indexed": true,
          "internalType": "address",
          "name": "to",
          "type": "address"
        },
        {
          "indexed": false,
          "internalType": "uint256",
          "name": "value",
          "type": "uint256"
        }
      ],
      "name": "Transfer",
      "type": "event"
    },
    {
      "anonymous": false,
      "inputs": [
        {
          "indexed": false,
          "internalType": "address",
          "name": "account",
          "type": "address"
        }
      ],
      "name": "Unpaused",
      "type": "event"
    },
    {
      "inputs": [],
      "name": "BURNER_ROLE",
      "outputs": [
        {
          "internalType": "bytes32",
          "name": "",
          "type": "bytes32"
        }
      ],
      "stateMutability": "view",
      "type": "function"
    },
    {
      "inputs": [],
      "name": "DEFAULT_ADMIN_ROLE",
      "outputs": [
        {
          "internalType": "bytes32",
          "name": "",
          "type": "bytes32"
        }
      ],
      "stateMutability": "view",
      "type": "function"
    },
    {
      "inputs": [],
      "name": "DOMAIN_SEPARATOR",
      "outputs": [
        {
          "internalType": "bytes32",
          "name": "",
          "type": "bytes32"
        }
      ],
      "stateMutability": "view",
      "type": "function"
    },
    {
      "inputs": [],
      "name": "MINTER_ROLE",
      "outputs": [
        {
          "internalType": "bytes32",
          "name": "",
          "type": "bytes32"
        }
      ],
      "stateMutability": "view",
      "type": "function"
    },
    {
      "inputs": [],
      "name": "PAUSER_ROLE",
      "outputs": [
        {
          "internalType": "bytes32",
          "name": "",
          "type": "bytes32"
        }
      ],
      "stateMutability": "view",
      "type": "function"
    },
    {
      "inputs": [
        {
          "internalType": "address",
          "name": "owner",
          "type": "address"
        },
        {
          "internalType": "address",
          "name": "spender",
          "type": "address"
        }
      ],
      "name": "allowance",
      "outputs": [
        {
          "internalType": "uint256",
          "name": "",
          "type": "uint256"
        }
      ],
      "stateMutability": "view",
      "type": "function"
    },
    {
      "inputs": [
        {
          "internalType": "address",
          "name": "spender",
          "type": "address"
        },
        {
          "internalType": "uint256",
          "name": "amount",
          "type": "uint256"
        }
      ],
      "name": "approve",
      "outputs": [
        {
          "internalType": "bool",
          "name": "",
          "type": "bool"
        }
      ],
      "stateMutability": "nonpayable",
      "type": "function"
    },
    {
      "inputs": [
        {
          "internalType": "address",
          "name": "account",
          "type": "address"
        }
      ],
      "name": "balanceOf",
      "outputs": [
        {
          "internalType": "uint256",
          "name": "",
          "type": "uint256"
        }
      ],
      "stateMutability": "view",
      "type": "function"
    },
    {
      "inputs": [
        {
          "internalType": "uint256",
          "name": "amount",
          "type": "uint256"
        }
      ],
      "name": "burn",
      "outputs": [],
      "stateMutability": "nonpayable",
      "type": "function"
    },
    {
      "inputs": [
        {
          "internalType": "address",
          "name": "from",
          "type": "address"
        },
        {
          "internalType": "uint256",
          "name": "amount",
          "type": "uint256"
        }
      ],
      "name": "burn",
      "outputs": [],
      "stateMutability": "nonpayable",
      "type": "function"
    },
    {
      "inputs": [
        {
          "internalType": "address",
          "name": "account",
          "type": "address"
        },
        {
          "internalType": "uint256",
          "name": "amount",
          "type": "uint256"
        }
      ],
      "name": "burnFrom",
      "outputs": [],
      "stateMutability": "nonpayable",
      "type": "function"
    },
    {
      "inputs": [
        {
          "internalType": "address",
          "name": "account",
          "type": "address"
        },
        {
          "internalType": "uint32",
          "name": "pos",
          "type": "uint32"
        }
      ],
      "name": "checkpoints",
      "outputs": [
        {
          "components": [
            {
              "internalType": "uint32",
              "name": "fromBlock",
              "type": "uint32"
            },
            {
              "internalType": "uint224",
              "name": "votes",
              "type": "uint224"
            }
          ],
          "internalType": "struct ERC20Votes.Checkpoint",
          "name": "",
          "type": "tuple"
        }
      ],
      "stateMutability": "view",
      "type": "function"
    },
    {
      "inputs": [],
      "name": "decimals",
      "outputs": [
        {
          "internalType": "uint8",
          "name": "",
          "type": "uint8"
        }
      ],
      "stateMutability": "view",
      "type": "function"
    },
    {
      "inputs": [
        {
          "internalType": "address",
          "name": "spender",
          "type": "address"
        },
        {
          "internalType": "uint256",
          "name": "subtractedValue",
          "type": "uint256"
        }
      ],
      "name": "decreaseAllowance",
      "outputs": [
        {
          "internalType": "bool",
          "name": "",
          "type": "bool"
        }
      ],
      "stateMutability": "nonpayable",
      "type": "function"
    },
    {
      "inputs": [
        {
          "internalType": "address",
          "name": "delegatee",
          "type": "address"
        }
      ],
      "name": "delegate",
      "outputs": [],
      "stateMutability": "nonpayable",
      "type": "function"
    },
    {
      "inputs": [
        {
          "internalType": "address",
          "name": "delegatee",
          "type": "address"
        },
        {
          "internalType": "uint256",
          "name": "nonce",
          "type": "uint256"
        },
        {
          "internalType": "uint256",
          "name": "expiry",
          "type": "uint256"
        },
        {
          "internalType": "uint8",
          "name": "v",
          "type": "uint8"
        },
        {
          "internalType": "bytes32",
          "name": "r",
          "type": "bytes32"
        },
        {
          "internalType": "bytes32",
          "name": "s",
          "type": "bytes32"
        }
      ],
      "name": "delegateBySig",
      "outputs": [],
      "stateMutability": "nonpayable",
      "type": "function"
    },
    {
      "inputs": [
        {
          "internalType": "address",
          "name": "account",
          "type": "address"
        }
      ],
      "name": "delegates",
      "outputs": [
        {
          "internalType": "address",
          "name": "",
          "type": "address"
        }
      ],
      "stateMutability": "view",
      "type": "function"
    },
    {
      "inputs": [
        {
          "internalType": "uint256",
          "name": "blockNumber",
          "type": "uint256"
        }
      ],
      "name": "getPastTotalSupply",
      "outputs": [
        {
          "internalType": "uint256",
          "name": "",
          "type": "uint256"
        }
      ],
      "stateMutability": "view",
      "type": "function"
    },
    {
      "inputs": [
        {
          "internalType": "address",
          "name": "account",
          "type": "address"
        },
        {
          "internalType": "uint256",
          "name": "blockNumber",
          "type": "uint256"
        }
      ],
      "name": "getPastVotes",
      "outputs": [
        {
          "internalType": "uint256",
          "name": "",
          "type": "uint256"
        }
      ],
      "stateMutability": "view",
      "type": "function"
    },
    {
      "inputs": [
        {
          "internalType": "bytes32",
          "name": "role",
          "type": "bytes32"
        }
      ],
      "name": "getRoleAdmin",
      "outputs": [
        {
          "internalType": "bytes32",
          "name": "",
          "type": "bytes32"
        }
      ],
      "stateMutability": "view",
      "type": "function"
    },
    {
      "inputs": [
        {
          "internalType": "bytes32",
          "name": "role",
          "type": "bytes32"
        },
        {
          "internalType": "uint256",
          "name": "index",
          "type": "uint256"
        }
      ],
      "name": "getRoleMember",
      "outputs": [
        {
          "internalType": "address",
          "name": "",
          "type": "address"
        }
      ],
      "stateMutability": "view",
      "type": "function"
    },
    {
      "inputs": [
        {
          "internalType": "bytes32",
          "name": "role",
          "type": "bytes32"
        }
      ],
      "name": "getRoleMemberCount",
      "outputs": [
        {
          "internalType": "uint256",
          "name": "",
          "type": "uint256"
        }
      ],
      "stateMutability": "view",
      "type": "function"
    },
    {
      "inputs": [
        {
          "internalType": "address",
          "name": "account",
          "type": "address"
        }
      ],
      "name": "getVotes",
      "outputs": [
        {
          "internalType": "uint256",
          "name": "",
          "type": "uint256"
        }
      ],
      "stateMutability": "view",
      "type": "function"
    },
    {
      "inputs": [
        {
          "internalType": "bytes32",
          "name": "role",
          "type": "bytes32"
        },
        {
          "internalType": "address",
          "name": "account",
          "type": "address"
        }
      ],
      "name": "grantRole",
      "outputs": [],
      "stateMutability": "nonpayable",
      "type": "function"
    },
    {
      "inputs": [
        {
          "internalType": "bytes32",
          "name": "role",
          "type": "bytes32"
        },
        {
          "internalType": "address",
          "name": "account",
          "type": "address"
        }
      ],
      "name": "hasRole",
      "outputs": [
        {
          "internalType": "bool",
          "name": "",
          "type": "bool"
        }
      ],
      "stateMutability": "view",
      "type": "function"
    },
    {
      "inputs": [
        {
          "internalType": "address",
          "name": "spender",
          "type": "address"
        },
        {
          "internalType": "uint256",
          "name": "addedValue",
          "type": "uint256"
        }
      ],
      "name": "increaseAllowance",
      "outputs": [
        {
          "internalType": "bool",
          "name": "",
          "type": "bool"
        }
      ],
      "stateMutability": "nonpayable",
      "type": "function"
    },
    {
      "inputs": [],
      "name": "maxSupply",
      "outputs": [
        {
          "internalType": "uint256",
          "name": "",
          "type": "uint256"
        }
      ],
      "stateMutability": "view",
      "type": "function"
    },
    {
      "inputs": [
        {
          "internalType": "address",
          "name": "to",
          "type": "address"
        },
        {
          "internalType": "uint256",
          "name": "amount",
          "type": "uint256"
        }
      ],
      "name": "mint",
      "outputs": [],
      "stateMutability": "nonpayable",
      "type": "function"
    },
    {
      "inputs": [],
      "name": "name",
      "outputs": [
        {
          "internalType": "string",
          "name": "",
          "type": "string"
        }
      ],
      "stateMutability": "view",
      "type": "function"
    },
    {
      "inputs": [
        {
          "internalType": "address",
          "name": "owner",
          "type": "address"
        }
      ],
      "name": "nonces",
      "outputs": [
        {
          "internalType": "uint256",
          "name": "",
          "type": "uint256"
        }
      ],
      "stateMutability": "view",
      "type": "function"
    },
    {
      "inputs": [
        {
          "internalType": "address",
          "name": "account",
          "type": "address"
        }
      ],
      "name": "numCheckpoints",
      "outputs": [
        {
          "internalType": "uint32",
          "name": "",
          "type": "uint32"
        }
      ],
      "stateMutability": "view",
      "type": "function"
    },
    {
      "inputs": [],
      "name": "pause",
      "outputs": [],
      "stateMutability": "nonpayable",
      "type": "function"
    },
    {
      "inputs": [],
      "name": "paused",
      "outputs": [
        {
          "internalType": "bool",
          "name": "",
          "type": "bool"
        }
      ],
      "stateMutability": "view",
      "type": "function"
    },
    {
      "inputs": [
        {
          "internalType": "address",
          "name": "owner",
          "type": "address"
        },
        {
          "internalType": "address",
          "name": "spender",
          "type": "address"
        },
        {
          "internalType": "uint256",
          "name": "value",
          "type": "uint256"
        },
        {
          "internalType": "uint256",
          "name": "deadline",
          "type": "uint256"
        },
        {
          "internalType": "uint8",
          "name": "v",
          "type": "uint8"
        },
        {
          "internalType": "bytes32",
          "name": "r",
          "type": "bytes32"
        },
        {
          "internalType": "bytes32",
          "name": "s",
          "type": "bytes32"
        }
      ],
      "name": "permit",
      "outputs": [],
      "stateMutability": "nonpayable",
      "type": "function"
    },
    {
      "inputs": [
        {
          "internalType": "address",
          "name": "tokenAddress_",
          "type": "address"
        }
      ],
      "name": "pullFunds",
      "outputs": [],
      "stateMutability": "nonpayable",
      "type": "function"
    },
    {
      "inputs": [
        {
          "internalType": "bytes32",
          "name": "role",
          "type": "bytes32"
        },
        {
          "internalType": "address",
          "name": "account",
          "type": "address"
        }
      ],
      "name": "renounceRole",
      "outputs": [],
      "stateMutability": "nonpayable",
      "type": "function"
    },
    {
      "inputs": [
        {
          "internalType": "bytes32",
          "name": "role",
          "type": "bytes32"
        },
        {
          "internalType": "address",
          "name": "account",
          "type": "address"
        }
      ],
      "name": "revokeRole",
      "outputs": [],
      "stateMutability": "nonpayable",
      "type": "function"
    },
    {
      "inputs": [
        {
          "internalType": "bytes4",
          "name": "interfaceId",
          "type": "bytes4"
        }
      ],
      "name": "supportsInterface",
      "outputs": [
        {
          "internalType": "bool",
          "name": "",
          "type": "bool"
        }
      ],
      "stateMutability": "view",
      "type": "function"
    },
    {
      "inputs": [],
      "name": "symbol",
      "outputs": [
        {
          "internalType": "string",
          "name": "",
          "type": "string"
        }
      ],
      "stateMutability": "view",
      "type": "function"
    },
    {
      "inputs": [],
      "name": "totalSupply",
      "outputs": [
        {
          "internalType": "uint256",
          "name": "",
          "type": "uint256"
        }
      ],
      "stateMutability": "view",
      "type": "function"
    },
    {
      "inputs": [
        {
          "internalType": "address",
          "name": "to",
          "type": "address"
        },
        {
          "internalType": "uint256",
          "name": "amount",
          "type": "uint256"
        }
      ],
      "name": "transfer",
      "outputs": [
        {
          "internalType": "bool",
          "name": "",
          "type": "bool"
        }
      ],
      "stateMutability": "nonpayable",
      "type": "function"
    },
    {
      "inputs": [
        {
          "internalType": "address",
          "name": "account",
          "type": "address"
        }
      ],
      "name": "transferAdmin",
      "outputs": [],
      "stateMutability": "nonpayable",
      "type": "function"
    },
    {
      "inputs": [
        {
          "internalType": "address",
          "name": "from",
          "type": "address"
        },
        {
          "internalType": "address",
          "name": "to",
          "type": "address"
        },
        {
          "internalType": "uint256",
          "name": "amount",
          "type": "uint256"
        }
      ],
      "name": "transferFrom",
      "outputs": [
        {
          "internalType": "bool",
          "name": "",
          "type": "bool"
        }
      ],
      "stateMutability": "nonpayable",
      "type": "function"
    },
    {
      "inputs": [],
      "name": "unpause",
      "outputs": [],
      "stateMutability": "nonpayable",
      "type": "function"
    }
  ],
  "transactionHash": "0xc129ec34d17d33a25d71262941530633a20d9cc3d243cbb0885a94c9d21a63c3",
  "args": [],
  "numDeployments": 1,
  "solcInputHash": "74ea7cd6e47abab6765b10194ff5f0f9",
  "bytecode": "0x6101606040527f6e71edae12b1b97f4d1f60370fef10105fa2faae0126114a169c64845d6126c9610140523480156200003757600080fd5b506040518060400160405280600981526020016826a3a3102a27a5a2a760b91b81525080604051806040016040528060018152602001603160f81b8152506040518060400160405280600981526020016826a3a3102a27a5a2a760b91b8152506040518060400160405280600381526020016226a3a360e91b8152508160059080519060200190620000cb92919062000a36565b508051620000e190600690602084019062000a36565b50506007805460ff1916905550815160209283012081519183019190912060e08290526101008190524660a0818152604080517f8b73c3c69bb8fe3d512ecc4cf759cc79239f7b179b0ffacaa9a75d522b39400f818801819052818301969096526060810194909452608080850193909352308483018190528151808603909301835260c09485019091528151919095012090529190915261012052506200018b6000336200023d565b620001b77f9f2df0fed2c77648de5860a4cc508cd0818c85b8b8a1ab4ceeef8d981c8956a6336200023d565b620001e37f3c11d16cbaffd01df69ce1c404f6340ee057498f5f00246190ea54220576a848336200023d565b6200020f7f65d7a28e3265b37a6474929f336521b332c1681b933f6cb9f3376673440d862a336200023d565b6200023733620002226012600a62000be5565b6200023190620f424062000bf6565b6200024d565b62000ca0565b62000249828262000264565b5050565b620002498282620002a760201b620011381760201c565b6200027b82826200035e60201b620011c21760201c565b6000828152600160209081526040909120620002a291839062001246620003fe821b17901c565b505050565b620002be82826200041e60201b6200125b1760201c565b6001600160e01b03620002d26200051b8216565b11156200033f5760405162461bcd60e51b815260206004820152603060248201527f4552433230566f7465733a20746f74616c20737570706c79207269736b73206f60448201526f766572666c6f77696e6720766f74657360801b60648201526084015b60405180910390fd5b62000358600b6200134e6200052160201b17836200052f565b50505050565b6000828152602081815260408083206001600160a01b038516845290915290205460ff1662000249576000828152602081815260408083206001600160a01b03851684529091529020805460ff19166001179055620003ba3390565b6001600160a01b0316816001600160a01b0316837f2f8788117e7eff1d82e926ec794901d17c78024a50270940304540a733656f0d60405160405180910390a45050565b600062000415836001600160a01b038416620006e1565b90505b92915050565b6001600160a01b038216620004765760405162461bcd60e51b815260206004820152601f60248201527f45524332303a206d696e7420746f20746865207a65726f206164647265737300604482015260640162000336565b620004846000838362000733565b806004600082825462000498919062000c18565b90915550506001600160a01b03821660009081526002602052604081208054839290620004c790849062000c18565b90915550506040518181526001600160a01b038316906000907fddf252ad1be2c89b69c2b068fc378daa952ba7f163c4a11628f55a4df523b3ef9060200160405180910390a362000249600083836200074b565b60045490565b600062000415828462000c18565b8254600090819080156200058157856200054b60018362000c33565b815481106200055e576200055e62000c4d565b60009182526020909120015464010000000090046001600160e01b031662000584565b60005b6001600160e01b031692506200059b83858760201c565b9150600081118015620005df57504386620005b860018462000c33565b81548110620005cb57620005cb62000c4d565b60009182526020909120015463ffffffff16145b156200065357620005fb826200076360201b6200135a1760201c565b866200060960018462000c33565b815481106200061c576200061c62000c4d565b9060005260206000200160000160046101000a8154816001600160e01b0302191690836001600160e01b03160217905550620006d8565b8560405180604001604052806200067543620007d260201b620013c71760201c565b63ffffffff16815260200162000696856200076360201b6200135a1760201c565b6001600160e01b0390811690915282546001810184556000938452602093849020835194909301519091166401000000000263ffffffff909316929092179101555b50935093915050565b60008181526001830160205260408120546200072a5750815460018181018455600084815260208082209093018490558454848252828601909352604090209190915562000418565b50600062000418565b620002a28383836200083960201b6200142c1760201c565b620002a2838383620008b960201b620014921760201c565b60006001600160e01b03821115620007ce5760405162461bcd60e51b815260206004820152602760248201527f53616665436173743a2076616c756520646f65736e27742066697420696e20326044820152663234206269747360c81b606482015260840162000336565b5090565b600063ffffffff821115620007ce5760405162461bcd60e51b815260206004820152602660248201527f53616665436173743a2076616c756520646f65736e27742066697420696e203360448201526532206269747360d01b606482015260840162000336565b62000851838383620002a260201b620007a81760201c565b60075460ff1615620002a25760405162461bcd60e51b815260206004820152602a60248201527f45524332305061757361626c653a20746f6b656e207472616e736665722077686044820152691a5b19481c185d5cd95960b21b606482015260840162000336565b620008d1838383620002a260201b620007a81760201c565b6001600160a01b03838116600090815260096020526040808220548584168352912054620002a292918216911683818314801590620009105750600081115b15620002a2576001600160a01b038316156200099d576001600160a01b0383166000908152600a60209081526040822082916200095a919062000a28901b620014c417856200052f565b91509150846001600160a01b0316600080516020620039cf833981519152838360405162000992929190918252602082015260400190565b60405180910390a250505b6001600160a01b03821615620002a2576001600160a01b0382166000908152600a6020908152604082208291620009e1919062000521901b6200134e17856200052f565b91509150836001600160a01b0316600080516020620039cf833981519152838360405162000a19929190918252602082015260400190565b60405180910390a25050505050565b600062000415828462000c33565b82805462000a449062000c63565b90600052602060002090601f01602090048101928262000a68576000855562000ab3565b82601f1062000a8357805160ff191683800117855562000ab3565b8280016001018555821562000ab3579182015b8281111562000ab357825182559160200191906001019062000a96565b50620007ce9291505b80821115620007ce576000815560010162000abc565b634e487b7160e01b600052601160045260246000fd5b600181815b8085111562000b2957816000190482111562000b0d5762000b0d62000ad2565b8085161562000b1b57918102915b93841c939080029062000aed565b509250929050565b60008262000b425750600162000418565b8162000b515750600062000418565b816001811462000b6a576002811462000b755762000b95565b600191505062000418565b60ff84111562000b895762000b8962000ad2565b50506001821b62000418565b5060208310610133831016604e8410600b841016171562000bba575081810a62000418565b62000bc6838362000ae8565b806000190482111562000bdd5762000bdd62000ad2565b029392505050565b60006200041560ff84168362000b31565b600081600019048311821515161562000c135762000c1362000ad2565b500290565b6000821982111562000c2e5762000c2e62000ad2565b500190565b60008282101562000c485762000c4862000ad2565b500390565b634e487b7160e01b600052603260045260246000fd5b600181811c9082168062000c7857607f821691505b6020821081141562000c9a57634e487b7160e01b600052602260045260246000fd5b50919050565b60805160a05160c05160e051610100516101205161014051612cd462000cfb6000396000610f7e015260006119a4015260006119f3015260006119ce01526000611927015260006119510152600061197b0152612cd46000f3fe608060405234801561001057600080fd5b50600436106102745760003560e01c806375829def11610151578063a457c2d7116100c3578063d539139311610087578063d5391393146105a0578063d547741f146105c7578063d5abeb01146105da578063dd62ed3e146105ec578063e63ab1e914610625578063f1127ed81461064c57600080fd5b8063a457c2d714610541578063a9059cbb14610554578063c3cda52014610567578063ca15c8731461057a578063d505accf1461058d57600080fd5b80639010d07c116101155780639010d07c146104e557806391d14854146104f857806395d89b411461050b5780639ab24eb0146105135780639dc29fac14610526578063a217fddf1461053957600080fd5b806375829def1461049157806379cc6790146104a45780637ecebe00146104b75780638456cb59146104ca5780638e539e8c146104d257600080fd5b806339509351116101ea578063587cde1e116101ae578063587cde1e146103cb5780635c19a95c1461040f5780635c975abb146104225780635d5a92fb1461042d5780636fcfff451461044057806370a082311461046857600080fd5b806339509351146103775780633a46b1a81461038a5780633f4ba83a1461039d57806340c10f19146103a557806342966c68146103b857600080fd5b8063248a9ca31161023c578063248a9ca3146102ee578063282c51f3146103115780632f2ff15d14610338578063313ce5671461034d5780633644e5151461035c57806336568abe1461036457600080fd5b806301ffc9a71461027957806306fdde03146102a1578063095ea7b3146102b657806318160ddd146102c957806323b872dd146102db575b600080fd5b61028c6102873660046127fa565b610689565b60405190151581526020015b60405180910390f35b6102a96106b4565b6040516102989190612850565b61028c6102c436600461289f565b610746565b6004545b604051908152602001610298565b61028c6102e93660046128c9565b61075e565b6102cd6102fc366004612905565b60009081526020819052604090206001015490565b6102cd7f3c11d16cbaffd01df69ce1c404f6340ee057498f5f00246190ea54220576a84881565b61034b61034636600461291e565b610782565b005b60405160128152602001610298565b6102cd6107ad565b61034b61037236600461291e565b6107bc565b61028c61038536600461289f565b61083f565b6102cd61039836600461289f565b61087e565b61034b6108f8565b61034b6103b336600461289f565b61092e565b61034b6103c6366004612905565b6109c5565b6103f76103d936600461294a565b6001600160a01b039081166000908152600960205260409020541690565b6040516001600160a01b039091168152602001610298565b61034b61041d36600461294a565b6109cf565b60075460ff1661028c565b61034b61043b36600461294a565b6109d9565b61045361044e36600461294a565b610b2b565b60405163ffffffff9091168152602001610298565b6102cd61047636600461294a565b6001600160a01b031660009081526002602052604090205490565b61034b61049f36600461294a565b610b4d565b61034b6104b236600461289f565b610b6f565b6102cd6104c536600461294a565b610b84565b61034b610ba2565b6102cd6104e0366004612905565b610bd5565b6103f76104f3366004612965565b610c31565b61028c61050636600461291e565b610c49565b6102a9610c72565b6102cd61052136600461294a565b610c81565b61034b61053436600461289f565b610d08565b6102cd600081565b61028c61054f36600461289f565b610d3d565b61028c61056236600461289f565b610dcf565b61034b610575366004612998565b610ddd565b6102cd610588366004612905565b610f13565b61034b61059b3660046129f0565b610f2a565b6102cd7f9f2df0fed2c77648de5860a4cc508cd0818c85b8b8a1ab4ceeef8d981c8956a681565b61034b6105d536600461291e565b61108e565b6102cd6a52b7d2dcc80cd2e400000081565b6102cd6105fa366004612a5a565b6001600160a01b03918216600090815260036020908152604080832093909416825291909152205490565b6102cd7f65d7a28e3265b37a6474929f336521b332c1681b933f6cb9f3376673440d862a81565b61065f61065a366004612a84565b6110b4565b60408051825163ffffffff1681526020928301516001600160e01b03169281019290925201610298565b60006001600160e01b03198216635a05180f60e01b14806106ae57506106ae826114d0565b92915050565b6060600580546106c390612ac4565b80601f01602080910402602001604051908101604052809291908181526020018280546106ef90612ac4565b801561073c5780601f106107115761010080835404028352916020019161073c565b820191906000526020600020905b81548152906001019060200180831161071f57829003601f168201915b5050505050905090565b600033610754818585611505565b5060019392505050565b60003361076c858285611629565b6107778585856116b5565b506001949350505050565b60008281526020819052604090206001015461079e8133611894565b6107a883836118f8565b505050565b60006107b761191a565b905090565b6001600160a01b03811633146108315760405162461bcd60e51b815260206004820152602f60248201527f416363657373436f6e74726f6c3a2063616e206f6e6c792072656e6f756e636560448201526e103937b632b9903337b91039b2b63360891b60648201526084015b60405180910390fd5b61083b8282611a41565b5050565b3360008181526003602090815260408083206001600160a01b03871684529091528120549091906107549082908690610879908790612b0f565b611505565b60004382106108cf5760405162461bcd60e51b815260206004820152601f60248201527f4552433230566f7465733a20626c6f636b206e6f7420796574206d696e6564006044820152606401610828565b6001600160a01b0383166000908152600a602052604090206108f19083611a63565b9392505050565b7f65d7a28e3265b37a6474929f336521b332c1681b933f6cb9f3376673440d862a6109238133611894565b61092b611b20565b50565b7f9f2df0fed2c77648de5860a4cc508cd0818c85b8b8a1ab4ceeef8d981c8956a66109598133611894565b6a52b7d2dcc80cd2e400000061096e60045490565b106109bb5760405162461bcd60e51b815260206004820152601f60248201527f45524332303a20746f74616c20737570706c79206f766572666c6f77696e67006044820152606401610828565b6107a88383611bb3565b61092b3382611bbd565b61092b3382611bc7565b60006109e58133611894565b6001600160a01b038216610a1f5760405133904780156108fc02916000818181858888f193505050501580156107a8573d6000803e3d6000fd5b816001600160a01b03811663a9059cbb336040516370a0823160e01b81523060048201526001600160a01b038516906370a082319060240160206040518083038186803b158015610a6f57600080fd5b505afa158015610a83573d6000803e3d6000fd5b505050506040513d601f19601f82011682018060405250810190610aa79190612b27565b6040516001600160e01b031960e085901b1681526001600160a01b0390921660048301526024820152604401602060405180830381600087803b158015610aed57600080fd5b505af1158015610b01573d6000803e3d6000fd5b505050506040513d601f19601f82011682018060405250810190610b259190612b40565b50505050565b6001600160a01b0381166000908152600a60205260408120546106ae906113c7565b6000610b598133611894565b610b64600083610782565b61083b60003361108e565b610b7a823383611629565b61083b8282611bbd565b6001600160a01b0381166000908152600860205260408120546106ae565b7f65d7a28e3265b37a6474929f336521b332c1681b933f6cb9f3376673440d862a610bcd8133611894565b61092b611c41565b6000438210610c265760405162461bcd60e51b815260206004820152601f60248201527f4552433230566f7465733a20626c6f636b206e6f7420796574206d696e6564006044820152606401610828565b6106ae600b83611a63565b60008281526001602052604081206108f19083611cbc565b6000918252602082815260408084206001600160a01b0393909316845291905290205460ff1690565b6060600680546106c390612ac4565b6001600160a01b0381166000908152600a60205260408120548015610cf5576001600160a01b0383166000908152600a60205260409020610cc3600183612b62565b81548110610cd357610cd3612b79565b60009182526020909120015464010000000090046001600160e01b0316610cf8565b60005b6001600160e01b03169392505050565b7f3c11d16cbaffd01df69ce1c404f6340ee057498f5f00246190ea54220576a848610d338133611894565b6107a88383611bbd565b3360008181526003602090815260408083206001600160a01b038716845290915281205490919083811015610dc25760405162461bcd60e51b815260206004820152602560248201527f45524332303a2064656372656173656420616c6c6f77616e63652062656c6f77604482015264207a65726f60d81b6064820152608401610828565b6107778286868403611505565b6000336107548185856116b5565b83421115610e2d5760405162461bcd60e51b815260206004820152601d60248201527f4552433230566f7465733a207369676e617475726520657870697265640000006044820152606401610828565b604080517fe48329057bfd03d55e49b547132e39cffd9c1820ad7b9d4c5307691425d15adf60208201526001600160a01b038816918101919091526060810186905260808101859052600090610ea790610e9f9060a00160405160208183030381529060405280519060200120611cc8565b858585611d16565b9050610eb281611d3e565b8614610f005760405162461bcd60e51b815260206004820152601960248201527f4552433230566f7465733a20696e76616c6964206e6f6e6365000000000000006044820152606401610828565b610f0a8188611bc7565b50505050505050565b60008181526001602052604081206106ae90611d66565b83421115610f7a5760405162461bcd60e51b815260206004820152601d60248201527f45524332305065726d69743a206578706972656420646561646c696e650000006044820152606401610828565b60007f0000000000000000000000000000000000000000000000000000000000000000888888610fa98c611d3e565b6040805160208101969096526001600160a01b0394851690860152929091166060840152608083015260a082015260c0810186905260e001604051602081830303815290604052805190602001209050600061100482611cc8565b9050600061101482878787611d16565b9050896001600160a01b0316816001600160a01b0316146110775760405162461bcd60e51b815260206004820152601e60248201527f45524332305065726d69743a20696e76616c6964207369676e617475726500006044820152606401610828565b6110828a8a8a611505565b50505050505050505050565b6000828152602081905260409020600101546110aa8133611894565b6107a88383611a41565b60408051808201909152600080825260208201526001600160a01b0383166000908152600a60205260409020805463ffffffff84169081106110f8576110f8612b79565b60009182526020918290206040805180820190915291015463ffffffff8116825264010000000090046001600160e01b0316918101919091529392505050565b611142828261125b565b6004546001600160e01b0310156111b45760405162461bcd60e51b815260206004820152603060248201527f4552433230566f7465733a20746f74616c20737570706c79207269736b73206f60448201526f766572666c6f77696e6720766f74657360801b6064820152608401610828565b610b25600b61134e83611d70565b6111cc8282610c49565b61083b576000828152602081815260408083206001600160a01b03851684529091529020805460ff191660011790556112023390565b6001600160a01b0316816001600160a01b0316837f2f8788117e7eff1d82e926ec794901d17c78024a50270940304540a733656f0d60405160405180910390a45050565b60006108f1836001600160a01b038416611ee9565b6001600160a01b0382166112b15760405162461bcd60e51b815260206004820152601f60248201527f45524332303a206d696e7420746f20746865207a65726f2061646472657373006044820152606401610828565b6112bd60008383611f38565b80600460008282546112cf9190612b0f565b90915550506001600160a01b038216600090815260026020526040812080548392906112fc908490612b0f565b90915550506040518181526001600160a01b038316906000907fddf252ad1be2c89b69c2b068fc378daa952ba7f163c4a11628f55a4df523b3ef9060200160405180910390a361083b60008383611f43565b60006108f18284612b0f565b60006001600160e01b038211156113c35760405162461bcd60e51b815260206004820152602760248201527f53616665436173743a2076616c756520646f65736e27742066697420696e20326044820152663234206269747360c81b6064820152608401610828565b5090565b600063ffffffff8211156113c35760405162461bcd60e51b815260206004820152602660248201527f53616665436173743a2076616c756520646f65736e27742066697420696e203360448201526532206269747360d01b6064820152608401610828565b60075460ff16156107a85760405162461bcd60e51b815260206004820152602a60248201527f45524332305061757361626c653a20746f6b656e207472616e736665722077686044820152691a5b19481c185d5cd95960b21b6064820152608401610828565b6001600160a01b038381166000908152600960205260408082205485841683529120546107a892918216911683611f4e565b60006108f18284612b62565b60006001600160e01b03198216637965db0b60e01b14806106ae57506301ffc9a760e01b6001600160e01b03198316146106ae565b6001600160a01b0383166115675760405162461bcd60e51b8152602060048201526024808201527f45524332303a20617070726f76652066726f6d20746865207a65726f206164646044820152637265737360e01b6064820152608401610828565b6001600160a01b0382166115c85760405162461bcd60e51b815260206004820152602260248201527f45524332303a20617070726f766520746f20746865207a65726f206164647265604482015261737360f01b6064820152608401610828565b6001600160a01b0383811660008181526003602090815260408083209487168084529482529182902085905590518481527f8c5be1e5ebec7d5bd14f71427d1e84f3dd0314c0f7b2291e5b200ac8c7c3b925910160405180910390a3505050565b6001600160a01b038381166000908152600360209081526040808320938616835292905220546000198114610b2557818110156116a85760405162461bcd60e51b815260206004820152601d60248201527f45524332303a20696e73756666696369656e7420616c6c6f77616e63650000006044820152606401610828565b610b258484848403611505565b6001600160a01b0383166117195760405162461bcd60e51b815260206004820152602560248201527f45524332303a207472616e736665722066726f6d20746865207a65726f206164604482015264647265737360d81b6064820152608401610828565b6001600160a01b03821661177b5760405162461bcd60e51b815260206004820152602360248201527f45524332303a207472616e7366657220746f20746865207a65726f206164647260448201526265737360e81b6064820152608401610828565b611786838383611f38565b6001600160a01b038316600090815260026020526040902054818110156117fe5760405162461bcd60e51b815260206004820152602660248201527f45524332303a207472616e7366657220616d6f756e7420657863656564732062604482015265616c616e636560d01b6064820152608401610828565b6001600160a01b03808516600090815260026020526040808220858503905591851681529081208054849290611835908490612b0f565b92505081905550826001600160a01b0316846001600160a01b03167fddf252ad1be2c89b69c2b068fc378daa952ba7f163c4a11628f55a4df523b3ef8460405161188191815260200190565b60405180910390a3610b25848484611f43565b61189e8282610c49565b61083b576118b6816001600160a01b0316601461208b565b6118c183602061208b565b6040516020016118d2929190612b8f565b60408051601f198184030181529082905262461bcd60e51b825261082891600401612850565b61190282826111c2565b60008281526001602052604090206107a89082611246565b6000306001600160a01b037f00000000000000000000000000000000000000000000000000000000000000001614801561197357507f000000000000000000000000000000000000000000000000000000000000000046145b1561199d57507f000000000000000000000000000000000000000000000000000000000000000090565b50604080517f00000000000000000000000000000000000000000000000000000000000000006020808301919091527f0000000000000000000000000000000000000000000000000000000000000000828401527f000000000000000000000000000000000000000000000000000000000000000060608301524660808301523060a0808401919091528351808403909101815260c0909201909252805191012090565b611a4b8282612227565b60008281526001602052604090206107a8908261228c565b8154600090815b81811015611ac7576000611a7e82846122a1565b905084868281548110611a9357611a93612b79565b60009182526020909120015463ffffffff161115611ab357809250611ac1565b611abe816001612b0f565b91505b50611a6a565b8115611b0b5784611ad9600184612b62565b81548110611ae957611ae9612b79565b60009182526020909120015464010000000090046001600160e01b0316611b0e565b60005b6001600160e01b031695945050505050565b60075460ff16611b695760405162461bcd60e51b815260206004820152601460248201527314185d5cd8589b194e881b9bdd081c185d5cd95960621b6044820152606401610828565b6007805460ff191690557f5db9ee0a495bf2e6ff9c91a7834c1ba4fdd244a5e8aa4e537bd38aeae4b073aa335b6040516001600160a01b03909116815260200160405180910390a1565b61083b8282611138565b61083b82826122bc565b6001600160a01b03828116600081815260096020818152604080842080546002845282862054949093528787166001600160a01b03198416811790915590519190951694919391928592917f3134e8a2e6d97e929a7e54011ea5485d7d196dd5f0ba4d4ef95803e8e3fc257f9190a4610b25828483611f4e565b60075460ff1615611c875760405162461bcd60e51b815260206004820152601060248201526f14185d5cd8589b194e881c185d5cd95960821b6044820152606401610828565b6007805460ff191660011790557f62e78cea01bee320cd4e420270b5ea74000d11b0c9f74754ebdbfc544b05a258611b963390565b60006108f183836122d4565b60006106ae611cd561191a565b8360405161190160f01b6020820152602281018390526042810182905260009060620160405160208183030381529060405280519060200120905092915050565b6000806000611d27878787876122fe565b91509150611d34816123eb565b5095945050505050565b6001600160a01b03811660009081526008602052604090208054600181018255905b50919050565b60006106ae825490565b825460009081908015611dbb5785611d89600183612b62565b81548110611d9957611d99612b79565b60009182526020909120015464010000000090046001600160e01b0316611dbe565b60005b6001600160e01b03169250611dd783858763ffffffff16565b9150600081118015611e1557504386611df1600184612b62565b81548110611e0157611e01612b79565b60009182526020909120015463ffffffff16145b15611e7557611e238261135a565b86611e2f600184612b62565b81548110611e3f57611e3f612b79565b9060005260206000200160000160046101000a8154816001600160e01b0302191690836001600160e01b03160217905550611ee0565b856040518060400160405280611e8a436113c7565b63ffffffff168152602001611e9e8561135a565b6001600160e01b0390811690915282546001810184556000938452602093849020835194909301519091166401000000000263ffffffff909316929092179101555b50935093915050565b6000818152600183016020526040812054611f30575081546001818101845560008481526020808220909301849055845484825282860190935260409020919091556106ae565b5060006106ae565b6107a883838361142c565b6107a8838383611492565b816001600160a01b0316836001600160a01b031614158015611f705750600081115b156107a8576001600160a01b03831615611ffe576001600160a01b0383166000908152600a602052604081208190611fab906114c485611d70565b91509150846001600160a01b03167fdec2bacdd2f05b59de34da9b523dff8be42e5e38e818c82fdb0bae774387a7248383604051611ff3929190918252602082015260400190565b60405180910390a250505b6001600160a01b038216156107a8576001600160a01b0382166000908152600a6020526040812081906120349061134e85611d70565b91509150836001600160a01b03167fdec2bacdd2f05b59de34da9b523dff8be42e5e38e818c82fdb0bae774387a724838360405161207c929190918252602082015260400190565b60405180910390a25050505050565b6060600061209a836002612c04565b6120a5906002612b0f565b67ffffffffffffffff8111156120bd576120bd612c23565b6040519080825280601f01601f1916602001820160405280156120e7576020820181803683370190505b509050600360fc1b8160008151811061210257612102612b79565b60200101906001600160f81b031916908160001a905350600f60fb1b8160018151811061213157612131612b79565b60200101906001600160f81b031916908160001a9053506000612155846002612c04565b612160906001612b0f565b90505b60018111156121d8576f181899199a1a9b1b9c1cb0b131b232b360811b85600f166010811061219457612194612b79565b1a60f81b8282815181106121aa576121aa612b79565b60200101906001600160f81b031916908160001a90535060049490941c936121d181612c39565b9050612163565b5083156108f15760405162461bcd60e51b815260206004820181905260248201527f537472696e67733a20686578206c656e67746820696e73756666696369656e746044820152606401610828565b6122318282610c49565b1561083b576000828152602081815260408083206001600160a01b0385168085529252808320805460ff1916905551339285917ff6391f5c32d9c69d2a47ea670b442974b53935d1edc7fd64eb21e047a839171b9190a45050565b60006108f1836001600160a01b0384166125a6565b60006122b06002848418612c50565b6108f190848416612b0f565b6122c68282612699565b610b25600b6114c483611d70565b60008260000182815481106122eb576122eb612b79565b9060005260206000200154905092915050565b6000807f7fffffffffffffffffffffffffffffff5d576e7357a4501ddfe92f46681b20a083111561233557506000905060036123e2565b8460ff16601b1415801561234d57508460ff16601c14155b1561235e57506000905060046123e2565b6040805160008082526020820180845289905260ff881692820192909252606081018690526080810185905260019060a0016020604051602081039080840390855afa1580156123b2573d6000803e3d6000fd5b5050604051601f1901519150506001600160a01b0381166123db576000600192509250506123e2565b9150600090505b94509492505050565b60008160048111156123ff576123ff612c72565b14156124085750565b600181600481111561241c5761241c612c72565b141561246a5760405162461bcd60e51b815260206004820152601860248201527f45434453413a20696e76616c6964207369676e617475726500000000000000006044820152606401610828565b600281600481111561247e5761247e612c72565b14156124cc5760405162461bcd60e51b815260206004820152601f60248201527f45434453413a20696e76616c6964207369676e6174757265206c656e677468006044820152606401610828565b60038160048111156124e0576124e0612c72565b14156125395760405162461bcd60e51b815260206004820152602260248201527f45434453413a20696e76616c6964207369676e6174757265202773272076616c604482015261756560f01b6064820152608401610828565b600481600481111561254d5761254d612c72565b141561092b5760405162461bcd60e51b815260206004820152602260248201527f45434453413a20696e76616c6964207369676e6174757265202776272076616c604482015261756560f01b6064820152608401610828565b6000818152600183016020526040812054801561268f5760006125ca600183612b62565b85549091506000906125de90600190612b62565b90508181146126435760008660000182815481106125fe576125fe612b79565b906000526020600020015490508087600001848154811061262157612621612b79565b6000918252602080832090910192909255918252600188019052604090208390555b855486908061265457612654612c88565b6001900381819060005260206000200160009055905585600101600086815260200190815260200160002060009055600193505050506106ae565b60009150506106ae565b6001600160a01b0382166126f95760405162461bcd60e51b815260206004820152602160248201527f45524332303a206275726e2066726f6d20746865207a65726f206164647265736044820152607360f81b6064820152608401610828565b61270582600083611f38565b6001600160a01b038216600090815260026020526040902054818110156127795760405162461bcd60e51b815260206004820152602260248201527f45524332303a206275726e20616d6f756e7420657863656564732062616c616e604482015261636560f01b6064820152608401610828565b6001600160a01b03831660009081526002602052604081208383039055600480548492906127a8908490612b62565b90915550506040518281526000906001600160a01b038516907fddf252ad1be2c89b69c2b068fc378daa952ba7f163c4a11628f55a4df523b3ef9060200160405180910390a36107a883600084611f43565b60006020828403121561280c57600080fd5b81356001600160e01b0319811681146108f157600080fd5b60005b8381101561283f578181015183820152602001612827565b83811115610b255750506000910152565b602081526000825180602084015261286f816040850160208701612824565b601f01601f19169190910160400192915050565b80356001600160a01b038116811461289a57600080fd5b919050565b600080604083850312156128b257600080fd5b6128bb83612883565b946020939093013593505050565b6000806000606084860312156128de57600080fd5b6128e784612883565b92506128f560208501612883565b9150604084013590509250925092565b60006020828403121561291757600080fd5b5035919050565b6000806040838503121561293157600080fd5b8235915061294160208401612883565b90509250929050565b60006020828403121561295c57600080fd5b6108f182612883565b6000806040838503121561297857600080fd5b50508035926020909101359150565b803560ff8116811461289a57600080fd5b60008060008060008060c087890312156129b157600080fd5b6129ba87612883565b955060208701359450604087013593506129d660608801612987565b92506080870135915060a087013590509295509295509295565b600080600080600080600060e0888a031215612a0b57600080fd5b612a1488612883565b9650612a2260208901612883565b95506040880135945060608801359350612a3e60808901612987565b925060a0880135915060c0880135905092959891949750929550565b60008060408385031215612a6d57600080fd5b612a7683612883565b915061294160208401612883565b60008060408385031215612a9757600080fd5b612aa083612883565b9150602083013563ffffffff81168114612ab957600080fd5b809150509250929050565b600181811c90821680612ad857607f821691505b60208210811415611d6057634e487b7160e01b600052602260045260246000fd5b634e487b7160e01b600052601160045260246000fd5b60008219821115612b2257612b22612af9565b500190565b600060208284031215612b3957600080fd5b5051919050565b600060208284031215612b5257600080fd5b815180151581146108f157600080fd5b600082821015612b7457612b74612af9565b500390565b634e487b7160e01b600052603260045260246000fd5b7f416363657373436f6e74726f6c3a206163636f756e7420000000000000000000815260008351612bc7816017850160208801612824565b7001034b99036b4b9b9b4b733903937b6329607d1b6017918401918201528351612bf8816028840160208801612824565b01602801949350505050565b6000816000190483118215151615612c1e57612c1e612af9565b500290565b634e487b7160e01b600052604160045260246000fd5b600081612c4857612c48612af9565b506000190190565b600082612c6d57634e487b7160e01b600052601260045260246000fd5b500490565b634e487b7160e01b600052602160045260246000fd5b634e487b7160e01b600052603160045260246000fdfea2646970667358221220d3a627c8ff9d48d4e5d5d979b8fdb1ebe62825fc61c604c7ef22322817ac115464736f6c63430008090033dec2bacdd2f05b59de34da9b523dff8be42e5e38e818c82fdb0bae774387a724",
  "devdoc": {
    "kind": "dev",
    "methods": {
      "DOMAIN_SEPARATOR()": {
        "details": "See {IERC20Permit-DOMAIN_SEPARATOR}."
      },
      "allowance(address,address)": {
        "details": "See {IERC20-allowance}."
      },
      "approve(address,uint256)": {
        "details": "See {IERC20-approve}. NOTE: If `amount` is the maximum `uint256`, the allowance is not updated on `transferFrom`. This is semantically equivalent to an infinite approval. Requirements: - `spender` cannot be the zero address."
      },
      "balanceOf(address)": {
        "details": "See {IERC20-balanceOf}."
      },
      "burn(uint256)": {
        "details": "Destroys `amount` tokens from the caller. See {ERC20-_burn}."
      },
      "burnFrom(address,uint256)": {
        "details": "Destroys `amount` tokens from `account`, deducting from the caller's allowance. See {ERC20-_burn} and {ERC20-allowance}. Requirements: - the caller must have allowance for ``accounts``'s tokens of at least `amount`."
      },
      "checkpoints(address,uint32)": {
        "details": "Get the `pos`-th checkpoint for `account`."
      },
      "decimals()": {
        "details": "Returns the number of decimals used to get its user representation. For example, if `decimals` equals `2`, a balance of `505` tokens should be displayed to a user as `5.05` (`505 / 10 ** 2`). Tokens usually opt for a value of 18, imitating the relationship between Ether and Wei. This is the value {ERC20} uses, unless this function is overridden; NOTE: This information is only used for _display_ purposes: it in no way affects any of the arithmetic of the contract, including {IERC20-balanceOf} and {IERC20-transfer}."
      },
      "decreaseAllowance(address,uint256)": {
        "details": "Atomically decreases the allowance granted to `spender` by the caller. This is an alternative to {approve} that can be used as a mitigation for problems described in {IERC20-approve}. Emits an {Approval} event indicating the updated allowance. Requirements: - `spender` cannot be the zero address. - `spender` must have allowance for the caller of at least `subtractedValue`."
      },
      "delegate(address)": {
        "details": "Delegate votes from the sender to `delegatee`."
      },
      "delegateBySig(address,uint256,uint256,uint8,bytes32,bytes32)": {
        "details": "Delegates votes from signer to `delegatee`"
      },
      "delegates(address)": {
        "details": "Get the address `account` is currently delegating to."
      },
      "getPastTotalSupply(uint256)": {
        "details": "Retrieve the `totalSupply` at the end of `blockNumber`. Note, this value is the sum of all balances. It is but NOT the sum of all the delegated votes! Requirements: - `blockNumber` must have been already mined"
      },
      "getPastVotes(address,uint256)": {
        "details": "Retrieve the number of votes for `account` at the end of `blockNumber`. Requirements: - `blockNumber` must have been already mined"
      },
      "getRoleAdmin(bytes32)": {
        "details": "Returns the admin role that controls `role`. See {grantRole} and {revokeRole}. To change a role's admin, use {_setRoleAdmin}."
      },
      "getRoleMember(bytes32,uint256)": {
        "details": "Returns one of the accounts that have `role`. `index` must be a value between 0 and {getRoleMemberCount}, non-inclusive. Role bearers are not sorted in any particular way, and their ordering may change at any point. WARNING: When using {getRoleMember} and {getRoleMemberCount}, make sure you perform all queries on the same block. See the following https://forum.openzeppelin.com/t/iterating-over-elements-on-enumerableset-in-openzeppelin-contracts/2296[forum post] for more information."
      },
      "getRoleMemberCount(bytes32)": {
        "details": "Returns the number of accounts that have `role`. Can be used together with {getRoleMember} to enumerate all bearers of a role."
      },
      "getVotes(address)": {
        "details": "Gets the current votes balance for `account`"
      },
      "grantRole(bytes32,address)": {
        "details": "Grants `role` to `account`. If `account` had not been already granted `role`, emits a {RoleGranted} event. Requirements: - the caller must have ``role``'s admin role."
      },
      "hasRole(bytes32,address)": {
        "details": "Returns `true` if `account` has been granted `role`."
      },
      "increaseAllowance(address,uint256)": {
        "details": "Atomically increases the allowance granted to `spender` by the caller. This is an alternative to {approve} that can be used as a mitigation for problems described in {IERC20-approve}. Emits an {Approval} event indicating the updated allowance. Requirements: - `spender` cannot be the zero address."
      },
      "name()": {
        "details": "Returns the name of the token."
      },
      "nonces(address)": {
        "details": "See {IERC20Permit-nonces}."
      },
      "numCheckpoints(address)": {
        "details": "Get number of checkpoints for `account`."
      },
      "paused()": {
        "details": "Returns true if the contract is paused, and false otherwise."
      },
      "permit(address,address,uint256,uint256,uint8,bytes32,bytes32)": {
        "details": "See {IERC20Permit-permit}."
      },
      "renounceRole(bytes32,address)": {
        "details": "Revokes `role` from the calling account. Roles are often managed via {grantRole} and {revokeRole}: this function's purpose is to provide a mechanism for accounts to lose their privileges if they are compromised (such as when a trusted device is misplaced). If the calling account had been revoked `role`, emits a {RoleRevoked} event. Requirements: - the caller must be `account`."
      },
      "revokeRole(bytes32,address)": {
        "details": "Revokes `role` from `account`. If `account` had been granted `role`, emits a {RoleRevoked} event. Requirements: - the caller must have ``role``'s admin role."
      },
      "supportsInterface(bytes4)": {
        "details": "See {IERC165-supportsInterface}."
      },
      "symbol()": {
        "details": "Returns the symbol of the token, usually a shorter version of the name."
      },
      "totalSupply()": {
        "details": "See {IERC20-totalSupply}."
      },
      "transfer(address,uint256)": {
        "details": "See {IERC20-transfer}. Requirements: - `to` cannot be the zero address. - the caller must have a balance of at least `amount`."
      },
      "transferFrom(address,address,uint256)": {
        "details": "See {IERC20-transferFrom}. Emits an {Approval} event indicating the updated allowance. This is not required by the EIP. See the note at the beginning of {ERC20}. NOTE: Does not update the allowance if the current allowance is the maximum `uint256`. Requirements: - `from` and `to` cannot be the zero address. - `from` must have a balance of at least `amount`. - the caller must have allowance for ``from``'s tokens of at least `amount`."
      }
    },
    "version": 1
  },
  "userdoc": {
    "kind": "user",
    "methods": {},
    "version": 1
  },
  "storageLayout": {
    "storage": [
      {
        "astId": 24,
        "contract": "contracts/MGFToken.sol:MGFToken",
        "label": "_roles",
        "offset": 0,
        "slot": "0",
        "type": "t_mapping(t_bytes32,t_struct(RoleData)19_storage)"
      },
      {
        "astId": 327,
        "contract": "contracts/MGFToken.sol:MGFToken",
        "label": "_roleMembers",
        "offset": 0,
        "slot": "1",
        "type": "t_mapping(t_bytes32,t_struct(AddressSet)4004_storage)"
      },
      {
        "astId": 717,
        "contract": "contracts/MGFToken.sol:MGFToken",
        "label": "_balances",
        "offset": 0,
        "slot": "2",
        "type": "t_mapping(t_address,t_uint256)"
      },
      {
        "astId": 723,
        "contract": "contracts/MGFToken.sol:MGFToken",
        "label": "_allowances",
        "offset": 0,
        "slot": "3",
        "type": "t_mapping(t_address,t_mapping(t_address,t_uint256))"
      },
      {
        "astId": 725,
        "contract": "contracts/MGFToken.sol:MGFToken",
        "label": "_totalSupply",
        "offset": 0,
        "slot": "4",
        "type": "t_uint256"
      },
      {
        "astId": 727,
        "contract": "contracts/MGFToken.sol:MGFToken",
        "label": "_name",
        "offset": 0,
        "slot": "5",
        "type": "t_string_storage"
      },
      {
        "astId": 729,
        "contract": "contracts/MGFToken.sol:MGFToken",
        "label": "_symbol",
        "offset": 0,
        "slot": "6",
        "type": "t_string_storage"
      },
      {
        "astId": 627,
        "contract": "contracts/MGFToken.sol:MGFToken",
        "label": "_paused",
        "offset": 0,
        "slot": "7",
        "type": "t_bool"
      },
      {
        "astId": 2133,
        "contract": "contracts/MGFToken.sol:MGFToken",
        "label": "_nonces",
        "offset": 0,
        "slot": "8",
        "type": "t_mapping(t_address,t_struct(Counter)2343_storage)"
      },
      {
        "astId": 1474,
        "contract": "contracts/MGFToken.sol:MGFToken",
        "label": "_delegates",
        "offset": 0,
        "slot": "9",
        "type": "t_mapping(t_address,t_address)"
      },
      {
        "astId": 1480,
        "contract": "contracts/MGFToken.sol:MGFToken",
        "label": "_checkpoints",
        "offset": 0,
        "slot": "10",
        "type": "t_mapping(t_address,t_array(t_struct(Checkpoint)1465_storage)dyn_storage)"
      },
      {
        "astId": 1484,
        "contract": "contracts/MGFToken.sol:MGFToken",
        "label": "_totalSupplyCheckpoints",
        "offset": 0,
        "slot": "11",
        "type": "t_array(t_struct(Checkpoint)1465_storage)dyn_storage"
      }
    ],
    "types": {
      "t_address": {
        "encoding": "inplace",
        "label": "address",
        "numberOfBytes": "20"
      },
      "t_array(t_bytes32)dyn_storage": {
        "base": "t_bytes32",
        "encoding": "dynamic_array",
        "label": "bytes32[]",
        "numberOfBytes": "32"
      },
      "t_array(t_struct(Checkpoint)1465_storage)dyn_storage": {
        "base": "t_struct(Checkpoint)1465_storage",
        "encoding": "dynamic_array",
        "label": "struct ERC20Votes.Checkpoint[]",
        "numberOfBytes": "32"
      },
      "t_bool": {
        "encoding": "inplace",
        "label": "bool",
        "numberOfBytes": "1"
      },
      "t_bytes32": {
        "encoding": "inplace",
        "label": "bytes32",
        "numberOfBytes": "32"
      },
      "t_mapping(t_address,t_address)": {
        "encoding": "mapping",
        "key": "t_address",
        "label": "mapping(address => address)",
        "numberOfBytes": "32",
        "value": "t_address"
      },
      "t_mapping(t_address,t_array(t_struct(Checkpoint)1465_storage)dyn_storage)": {
        "encoding": "mapping",
        "key": "t_address",
        "label": "mapping(address => struct ERC20Votes.Checkpoint[])",
        "numberOfBytes": "32",
        "value": "t_array(t_struct(Checkpoint)1465_storage)dyn_storage"
      },
      "t_mapping(t_address,t_bool)": {
        "encoding": "mapping",
        "key": "t_address",
        "label": "mapping(address => bool)",
        "numberOfBytes": "32",
        "value": "t_bool"
      },
      "t_mapping(t_address,t_mapping(t_address,t_uint256))": {
        "encoding": "mapping",
        "key": "t_address",
        "label": "mapping(address => mapping(address => uint256))",
        "numberOfBytes": "32",
        "value": "t_mapping(t_address,t_uint256)"
      },
      "t_mapping(t_address,t_struct(Counter)2343_storage)": {
        "encoding": "mapping",
        "key": "t_address",
        "label": "mapping(address => struct Counters.Counter)",
        "numberOfBytes": "32",
        "value": "t_struct(Counter)2343_storage"
      },
      "t_mapping(t_address,t_uint256)": {
        "encoding": "mapping",
        "key": "t_address",
        "label": "mapping(address => uint256)",
        "numberOfBytes": "32",
        "value": "t_uint256"
      },
      "t_mapping(t_bytes32,t_struct(AddressSet)4004_storage)": {
        "encoding": "mapping",
        "key": "t_bytes32",
        "label": "mapping(bytes32 => struct EnumerableSet.AddressSet)",
        "numberOfBytes": "32",
        "value": "t_struct(AddressSet)4004_storage"
      },
      "t_mapping(t_bytes32,t_struct(RoleData)19_storage)": {
        "encoding": "mapping",
        "key": "t_bytes32",
        "label": "mapping(bytes32 => struct AccessControl.RoleData)",
        "numberOfBytes": "32",
        "value": "t_struct(RoleData)19_storage"
      },
      "t_mapping(t_bytes32,t_uint256)": {
        "encoding": "mapping",
        "key": "t_bytes32",
        "label": "mapping(bytes32 => uint256)",
        "numberOfBytes": "32",
        "value": "t_uint256"
      },
      "t_string_storage": {
        "encoding": "bytes",
        "label": "string",
        "numberOfBytes": "32"
      },
      "t_struct(AddressSet)4004_storage": {
        "encoding": "inplace",
        "label": "struct EnumerableSet.AddressSet",
        "members": [
          {
            "astId": 4003,
            "contract": "contracts/MGFToken.sol:MGFToken",
            "label": "_inner",
            "offset": 0,
            "slot": "0",
            "type": "t_struct(Set)3703_storage"
          }
        ],
        "numberOfBytes": "64"
      },
      "t_struct(Checkpoint)1465_storage": {
        "encoding": "inplace",
        "label": "struct ERC20Votes.Checkpoint",
        "members": [
          {
            "astId": 1462,
            "contract": "contracts/MGFToken.sol:MGFToken",
            "label": "fromBlock",
            "offset": 0,
            "slot": "0",
            "type": "t_uint32"
          },
          {
            "astId": 1464,
            "contract": "contracts/MGFToken.sol:MGFToken",
            "label": "votes",
            "offset": 4,
            "slot": "0",
            "type": "t_uint224"
          }
        ],
        "numberOfBytes": "32"
      },
      "t_struct(Counter)2343_storage": {
        "encoding": "inplace",
        "label": "struct Counters.Counter",
        "members": [
          {
            "astId": 2342,
            "contract": "contracts/MGFToken.sol:MGFToken",
            "label": "_value",
            "offset": 0,
            "slot": "0",
            "type": "t_uint256"
          }
        ],
        "numberOfBytes": "32"
      },
      "t_struct(RoleData)19_storage": {
        "encoding": "inplace",
        "label": "struct AccessControl.RoleData",
        "members": [
          {
            "astId": 16,
            "contract": "contracts/MGFToken.sol:MGFToken",
            "label": "members",
            "offset": 0,
            "slot": "0",
            "type": "t_mapping(t_address,t_bool)"
          },
          {
            "astId": 18,
            "contract": "contracts/MGFToken.sol:MGFToken",
            "label": "adminRole",
            "offset": 0,
            "slot": "1",
            "type": "t_bytes32"
          }
        ],
        "numberOfBytes": "64"
      },
      "t_struct(Set)3703_storage": {
        "encoding": "inplace",
        "label": "struct EnumerableSet.Set",
        "members": [
          {
            "astId": 3698,
            "contract": "contracts/MGFToken.sol:MGFToken",
            "label": "_values",
            "offset": 0,
            "slot": "0",
            "type": "t_array(t_bytes32)dyn_storage"
          },
          {
            "astId": 3702,
            "contract": "contracts/MGFToken.sol:MGFToken",
            "label": "_indexes",
            "offset": 0,
            "slot": "1",
            "type": "t_mapping(t_bytes32,t_uint256)"
          }
        ],
        "numberOfBytes": "64"
      },
      "t_uint224": {
        "encoding": "inplace",
        "label": "uint224",
        "numberOfBytes": "28"
      },
      "t_uint256": {
        "encoding": "inplace",
        "label": "uint256",
        "numberOfBytes": "32"
      },
      "t_uint32": {
        "encoding": "inplace",
        "label": "uint32",
        "numberOfBytes": "4"
      }
    }
  }
}