{
  "address": "0x5FbDB2315678afecb367f032d93F642f64180aa3",
  "abi": [
    {
      "anonymous": false,
      "inputs": [
        {
          "indexed": false,
          "internalType": "address",
          "name": "caller",
          "type": "address"
        },
        {
          "indexed": false,
          "internalType": "uint256",
          "name": "amount",
          "type": "uint256"
        },
        {
          "indexed": false,
          "internalType": "string",
          "name": "message",
          "type": "string"
        }
      ],
      "name": "Received",
      "type": "event"
    },
    {
      "stateMutability": "payable",
      "type": "fallback"
    },
    {
      "inputs": [
        {
          "internalType": "string",
          "name": "_message",
          "type": "string"
        },
        {
          "internalType": "uint256",
          "name": "_x",
          "type": "uint256"
        }
      ],
      "name": "foo",
      "outputs": [
        {
          "internalType": "uint256",
          "name": "",
          "type": "uint256"
        }
      ],
      "stateMutability": "payable",
      "type": "function"
    }
  ],
  "transactionHash": "0x6773b7513dfbec23ae4cb340b27dab0b170ba4dee22f9d99dcfbabe004e5fb6e",
  "args": [],
  "numDeployments": 1,
  "solcInputHash": "9c896fbbe954690bf2a982e89f6ff413",
  "bytecode": "0x608060405234801561001057600080fd5b50610377806100206000396000f3fe60806040526004361061001e5760003560e01c806324ccab8f146100a6575b61004160405180606001604052806025815260200161031d6025913933346100cb565b6040805133815234602082015260608183018190526013908201527211985b1b189858dac81dd85cc818d85b1b1959606a1b608082015290517f59e04c3f0d44b7caf6e8ef854b61d9a51cf1960d7a88ff6356cc5e946b4b58329181900360a00190a1005b6100b96100b4366004610187565b610117565b60405190815260200160405180910390f35b6101128383836040516024016100e3939291906102b4565b60408051601f198184030181529190526020810180516001600160e01b03166307c8121760e01b179052610166565b505050565b60007f59e04c3f0d44b7caf6e8ef854b61d9a51cf1960d7a88ff6356cc5e946b4b583233348560405161014c93929190610284565b60405180910390a161015f8260016102e2565b9392505050565b80516a636f6e736f6c652e6c6f67602083016000808483855afa5050505050565b60008060408385031215610199578182fd5b823567ffffffffffffffff808211156101b0578384fd5b818501915085601f8301126101c3578384fd5b8135818111156101d5576101d5610306565b604051601f8201601f19908116603f011681019083821181831017156101fd576101fd610306565b81604052828152886020848701011115610215578687fd5b82602086016020830137918201602090810196909652509694909301359450505050565b60008151808452815b8181101561025e57602081850181015186830182015201610242565b8181111561026f5782602083870101525b50601f01601f19169290920160200192915050565b60018060a01b03841681528260208201526060604082015260006102ab6060830184610239565b95945050505050565b6060815260006102c76060830186610239565b6001600160a01b039490941660208301525060400152919050565b6000821982111561030157634e487b7160e01b81526011600452602481fd5b500190565b634e487b7160e01b600052604160045260246000fdfe66616c6c6261636b2061646472657373203d2025732c206d73672e76616c7565203d202564a26469706673582212202e2e8bf34f503b4cfa483a9c9775a1236d44249e7d2fb95f2de18050c9a4125164736f6c63430008040033",
  "devdoc": {
    "kind": "dev",
    "methods": {},
    "version": 1
  },
  "userdoc": {
    "kind": "user",
    "methods": {},
    "version": 1
  },
  "storageLayout": {
    "storage": [],
    "types": null
  }
}