{
  "address": "0xfF3F27E9020e8ca851d75f39584Bd09E8134f180",
  "abi": [
    {
      "anonymous": false,
      "inputs": [
        {
          "indexed": true,
          "internalType": "address",
          "name": "owner",
          "type": "address"
        },
        {
          "indexed": true,
          "internalType": "address",
          "name": "approved",
          "type": "address"
        },
        {
          "indexed": true,
          "internalType": "uint256",
          "name": "tokenId",
          "type": "uint256"
        }
      ],
      "name": "Approval",
      "type": "event"
    },
    {
      "anonymous": false,
      "inputs": [
        {
          "indexed": true,
          "internalType": "address",
          "name": "owner",
          "type": "address"
        },
        {
          "indexed": true,
          "internalType": "address",
          "name": "operator",
          "type": "address"
        },
        {
          "indexed": false,
          "internalType": "bool",
          "name": "approved",
          "type": "bool"
        }
      ],
      "name": "ApprovalForAll",
      "type": "event"
    },
    {
      "anonymous": false,
      "inputs": [
        {
          "indexed": false,
          "internalType": "address",
          "name": "_to",
          "type": "address"
        },
        {
          "indexed": false,
          "internalType": "uint256",
          "name": "tokenid_",
          "type": "uint256"
        }
      ],
      "name": "Mint",
      "type": "event"
    },
    {
      "anonymous": false,
      "inputs": [
        {
          "indexed": true,
          "internalType": "address",
          "name": "_to",
          "type": "address"
        },
        {
          "indexed": false,
          "internalType": "uint256",
          "name": "_amount",
          "type": "uint256"
        }
      ],
      "name": "MintMulti",
      "type": "event"
    },
    {
      "anonymous": false,
      "inputs": [
        {
          "indexed": false,
          "internalType": "address",
          "name": "owner",
          "type": "address"
        },
        {
          "indexed": false,
          "internalType": "uint256",
          "name": "tokenId",
          "type": "uint256"
        }
      ],
      "name": "Open",
      "type": "event"
    },
    {
      "anonymous": false,
      "inputs": [
        {
          "indexed": true,
          "internalType": "bytes32",
          "name": "role",
          "type": "bytes32"
        },
        {
          "indexed": true,
          "internalType": "bytes32",
          "name": "previousAdminRole",
          "type": "bytes32"
        },
        {
          "indexed": true,
          "internalType": "bytes32",
          "name": "newAdminRole",
          "type": "bytes32"
        }
      ],
      "name": "RoleAdminChanged",
      "type": "event"
    },
    {
      "anonymous": false,
      "inputs": [
        {
          "indexed": true,
          "internalType": "bytes32",
          "name": "role",
          "type": "bytes32"
        },
        {
          "indexed": true,
          "internalType": "address",
          "name": "account",
          "type": "address"
        },
        {
          "indexed": true,
          "internalType": "address",
          "name": "sender",
          "type": "address"
        }
      ],
      "name": "RoleGranted",
      "type": "event"
    },
    {
      "anonymous": false,
      "inputs": [
        {
          "indexed": true,
          "internalType": "bytes32",
          "name": "role",
          "type": "bytes32"
        },
        {
          "indexed": true,
          "internalType": "address",
          "name": "account",
          "type": "address"
        },
        {
          "indexed": true,
          "internalType": "address",
          "name": "sender",
          "type": "address"
        }
      ],
      "name": "RoleRevoked",
      "type": "event"
    },
    {
      "anonymous": false,
      "inputs": [
        {
          "indexed": true,
          "internalType": "address",
          "name": "from",
          "type": "address"
        },
        {
          "indexed": true,
          "internalType": "address",
          "name": "to",
          "type": "address"
        },
        {
          "indexed": true,
          "internalType": "uint256",
          "name": "tokenId",
          "type": "uint256"
        }
      ],
      "name": "Transfer",
      "type": "event"
    },
    {
      "inputs": [],
      "name": "DEFAULT_ADMIN_ROLE",
      "outputs": [
        {
          "internalType": "bytes32",
          "name": "",
          "type": "bytes32"
        }
      ],
      "stateMutability": "view",
      "type": "function"
    },
    {
      "inputs": [
        {
          "internalType": "address",
          "name": "to",
          "type": "address"
        },
        {
          "internalType": "uint256",
          "name": "tokenId",
          "type": "uint256"
        }
      ],
      "name": "approve",
      "outputs": [],
      "stateMutability": "nonpayable",
      "type": "function"
    },
    {
      "inputs": [
        {
          "internalType": "address",
          "name": "owner",
          "type": "address"
        }
      ],
      "name": "balanceOf",
      "outputs": [
        {
          "internalType": "uint256",
          "name": "",
          "type": "uint256"
        }
      ],
      "stateMutability": "view",
      "type": "function"
    },
    {
      "inputs": [
        {
          "internalType": "uint256",
          "name": "tokenId",
          "type": "uint256"
        }
      ],
      "name": "burn",
      "outputs": [],
      "stateMutability": "nonpayable",
      "type": "function"
    },
    {
      "inputs": [],
      "name": "currToken",
      "outputs": [
        {
          "internalType": "contract IERC20Upgradeable",
          "name": "",
          "type": "address"
        }
      ],
      "stateMutability": "view",
      "type": "function"
    },
    {
      "inputs": [
        {
          "internalType": "uint256",
          "name": "tokenId",
          "type": "uint256"
        }
      ],
      "name": "getApproved",
      "outputs": [
        {
          "internalType": "address",
          "name": "",
          "type": "address"
        }
      ],
      "stateMutability": "view",
      "type": "function"
    },
    {
      "inputs": [
        {
          "internalType": "bytes32",
          "name": "role",
          "type": "bytes32"
        }
      ],
      "name": "getRoleAdmin",
      "outputs": [
        {
          "internalType": "bytes32",
          "name": "",
          "type": "bytes32"
        }
      ],
      "stateMutability": "view",
      "type": "function"
    },
    {
      "inputs": [
        {
          "internalType": "bytes32",
          "name": "role",
          "type": "bytes32"
        },
        {
          "internalType": "uint256",
          "name": "index",
          "type": "uint256"
        }
      ],
      "name": "getRoleMember",
      "outputs": [
        {
          "internalType": "address",
          "name": "",
          "type": "address"
        }
      ],
      "stateMutability": "view",
      "type": "function"
    },
    {
      "inputs": [
        {
          "internalType": "bytes32",
          "name": "role",
          "type": "bytes32"
        }
      ],
      "name": "getRoleMemberCount",
      "outputs": [
        {
          "internalType": "uint256",
          "name": "",
          "type": "uint256"
        }
      ],
      "stateMutability": "view",
      "type": "function"
    },
    {
      "inputs": [
        {
          "internalType": "bytes32",
          "name": "role",
          "type": "bytes32"
        },
        {
          "internalType": "address",
          "name": "account",
          "type": "address"
        }
      ],
      "name": "grantRole",
      "outputs": [],
      "stateMutability": "nonpayable",
      "type": "function"
    },
    {
      "inputs": [
        {
          "internalType": "bytes32",
          "name": "role",
          "type": "bytes32"
        },
        {
          "internalType": "address",
          "name": "account",
          "type": "address"
        }
      ],
      "name": "hasRole",
      "outputs": [
        {
          "internalType": "bool",
          "name": "",
          "type": "bool"
        }
      ],
      "stateMutability": "view",
      "type": "function"
    },
    {
      "inputs": [
        {
          "internalType": "contract IERC20Upgradeable",
          "name": "currToken_",
          "type": "address"
        },
        {
          "internalType": "uint256",
          "name": "nftPrice_",
          "type": "uint256"
        },
        {
          "internalType": "address",
          "name": "tokenReceiveAddress_",
          "type": "address"
        }
      ],
      "name": "initialize",
      "outputs": [],
      "stateMutability": "nonpayable",
      "type": "function"
    },
    {
      "inputs": [
        {
          "internalType": "address",
          "name": "owner",
          "type": "address"
        },
        {
          "internalType": "address",
          "name": "operator",
          "type": "address"
        }
      ],
      "name": "isApprovedForAll",
      "outputs": [
        {
          "internalType": "bool",
          "name": "",
          "type": "bool"
        }
      ],
      "stateMutability": "view",
      "type": "function"
    },
    {
      "inputs": [
        {
          "internalType": "uint256",
          "name": "amount",
          "type": "uint256"
        }
      ],
      "name": "mintMulti",
      "outputs": [],
      "stateMutability": "nonpayable",
      "type": "function"
    },
    {
      "inputs": [],
      "name": "name",
      "outputs": [
        {
          "internalType": "string",
          "name": "",
          "type": "string"
        }
      ],
      "stateMutability": "view",
      "type": "function"
    },
    {
      "inputs": [],
      "name": "nftPrice",
      "outputs": [
        {
          "internalType": "uint256",
          "name": "",
          "type": "uint256"
        }
      ],
      "stateMutability": "view",
      "type": "function"
    },
    {
      "inputs": [
        {
          "internalType": "uint256",
          "name": "tokenId",
          "type": "uint256"
        }
      ],
      "name": "open",
      "outputs": [],
      "stateMutability": "nonpayable",
      "type": "function"
    },
    {
      "inputs": [
        {
          "internalType": "uint256",
          "name": "tokenId",
          "type": "uint256"
        }
      ],
      "name": "ownerOf",
      "outputs": [
        {
          "internalType": "address",
          "name": "",
          "type": "address"
        }
      ],
      "stateMutability": "view",
      "type": "function"
    },
    {
      "inputs": [
        {
          "internalType": "bytes32",
          "name": "role",
          "type": "bytes32"
        },
        {
          "internalType": "address",
          "name": "account",
          "type": "address"
        }
      ],
      "name": "renounceRole",
      "outputs": [],
      "stateMutability": "nonpayable",
      "type": "function"
    },
    {
      "inputs": [
        {
          "internalType": "bytes32",
          "name": "role",
          "type": "bytes32"
        },
        {
          "internalType": "address",
          "name": "account",
          "type": "address"
        }
      ],
      "name": "revokeRole",
      "outputs": [],
      "stateMutability": "nonpayable",
      "type": "function"
    },
    {
      "inputs": [
        {
          "internalType": "address",
          "name": "from",
          "type": "address"
        },
        {
          "internalType": "address",
          "name": "to",
          "type": "address"
        },
        {
          "internalType": "uint256",
          "name": "tokenId",
          "type": "uint256"
        }
      ],
      "name": "safeTransferFrom",
      "outputs": [],
      "stateMutability": "nonpayable",
      "type": "function"
    },
    {
      "inputs": [
        {
          "internalType": "address",
          "name": "from",
          "type": "address"
        },
        {
          "internalType": "address",
          "name": "to",
          "type": "address"
        },
        {
          "internalType": "uint256",
          "name": "tokenId",
          "type": "uint256"
        },
        {
          "internalType": "bytes",
          "name": "_data",
          "type": "bytes"
        }
      ],
      "name": "safeTransferFrom",
      "outputs": [],
      "stateMutability": "nonpayable",
      "type": "function"
    },
    {
      "inputs": [
        {
          "internalType": "address",
          "name": "operator",
          "type": "address"
        },
        {
          "internalType": "bool",
          "name": "approved",
          "type": "bool"
        }
      ],
      "name": "setApprovalForAll",
      "outputs": [],
      "stateMutability": "nonpayable",
      "type": "function"
    },
    {
      "inputs": [
        {
          "internalType": "bytes4",
          "name": "interfaceId",
          "type": "bytes4"
        }
      ],
      "name": "supportsInterface",
      "outputs": [
        {
          "internalType": "bool",
          "name": "",
          "type": "bool"
        }
      ],
      "stateMutability": "view",
      "type": "function"
    },
    {
      "inputs": [],
      "name": "symbol",
      "outputs": [
        {
          "internalType": "string",
          "name": "",
          "type": "string"
        }
      ],
      "stateMutability": "view",
      "type": "function"
    },
    {
      "inputs": [
        {
          "internalType": "uint256",
          "name": "index",
          "type": "uint256"
        }
      ],
      "name": "tokenByIndex",
      "outputs": [
        {
          "internalType": "uint256",
          "name": "",
          "type": "uint256"
        }
      ],
      "stateMutability": "view",
      "type": "function"
    },
    {
      "inputs": [
        {
          "internalType": "address",
          "name": "owner",
          "type": "address"
        },
        {
          "internalType": "uint256",
          "name": "index",
          "type": "uint256"
        }
      ],
      "name": "tokenOfOwnerByIndex",
      "outputs": [
        {
          "internalType": "uint256",
          "name": "",
          "type": "uint256"
        }
      ],
      "stateMutability": "view",
      "type": "function"
    },
    {
      "inputs": [],
      "name": "tokenReceiveAddress",
      "outputs": [
        {
          "internalType": "address",
          "name": "",
          "type": "address"
        }
      ],
      "stateMutability": "view",
      "type": "function"
    },
    {
      "inputs": [
        {
          "internalType": "uint256",
          "name": "tokenId",
          "type": "uint256"
        }
      ],
      "name": "tokenURI",
      "outputs": [
        {
          "internalType": "string",
          "name": "",
          "type": "string"
        }
      ],
      "stateMutability": "view",
      "type": "function"
    },
    {
      "inputs": [],
      "name": "totalSupply",
      "outputs": [
        {
          "internalType": "uint256",
          "name": "",
          "type": "uint256"
        }
      ],
      "stateMutability": "view",
      "type": "function"
    },
    {
      "inputs": [
        {
          "internalType": "address",
          "name": "from",
          "type": "address"
        },
        {
          "internalType": "address",
          "name": "to",
          "type": "address"
        },
        {
          "internalType": "uint256",
          "name": "tokenId",
          "type": "uint256"
        }
      ],
      "name": "transferFrom",
      "outputs": [],
      "stateMutability": "nonpayable",
      "type": "function"
    }
  ],
  "transactionHash": "0x4b49e10fbfbef63701804202b7f6473f8cf026803df3b5edf08f2f8143ecc2c3",
  "args": [],
  "numDeployments": 2,
  "solcInputHash": "f7373d441f1eb6003694f427f5acb062",
  "bytecode": "0x608060405234801561001057600080fd5b50612af7806100206000396000f3fe608060405234801561001057600080fd5b50600436106101e55760003560e01c806351e5d91d1161010f578063a217fddf116100a2578063c87b56dd11610071578063c87b56dd14610413578063ca15c87314610426578063d547741f14610439578063e985e9c51461044c57600080fd5b8063a217fddf146103d2578063a22cb465146103da578063b88d4fde146103ed578063c350a1b51461040057600080fd5b806388aac7b4116100de57806388aac7b4146103905780639010d07c146103a457806391d14854146103b757806395d89b41146103ca57600080fd5b806351e5d91d146103445780636352211e14610357578063690e7c091461036a57806370a082311461037d57600080fd5b806323b872dd1161018757806336568abe1161015657806336568abe146102f857806342842e0e1461030b57806342966c681461031e5780634f6ccce71461033157600080fd5b806323b872dd1461029c578063248a9ca3146102af5780632f2ff15d146102d25780632f745c59146102e557600080fd5b8063095ea7b3116101c3578063095ea7b3146102525780630d39fc81146102675780630ed368321461027f57806318160ddd1461029357600080fd5b806301ffc9a7146101ea57806306fdde0314610212578063081812fc14610227575b600080fd5b6101fd6101f836600461240b565b610488565b60405190151581526020015b60405180910390f35b61021a610499565b6040516102099190612480565b61023a610235366004612493565b61052b565b6040516001600160a01b039091168152602001610209565b6102656102603660046124c1565b6105c5565b005b6102716101615481565b604051908152602001610209565b6101625461023a906001600160a01b031681565b61012f54610271565b6102656102aa3660046124ed565b6106db565b6102716102bd366004612493565b60009081526065602052604090206001015490565b6102656102e036600461252e565b61070d565b6102716102f33660046124c1565b610733565b61026561030636600461252e565b6107ca565b6102656103193660046124ed565b610848565b61026561032c366004612493565b610863565b61027161033f366004612493565b6108dd565b610265610352366004612493565b610972565b61023a610365366004612493565b610b13565b610265610378366004612493565b610b8a565b61027161038b36600461255e565b610c2f565b6101605461023a906001600160a01b031681565b61023a6103b236600461257b565b610cb6565b6101fd6103c536600461252e565b610cd5565b61021a610d00565b610271600081565b6102656103e83660046125ab565b610d0f565b6102656103fb3660046125ef565b610d1a565b61026561040e3660046126cf565b610d52565b61021a610421366004612493565b610eaa565b610271610434366004612493565b610f91565b61026561044736600461252e565b610fa8565b6101fd61045a366004612711565b6001600160a01b03918216600090815260ce6020908152604080832093909416825291909152205460ff1690565b600061049382610fce565b92915050565b606060c980546104a89061273f565b80601f01602080910402602001604051908101604052809291908181526020018280546104d49061273f565b80156105215780601f106104f657610100808354040283529160200191610521565b820191906000526020600020905b81548152906001019060200180831161050457829003601f168201915b5050505050905090565b600081815260cb60205260408120546001600160a01b03166105a95760405162461bcd60e51b815260206004820152602c60248201527f4552433732313a20617070726f76656420717565727920666f72206e6f6e657860448201526b34b9ba32b73a103a37b5b2b760a11b60648201526084015b60405180910390fd5b50600090815260cd60205260409020546001600160a01b031690565b60006105d082610b13565b9050806001600160a01b0316836001600160a01b0316141561063e5760405162461bcd60e51b815260206004820152602160248201527f4552433732313a20617070726f76616c20746f2063757272656e74206f776e656044820152603960f91b60648201526084016105a0565b336001600160a01b038216148061065a575061065a813361045a565b6106cc5760405162461bcd60e51b815260206004820152603860248201527f4552433732313a20617070726f76652063616c6c6572206973206e6f74206f7760448201527f6e6572206e6f7220617070726f76656420666f7220616c6c000000000000000060648201526084016105a0565b6106d68383610ff3565b505050565b6106e6335b82611061565b6107025760405162461bcd60e51b81526004016105a09061277a565b6106d6838383611158565b60008281526065602052604090206001015461072981336112ff565b6106d68383611363565b600061073e83610c2f565b82106107a05760405162461bcd60e51b815260206004820152602b60248201527f455243373231456e756d657261626c653a206f776e657220696e646578206f7560448201526a74206f6620626f756e647360a81b60648201526084016105a0565b506001600160a01b0391909116600090815261012d60209081526040808320938352929052205490565b6001600160a01b038116331461083a5760405162461bcd60e51b815260206004820152602f60248201527f416363657373436f6e74726f6c3a2063616e206f6e6c792072656e6f756e636560448201526e103937b632b9903337b91039b2b63360891b60648201526084016105a0565b6108448282611385565b5050565b6106d683838360405180602001604052806000815250610d1a565b61086c336106e0565b6108d15760405162461bcd60e51b815260206004820152603060248201527f4552433732314275726e61626c653a2063616c6c6572206973206e6f74206f7760448201526f1b995c881b9bdc88185c1c1c9bdd995960821b60648201526084016105a0565b6108da816113a7565b50565b60006108e961012f5490565b821061094c5760405162461bcd60e51b815260206004820152602c60248201527f455243373231456e756d657261626c653a20676c6f62616c20696e646578206f60448201526b7574206f6620626f756e647360a01b60648201526084016105a0565b61012f8281548110610960576109606127cb565b90600052602060002001549050919050565b3332146109b55760405162461bcd60e51b8152602060048201526011602482015270426c696e64626f783a206e6f7420656f6160781b60448201526064016105a0565b60008111610a055760405162461bcd60e51b815260206004820152601860248201527f426c696e64426f783a206d697373696e6720616d6f756e74000000000000000060448201526064016105a0565b60005b81811015610a7d57610a1d3361015f5461144e565b61015f5460408051338152602081019290925280517f0f6798a560793a54c3bcfe86a93cde1e73087d944c0ea20544137d41213968859281900390910190a1610a6b61015f80546001019055565b80610a75816127f7565b915050610a08565b5060008161016154610a8f9190612812565b9050610aba60405180604001604052806007815260200166031b7b9ba101e960cd1b8152508261159c565b610ada3361016254610160546001600160a01b03908116929116846115e1565b60405182815233907f53dd95d829e31e93d4b97ced80cdb8c1d859de42fc3b07850e70e7f71ceaab359060200160405180910390a25050565b600081815260cb60205260408120546001600160a01b0316806104935760405162461bcd60e51b815260206004820152602960248201527f4552433732313a206f776e657220717565727920666f72206e6f6e657869737460448201526832b73a103a37b5b2b760b91b60648201526084016105a0565b33610b9482610b13565b6001600160a01b031614610bea5760405162461bcd60e51b815260206004820152601f60248201527f4865726f426f785555505356323a206e6f7420796f757220746f6b656e49640060448201526064016105a0565b610bf381610863565b60408051338152602081018390527f50042401acb675fedd6dd939fccc629832ce60fa4185df25c01b20e8def195bf910160405180910390a150565b60006001600160a01b038216610c9a5760405162461bcd60e51b815260206004820152602a60248201527f4552433732313a2062616c616e636520717565727920666f7220746865207a65604482015269726f206164647265737360b01b60648201526084016105a0565b506001600160a01b0316600090815260cc602052604090205490565b6000828152609760205260408120610cce908361163b565b9392505050565b60009182526065602090815260408084206001600160a01b0393909316845291905290205460ff1690565b606060ca80546104a89061273f565b610844338383611647565b610d243383611061565b610d405760405162461bcd60e51b81526004016105a09061277a565b610d4c84848484611716565b50505050565b600054610100900460ff16610d6d5760005460ff1615610d71565b303b155b610dd45760405162461bcd60e51b815260206004820152602e60248201527f496e697469616c697a61626c653a20636f6e747261637420697320616c72656160448201526d191e481a5b9a5d1a585b1a5e995960921b60648201526084016105a0565b600054610100900460ff16158015610df6576000805461ffff19166101011790555b610dfe611749565b610e4b6040518060400160405280600c81526020016b08aa0964090cae4de4084def60a31b815250604051806040016040528060078152602001660908aa49e849eb60cb1b815250611772565b610e53611749565b610e5b611749565b61016080546001600160a01b038087166001600160a01b0319928316179092556101618590556101628054928516929091169190911790558015610d4c576000805461ff001916905550505050565b600081815260cb60205260409020546060906001600160a01b0316610f295760405162461bcd60e51b815260206004820152602f60248201527f4552433732314d657461646174613a2055524920717565727920666f72206e6f60448201526e3732bc34b9ba32b73a103a37b5b2b760891b60648201526084016105a0565b6000610f4060408051602081019091526000815290565b90506000815111610f605760405180602001604052806000815250610cce565b80610f6a846117c0565b604051602001610f7b929190612831565b6040516020818303038152906040529392505050565b6000818152609760205260408120610493906118be565b600082815260656020526040902060010154610fc481336112ff565b6106d68383611385565b60006001600160e01b0319821663780e9d6360e01b14806104935750610493826118c8565b600081815260cd6020526040902080546001600160a01b0319166001600160a01b038416908117909155819061102882610b13565b6001600160a01b03167f8c5be1e5ebec7d5bd14f71427d1e84f3dd0314c0f7b2291e5b200ac8c7c3b92560405160405180910390a45050565b600081815260cb60205260408120546001600160a01b03166110da5760405162461bcd60e51b815260206004820152602c60248201527f4552433732313a206f70657261746f7220717565727920666f72206e6f6e657860448201526b34b9ba32b73a103a37b5b2b760a11b60648201526084016105a0565b60006110e583610b13565b9050806001600160a01b0316846001600160a01b031614806111205750836001600160a01b03166111158461052b565b6001600160a01b0316145b8061115057506001600160a01b03808216600090815260ce602090815260408083209388168352929052205460ff165b949350505050565b826001600160a01b031661116b82610b13565b6001600160a01b0316146111cf5760405162461bcd60e51b815260206004820152602560248201527f4552433732313a207472616e736665722066726f6d20696e636f72726563742060448201526437bbb732b960d91b60648201526084016105a0565b6001600160a01b0382166112315760405162461bcd60e51b8152602060048201526024808201527f4552433732313a207472616e7366657220746f20746865207a65726f206164646044820152637265737360e01b60648201526084016105a0565b61123c838383611908565b611247600082610ff3565b6001600160a01b038316600090815260cc60205260408120805460019290611270908490612860565b90915550506001600160a01b038216600090815260cc6020526040812080546001929061129e908490612877565b9091555050600081815260cb602052604080822080546001600160a01b0319166001600160a01b0386811691821790925591518493918716917fddf252ad1be2c89b69c2b068fc378daa952ba7f163c4a11628f55a4df523b3ef91a4505050565b6113098282610cd5565b61084457611321816001600160a01b03166014611913565b61132c836020611913565b60405160200161133d92919061288f565b60408051601f198184030181529082905262461bcd60e51b82526105a091600401612480565b61136d8282611aaf565b60008281526097602052604090206106d69082611b35565b61138f8282611b4a565b60008281526097602052604090206106d69082611bb1565b60006113b282610b13565b90506113c081600084611908565b6113cb600083610ff3565b6001600160a01b038116600090815260cc602052604081208054600192906113f4908490612860565b9091555050600082815260cb602052604080822080546001600160a01b0319169055518391906001600160a01b038416907fddf252ad1be2c89b69c2b068fc378daa952ba7f163c4a11628f55a4df523b3ef908390a45050565b6001600160a01b0382166114a45760405162461bcd60e51b815260206004820181905260248201527f4552433732313a206d696e7420746f20746865207a65726f206164647265737360448201526064016105a0565b600081815260cb60205260409020546001600160a01b0316156115095760405162461bcd60e51b815260206004820152601c60248201527f4552433732313a20746f6b656e20616c7265616479206d696e7465640000000060448201526064016105a0565b61151560008383611908565b6001600160a01b038216600090815260cc6020526040812080546001929061153e908490612877565b9091555050600081815260cb602052604080822080546001600160a01b0319166001600160a01b03861690811790915590518392907fddf252ad1be2c89b69c2b068fc378daa952ba7f163c4a11628f55a4df523b3ef908290a45050565b61084482826040516024016115b2929190612904565b60408051601f198184030181529190526020810180516001600160e01b03166309710a9d60e41b179052611bc6565b604080516001600160a01b0385811660248301528416604482015260648082018490528251808303909101815260849091019091526020810180516001600160e01b03166323b872dd60e01b179052610d4c908590611be7565b6000610cce8383611cb9565b816001600160a01b0316836001600160a01b031614156116a95760405162461bcd60e51b815260206004820152601960248201527f4552433732313a20617070726f766520746f2063616c6c65720000000000000060448201526064016105a0565b6001600160a01b03838116600081815260ce6020908152604080832094871680845294825291829020805460ff191686151590811790915591519182527f17307eab39ab6107e8899845ad3d59bd9653f200f220920489ca2b5937696c31910160405180910390a3505050565b611721848484611158565b61172d84848484611ce3565b610d4c5760405162461bcd60e51b81526004016105a090612926565b600054610100900460ff166117705760405162461bcd60e51b81526004016105a090612978565b565b600054610100900460ff166117995760405162461bcd60e51b81526004016105a090612978565b81516117ac9060c990602085019061235c565b5080516106d69060ca90602084019061235c565b6060816117e45750506040805180820190915260018152600360fc1b602082015290565b8160005b811561180e57806117f8816127f7565b91506118079050600a836129d9565b91506117e8565b60008167ffffffffffffffff811115611829576118296125d9565b6040519080825280601f01601f191660200182016040528015611853576020820181803683370190505b5090505b841561115057611868600183612860565b9150611875600a866129ed565b611880906030612877565b60f81b818381518110611895576118956127cb565b60200101906001600160f81b031916908160001a9053506118b7600a866129d9565b9450611857565b6000610493825490565b60006001600160e01b031982166380ac58cd60e01b14806118f957506001600160e01b03198216635b5e139f60e01b145b80610493575061049382611df0565b6106d6838383611e15565b60606000611922836002612812565b61192d906002612877565b67ffffffffffffffff811115611945576119456125d9565b6040519080825280601f01601f19166020018201604052801561196f576020820181803683370190505b509050600360fc1b8160008151811061198a5761198a6127cb565b60200101906001600160f81b031916908160001a905350600f60fb1b816001815181106119b9576119b96127cb565b60200101906001600160f81b031916908160001a90535060006119dd846002612812565b6119e8906001612877565b90505b6001811115611a60576f181899199a1a9b1b9c1cb0b131b232b360811b85600f1660108110611a1c57611a1c6127cb565b1a60f81b828281518110611a3257611a326127cb565b60200101906001600160f81b031916908160001a90535060049490941c93611a5981612a01565b90506119eb565b508315610cce5760405162461bcd60e51b815260206004820181905260248201527f537472696e67733a20686578206c656e67746820696e73756666696369656e7460448201526064016105a0565b611ab98282610cd5565b6108445760008281526065602090815260408083206001600160a01b03851684529091529020805460ff19166001179055611af13390565b6001600160a01b0316816001600160a01b0316837f2f8788117e7eff1d82e926ec794901d17c78024a50270940304540a733656f0d60405160405180910390a45050565b6000610cce836001600160a01b038416611ecf565b611b548282610cd5565b156108445760008281526065602090815260408083206001600160a01b0385168085529252808320805460ff1916905551339285917ff6391f5c32d9c69d2a47ea670b442974b53935d1edc7fd64eb21e047a839171b9190a45050565b6000610cce836001600160a01b038416611f1e565b80516a636f6e736f6c652e6c6f67602083016000808483855afa5050505050565b6000611c3c826040518060400160405280602081526020017f5361666545524332303a206c6f772d6c6576656c2063616c6c206661696c6564815250856001600160a01b03166120119092919063ffffffff16565b8051909150156106d65780806020019051810190611c5a9190612a18565b6106d65760405162461bcd60e51b815260206004820152602a60248201527f5361666545524332303a204552433230206f7065726174696f6e20646964206e6044820152691bdd081cdd58d8d9595960b21b60648201526084016105a0565b6000826000018281548110611cd057611cd06127cb565b9060005260206000200154905092915050565b60006001600160a01b0384163b15611de557604051630a85bd0160e11b81526001600160a01b0385169063150b7a0290611d27903390899088908890600401612a35565b602060405180830381600087803b158015611d4157600080fd5b505af1925050508015611d71575060408051601f3d908101601f19168201909252611d6e91810190612a72565b60015b611dcb573d808015611d9f576040519150601f19603f3d011682016040523d82523d6000602084013e611da4565b606091505b508051611dc35760405162461bcd60e51b81526004016105a090612926565b805181602001fd5b6001600160e01b031916630a85bd0160e11b149050611150565b506001949350505050565b60006001600160e01b03198216635a05180f60e01b1480610493575061049382612020565b6001600160a01b038316611e7257611e6d8161012f8054600083815261013060205260408120829055600182018355919091527f232da9e50dad2971456a78fb5cd6ff6b75019984d6e918139ce990999420f9790155565b611e95565b816001600160a01b0316836001600160a01b031614611e9557611e958382612055565b6001600160a01b038216611eac576106d6816120f7565b826001600160a01b0316826001600160a01b0316146106d6576106d682826121ac565b6000818152600183016020526040812054611f1657508154600181810184556000848152602080822090930184905584548482528286019093526040902091909155610493565b506000610493565b60008181526001830160205260408120548015612007576000611f42600183612860565b8554909150600090611f5690600190612860565b9050818114611fbb576000866000018281548110611f7657611f766127cb565b9060005260206000200154905080876000018481548110611f9957611f996127cb565b6000918252602080832090910192909255918252600188019052604090208390555b8554869080611fcc57611fcc612a8f565b600190038181906000526020600020016000905590558560010160008681526020019081526020016000206000905560019350505050610493565b6000915050610493565b606061115084846000856121f2565b60006001600160e01b03198216637965db0b60e01b148061049357506301ffc9a760e01b6001600160e01b0319831614610493565b6000600161206284610c2f565b61206c9190612860565b600083815261012e60205260409020549091508082146120c2576001600160a01b038416600090815261012d60209081526040808320858452825280832054848452818420819055835261012e90915290208190555b50600091825261012e602090815260408084208490556001600160a01b03909416835261012d81528383209183525290812055565b61012f5460009061210a90600190612860565b6000838152610130602052604081205461012f8054939450909284908110612134576121346127cb565b906000526020600020015490508061012f8381548110612156576121566127cb565b6000918252602080832090910192909255828152610130909152604080822084905585825281205561012f80548061219057612190612a8f565b6001900381819060005260206000200160009055905550505050565b60006121b783610c2f565b6001600160a01b03909316600090815261012d60209081526040808320868452825280832085905593825261012e9052919091209190915550565b6060824710156122535760405162461bcd60e51b815260206004820152602660248201527f416464726573733a20696e73756666696369656e742062616c616e636520666f6044820152651c8818d85b1b60d21b60648201526084016105a0565b6001600160a01b0385163b6122aa5760405162461bcd60e51b815260206004820152601d60248201527f416464726573733a2063616c6c20746f206e6f6e2d636f6e747261637400000060448201526064016105a0565b600080866001600160a01b031685876040516122c69190612aa5565b60006040518083038185875af1925050503d8060008114612303576040519150601f19603f3d011682016040523d82523d6000602084013e612308565b606091505b5091509150612318828286612323565b979650505050505050565b60608315612332575081610cce565b8251156123425782518084602001fd5b8160405162461bcd60e51b81526004016105a09190612480565b8280546123689061273f565b90600052602060002090601f01602090048101928261238a57600085556123d0565b82601f106123a357805160ff19168380011785556123d0565b828001600101855582156123d0579182015b828111156123d05782518255916020019190600101906123b5565b506123dc9291506123e0565b5090565b5b808211156123dc57600081556001016123e1565b6001600160e01b0319811681146108da57600080fd5b60006020828403121561241d57600080fd5b8135610cce816123f5565b60005b8381101561244357818101518382015260200161242b565b83811115610d4c5750506000910152565b6000815180845261246c816020860160208601612428565b601f01601f19169290920160200192915050565b602081526000610cce6020830184612454565b6000602082840312156124a557600080fd5b5035919050565b6001600160a01b03811681146108da57600080fd5b600080604083850312156124d457600080fd5b82356124df816124ac565b946020939093013593505050565b60008060006060848603121561250257600080fd5b833561250d816124ac565b9250602084013561251d816124ac565b929592945050506040919091013590565b6000806040838503121561254157600080fd5b823591506020830135612553816124ac565b809150509250929050565b60006020828403121561257057600080fd5b8135610cce816124ac565b6000806040838503121561258e57600080fd5b50508035926020909101359150565b80151581146108da57600080fd5b600080604083850312156125be57600080fd5b82356125c9816124ac565b915060208301356125538161259d565b634e487b7160e01b600052604160045260246000fd5b6000806000806080858703121561260557600080fd5b8435612610816124ac565b93506020850135612620816124ac565b925060408501359150606085013567ffffffffffffffff8082111561264457600080fd5b818701915087601f83011261265857600080fd5b81358181111561266a5761266a6125d9565b604051601f8201601f19908116603f01168101908382118183101715612692576126926125d9565b816040528281528a60208487010111156126ab57600080fd5b82602086016020830137600060208483010152809550505050505092959194509250565b6000806000606084860312156126e457600080fd5b83356126ef816124ac565b9250602084013591506040840135612706816124ac565b809150509250925092565b6000806040838503121561272457600080fd5b823561272f816124ac565b91506020830135612553816124ac565b600181811c9082168061275357607f821691505b6020821081141561277457634e487b7160e01b600052602260045260246000fd5b50919050565b60208082526031908201527f4552433732313a207472616e736665722063616c6c6572206973206e6f74206f6040820152701ddb995c881b9bdc88185c1c1c9bdd9959607a1b606082015260800190565b634e487b7160e01b600052603260045260246000fd5b634e487b7160e01b600052601160045260246000fd5b600060001982141561280b5761280b6127e1565b5060010190565b600081600019048311821515161561282c5761282c6127e1565b500290565b60008351612843818460208801612428565b835190830190612857818360208801612428565b01949350505050565b600082821015612872576128726127e1565b500390565b6000821982111561288a5761288a6127e1565b500190565b7f416363657373436f6e74726f6c3a206163636f756e74200000000000000000008152600083516128c7816017850160208801612428565b7001034b99036b4b9b9b4b733903937b6329607d1b60179184019182015283516128f8816028840160208801612428565b01602801949350505050565b6040815260006129176040830185612454565b90508260208301529392505050565b60208082526032908201527f4552433732313a207472616e7366657220746f206e6f6e20455243373231526560408201527131b2b4bb32b91034b6b83632b6b2b73a32b960711b606082015260800190565b6020808252602b908201527f496e697469616c697a61626c653a20636f6e7472616374206973206e6f74206960408201526a6e697469616c697a696e6760a81b606082015260800190565b634e487b7160e01b600052601260045260246000fd5b6000826129e8576129e86129c3565b500490565b6000826129fc576129fc6129c3565b500690565b600081612a1057612a106127e1565b506000190190565b600060208284031215612a2a57600080fd5b8151610cce8161259d565b6001600160a01b0385811682528416602082015260408101839052608060608201819052600090612a6890830184612454565b9695505050505050565b600060208284031215612a8457600080fd5b8151610cce816123f5565b634e487b7160e01b600052603160045260246000fd5b60008251612ab7818460208701612428565b919091019291505056fea2646970667358221220398f8080ad60d690d88786b87172eec533932e186aa2a64762d59724e8c27cd364736f6c63430008090033",
  "devdoc": {
    "kind": "dev",
    "methods": {
      "approve(address,uint256)": {
        "details": "See {IERC721-approve}."
      },
      "balanceOf(address)": {
        "details": "See {IERC721-balanceOf}."
      },
      "burn(uint256)": {
        "details": "Burns `tokenId`. See {ERC721-_burn}. Requirements: - The caller must own `tokenId` or be an approved operator."
      },
      "getApproved(uint256)": {
        "details": "See {IERC721-getApproved}."
      },
      "getRoleAdmin(bytes32)": {
        "details": "Returns the admin role that controls `role`. See {grantRole} and {revokeRole}. To change a role's admin, use {_setRoleAdmin}."
      },
      "getRoleMember(bytes32,uint256)": {
        "details": "Returns one of the accounts that have `role`. `index` must be a value between 0 and {getRoleMemberCount}, non-inclusive. Role bearers are not sorted in any particular way, and their ordering may change at any point. WARNING: When using {getRoleMember} and {getRoleMemberCount}, make sure you perform all queries on the same block. See the following https://forum.openzeppelin.com/t/iterating-over-elements-on-enumerableset-in-openzeppelin-contracts/2296[forum post] for more information."
      },
      "getRoleMemberCount(bytes32)": {
        "details": "Returns the number of accounts that have `role`. Can be used together with {getRoleMember} to enumerate all bearers of a role."
      },
      "grantRole(bytes32,address)": {
        "details": "Grants `role` to `account`. If `account` had not been already granted `role`, emits a {RoleGranted} event. Requirements: - the caller must have ``role``'s admin role."
      },
      "hasRole(bytes32,address)": {
        "details": "Returns `true` if `account` has been granted `role`."
      },
      "isApprovedForAll(address,address)": {
        "details": "See {IERC721-isApprovedForAll}."
      },
      "name()": {
        "details": "See {IERC721Metadata-name}."
      },
      "ownerOf(uint256)": {
        "details": "See {IERC721-ownerOf}."
      },
      "renounceRole(bytes32,address)": {
        "details": "Revokes `role` from the calling account. Roles are often managed via {grantRole} and {revokeRole}: this function's purpose is to provide a mechanism for accounts to lose their privileges if they are compromised (such as when a trusted device is misplaced). If the calling account had been revoked `role`, emits a {RoleRevoked} event. Requirements: - the caller must be `account`."
      },
      "revokeRole(bytes32,address)": {
        "details": "Revokes `role` from `account`. If `account` had been granted `role`, emits a {RoleRevoked} event. Requirements: - the caller must have ``role``'s admin role."
      },
      "safeTransferFrom(address,address,uint256)": {
        "details": "See {IERC721-safeTransferFrom}."
      },
      "safeTransferFrom(address,address,uint256,bytes)": {
        "details": "See {IERC721-safeTransferFrom}."
      },
      "setApprovalForAll(address,bool)": {
        "details": "See {IERC721-setApprovalForAll}."
      },
      "symbol()": {
        "details": "See {IERC721Metadata-symbol}."
      },
      "tokenByIndex(uint256)": {
        "details": "See {IERC721Enumerable-tokenByIndex}."
      },
      "tokenOfOwnerByIndex(address,uint256)": {
        "details": "See {IERC721Enumerable-tokenOfOwnerByIndex}."
      },
      "tokenURI(uint256)": {
        "details": "See {IERC721Metadata-tokenURI}."
      },
      "totalSupply()": {
        "details": "See {IERC721Enumerable-totalSupply}."
      },
      "transferFrom(address,address,uint256)": {
        "details": "See {IERC721-transferFrom}."
      }
    },
    "version": 1
  },
  "userdoc": {
    "kind": "user",
    "methods": {},
    "version": 1
  },
  "storageLayout": {
    "storage": [
      {
        "astId": 1091,
        "contract": "contracts/HeroBoxV2.sol:HeroBoxV2",
        "label": "_initialized",
        "offset": 0,
        "slot": "0",
        "type": "t_bool"
      },
      {
        "astId": 1094,
        "contract": "contracts/HeroBoxV2.sol:HeroBoxV2",
        "label": "_initializing",
        "offset": 1,
        "slot": "0",
        "type": "t_bool"
      },
      {
        "astId": 3371,
        "contract": "contracts/HeroBoxV2.sol:HeroBoxV2",
        "label": "__gap",
        "offset": 0,
        "slot": "1",
        "type": "t_array(t_uint256)50_storage"
      },
      {
        "astId": 3752,
        "contract": "contracts/HeroBoxV2.sol:HeroBoxV2",
        "label": "__gap",
        "offset": 0,
        "slot": "51",
        "type": "t_array(t_uint256)50_storage"
      },
      {
        "astId": 184,
        "contract": "contracts/HeroBoxV2.sol:HeroBoxV2",
        "label": "_roles",
        "offset": 0,
        "slot": "101",
        "type": "t_mapping(t_bytes32,t_struct(RoleData)179_storage)"
      },
      {
        "astId": 472,
        "contract": "contracts/HeroBoxV2.sol:HeroBoxV2",
        "label": "__gap",
        "offset": 0,
        "slot": "102",
        "type": "t_array(t_uint256)49_storage"
      },
      {
        "astId": 33,
        "contract": "contracts/HeroBoxV2.sol:HeroBoxV2",
        "label": "_roleMembers",
        "offset": 0,
        "slot": "151",
        "type": "t_mapping(t_bytes32,t_struct(AddressSet)4077_storage)"
      },
      {
        "astId": 143,
        "contract": "contracts/HeroBoxV2.sol:HeroBoxV2",
        "label": "__gap",
        "offset": 0,
        "slot": "152",
        "type": "t_array(t_uint256)49_storage"
      },
      {
        "astId": 1625,
        "contract": "contracts/HeroBoxV2.sol:HeroBoxV2",
        "label": "_name",
        "offset": 0,
        "slot": "201",
        "type": "t_string_storage"
      },
      {
        "astId": 1627,
        "contract": "contracts/HeroBoxV2.sol:HeroBoxV2",
        "label": "_symbol",
        "offset": 0,
        "slot": "202",
        "type": "t_string_storage"
      },
      {
        "astId": 1631,
        "contract": "contracts/HeroBoxV2.sol:HeroBoxV2",
        "label": "_owners",
        "offset": 0,
        "slot": "203",
        "type": "t_mapping(t_uint256,t_address)"
      },
      {
        "astId": 1635,
        "contract": "contracts/HeroBoxV2.sol:HeroBoxV2",
        "label": "_balances",
        "offset": 0,
        "slot": "204",
        "type": "t_mapping(t_address,t_uint256)"
      },
      {
        "astId": 1639,
        "contract": "contracts/HeroBoxV2.sol:HeroBoxV2",
        "label": "_tokenApprovals",
        "offset": 0,
        "slot": "205",
        "type": "t_mapping(t_uint256,t_address)"
      },
      {
        "astId": 1645,
        "contract": "contracts/HeroBoxV2.sol:HeroBoxV2",
        "label": "_operatorApprovals",
        "offset": 0,
        "slot": "206",
        "type": "t_mapping(t_address,t_mapping(t_address,t_bool))"
      },
      {
        "astId": 2486,
        "contract": "contracts/HeroBoxV2.sol:HeroBoxV2",
        "label": "__gap",
        "offset": 0,
        "slot": "207",
        "type": "t_array(t_uint256)44_storage"
      },
      {
        "astId": 2670,
        "contract": "contracts/HeroBoxV2.sol:HeroBoxV2",
        "label": "__gap",
        "offset": 0,
        "slot": "251",
        "type": "t_array(t_uint256)50_storage"
      },
      {
        "astId": 2701,
        "contract": "contracts/HeroBoxV2.sol:HeroBoxV2",
        "label": "_ownedTokens",
        "offset": 0,
        "slot": "301",
        "type": "t_mapping(t_address,t_mapping(t_uint256,t_uint256))"
      },
      {
        "astId": 2705,
        "contract": "contracts/HeroBoxV2.sol:HeroBoxV2",
        "label": "_ownedTokensIndex",
        "offset": 0,
        "slot": "302",
        "type": "t_mapping(t_uint256,t_uint256)"
      },
      {
        "astId": 2708,
        "contract": "contracts/HeroBoxV2.sol:HeroBoxV2",
        "label": "_allTokens",
        "offset": 0,
        "slot": "303",
        "type": "t_array(t_uint256)dyn_storage"
      },
      {
        "astId": 2712,
        "contract": "contracts/HeroBoxV2.sol:HeroBoxV2",
        "label": "_allTokensIndex",
        "offset": 0,
        "slot": "304",
        "type": "t_mapping(t_uint256,t_uint256)"
      },
      {
        "astId": 3028,
        "contract": "contracts/HeroBoxV2.sol:HeroBoxV2",
        "label": "__gap",
        "offset": 0,
        "slot": "305",
        "type": "t_array(t_uint256)46_storage"
      },
      {
        "astId": 4682,
        "contract": "contracts/HeroBoxV2.sol:HeroBoxV2",
        "label": "_tokenIdTracker",
        "offset": 0,
        "slot": "351",
        "type": "t_struct(Counter)3378_storage"
      },
      {
        "astId": 4685,
        "contract": "contracts/HeroBoxV2.sol:HeroBoxV2",
        "label": "currToken",
        "offset": 0,
        "slot": "352",
        "type": "t_contract(IERC20Upgradeable)1372"
      },
      {
        "astId": 4687,
        "contract": "contracts/HeroBoxV2.sol:HeroBoxV2",
        "label": "nftPrice",
        "offset": 0,
        "slot": "353",
        "type": "t_uint256"
      },
      {
        "astId": 4689,
        "contract": "contracts/HeroBoxV2.sol:HeroBoxV2",
        "label": "tokenReceiveAddress",
        "offset": 0,
        "slot": "354",
        "type": "t_address"
      }
    ],
    "types": {
      "t_address": {
        "encoding": "inplace",
        "label": "address",
        "numberOfBytes": "20"
      },
      "t_array(t_bytes32)dyn_storage": {
        "base": "t_bytes32",
        "encoding": "dynamic_array",
        "label": "bytes32[]",
        "numberOfBytes": "32"
      },
      "t_array(t_uint256)44_storage": {
        "base": "t_uint256",
        "encoding": "inplace",
        "label": "uint256[44]",
        "numberOfBytes": "1408"
      },
      "t_array(t_uint256)46_storage": {
        "base": "t_uint256",
        "encoding": "inplace",
        "label": "uint256[46]",
        "numberOfBytes": "1472"
      },
      "t_array(t_uint256)49_storage": {
        "base": "t_uint256",
        "encoding": "inplace",
        "label": "uint256[49]",
        "numberOfBytes": "1568"
      },
      "t_array(t_uint256)50_storage": {
        "base": "t_uint256",
        "encoding": "inplace",
        "label": "uint256[50]",
        "numberOfBytes": "1600"
      },
      "t_array(t_uint256)dyn_storage": {
        "base": "t_uint256",
        "encoding": "dynamic_array",
        "label": "uint256[]",
        "numberOfBytes": "32"
      },
      "t_bool": {
        "encoding": "inplace",
        "label": "bool",
        "numberOfBytes": "1"
      },
      "t_bytes32": {
        "encoding": "inplace",
        "label": "bytes32",
        "numberOfBytes": "32"
      },
      "t_contract(IERC20Upgradeable)1372": {
        "encoding": "inplace",
        "label": "contract IERC20Upgradeable",
        "numberOfBytes": "20"
      },
      "t_mapping(t_address,t_bool)": {
        "encoding": "mapping",
        "key": "t_address",
        "label": "mapping(address => bool)",
        "numberOfBytes": "32",
        "value": "t_bool"
      },
      "t_mapping(t_address,t_mapping(t_address,t_bool))": {
        "encoding": "mapping",
        "key": "t_address",
        "label": "mapping(address => mapping(address => bool))",
        "numberOfBytes": "32",
        "value": "t_mapping(t_address,t_bool)"
      },
      "t_mapping(t_address,t_mapping(t_uint256,t_uint256))": {
        "encoding": "mapping",
        "key": "t_address",
        "label": "mapping(address => mapping(uint256 => uint256))",
        "numberOfBytes": "32",
        "value": "t_mapping(t_uint256,t_uint256)"
      },
      "t_mapping(t_address,t_uint256)": {
        "encoding": "mapping",
        "key": "t_address",
        "label": "mapping(address => uint256)",
        "numberOfBytes": "32",
        "value": "t_uint256"
      },
      "t_mapping(t_bytes32,t_struct(AddressSet)4077_storage)": {
        "encoding": "mapping",
        "key": "t_bytes32",
        "label": "mapping(bytes32 => struct EnumerableSetUpgradeable.AddressSet)",
        "numberOfBytes": "32",
        "value": "t_struct(AddressSet)4077_storage"
      },
      "t_mapping(t_bytes32,t_struct(RoleData)179_storage)": {
        "encoding": "mapping",
        "key": "t_bytes32",
        "label": "mapping(bytes32 => struct AccessControlUpgradeable.RoleData)",
        "numberOfBytes": "32",
        "value": "t_struct(RoleData)179_storage"
      },
      "t_mapping(t_bytes32,t_uint256)": {
        "encoding": "mapping",
        "key": "t_bytes32",
        "label": "mapping(bytes32 => uint256)",
        "numberOfBytes": "32",
        "value": "t_uint256"
      },
      "t_mapping(t_uint256,t_address)": {
        "encoding": "mapping",
        "key": "t_uint256",
        "label": "mapping(uint256 => address)",
        "numberOfBytes": "32",
        "value": "t_address"
      },
      "t_mapping(t_uint256,t_uint256)": {
        "encoding": "mapping",
        "key": "t_uint256",
        "label": "mapping(uint256 => uint256)",
        "numberOfBytes": "32",
        "value": "t_uint256"
      },
      "t_string_storage": {
        "encoding": "bytes",
        "label": "string",
        "numberOfBytes": "32"
      },
      "t_struct(AddressSet)4077_storage": {
        "encoding": "inplace",
        "label": "struct EnumerableSetUpgradeable.AddressSet",
        "members": [
          {
            "astId": 4076,
            "contract": "contracts/HeroBoxV2.sol:HeroBoxV2",
            "label": "_inner",
            "offset": 0,
            "slot": "0",
            "type": "t_struct(Set)3776_storage"
          }
        ],
        "numberOfBytes": "64"
      },
      "t_struct(Counter)3378_storage": {
        "encoding": "inplace",
        "label": "struct CountersUpgradeable.Counter",
        "members": [
          {
            "astId": 3377,
            "contract": "contracts/HeroBoxV2.sol:HeroBoxV2",
            "label": "_value",
            "offset": 0,
            "slot": "0",
            "type": "t_uint256"
          }
        ],
        "numberOfBytes": "32"
      },
      "t_struct(RoleData)179_storage": {
        "encoding": "inplace",
        "label": "struct AccessControlUpgradeable.RoleData",
        "members": [
          {
            "astId": 176,
            "contract": "contracts/HeroBoxV2.sol:HeroBoxV2",
            "label": "members",
            "offset": 0,
            "slot": "0",
            "type": "t_mapping(t_address,t_bool)"
          },
          {
            "astId": 178,
            "contract": "contracts/HeroBoxV2.sol:HeroBoxV2",
            "label": "adminRole",
            "offset": 0,
            "slot": "1",
            "type": "t_bytes32"
          }
        ],
        "numberOfBytes": "64"
      },
      "t_struct(Set)3776_storage": {
        "encoding": "inplace",
        "label": "struct EnumerableSetUpgradeable.Set",
        "members": [
          {
            "astId": 3771,
            "contract": "contracts/HeroBoxV2.sol:HeroBoxV2",
            "label": "_values",
            "offset": 0,
            "slot": "0",
            "type": "t_array(t_bytes32)dyn_storage"
          },
          {
            "astId": 3775,
            "contract": "contracts/HeroBoxV2.sol:HeroBoxV2",
            "label": "_indexes",
            "offset": 0,
            "slot": "1",
            "type": "t_mapping(t_bytes32,t_uint256)"
          }
        ],
        "numberOfBytes": "64"
      },
      "t_uint256": {
        "encoding": "inplace",
        "label": "uint256",
        "numberOfBytes": "32"
      }
    }
  }
}