{
  "address": "0xb43d0bbbbbec59558426840816967cb4f9acb55a",
  "abi": [
    {
      "inputs": [],
      "stateMutability": "nonpayable",
      "type": "constructor"
    },
    {
      "anonymous": false,
      "inputs": [
        {
          "indexed": false,
          "internalType": "address",
          "name": "previousAdmin",
          "type": "address"
        },
        {
          "indexed": false,
          "internalType": "address",
          "name": "newAdmin",
          "type": "address"
        }
      ],
      "name": "AdminChanged",
      "type": "event"
    },
    {
      "anonymous": false,
      "inputs": [
        {
          "indexed": true,
          "internalType": "address",
          "name": "owner",
          "type": "address"
        },
        {
          "indexed": true,
          "internalType": "address",
          "name": "approved",
          "type": "address"
        },
        {
          "indexed": true,
          "internalType": "uint256",
          "name": "tokenId",
          "type": "uint256"
        }
      ],
      "name": "Approval",
      "type": "event"
    },
    {
      "anonymous": false,
      "inputs": [
        {
          "indexed": true,
          "internalType": "address",
          "name": "owner",
          "type": "address"
        },
        {
          "indexed": true,
          "internalType": "address",
          "name": "operator",
          "type": "address"
        },
        {
          "indexed": false,
          "internalType": "bool",
          "name": "approved",
          "type": "bool"
        }
      ],
      "name": "ApprovalForAll",
      "type": "event"
    },
    {
      "anonymous": false,
      "inputs": [
        {
          "indexed": true,
          "internalType": "address",
          "name": "beacon",
          "type": "address"
        }
      ],
      "name": "BeaconUpgraded",
      "type": "event"
    },
    {
      "anonymous": false,
      "inputs": [
        {
          "indexed": false,
          "internalType": "address",
          "name": "_to",
          "type": "address"
        },
        {
          "indexed": false,
          "internalType": "uint256",
          "name": "tokenid_",
          "type": "uint256"
        }
      ],
      "name": "Mint",
      "type": "event"
    },
    {
      "anonymous": false,
      "inputs": [
        {
          "indexed": true,
          "internalType": "address",
          "name": "_to",
          "type": "address"
        },
        {
          "indexed": false,
          "internalType": "uint256",
          "name": "_amount",
          "type": "uint256"
        }
      ],
      "name": "MintMulti",
      "type": "event"
    },
    {
      "anonymous": false,
      "inputs": [
        {
          "indexed": true,
          "internalType": "address",
          "name": "previousOwner",
          "type": "address"
        },
        {
          "indexed": true,
          "internalType": "address",
          "name": "newOwner",
          "type": "address"
        }
      ],
      "name": "OwnershipTransferred",
      "type": "event"
    },
    {
      "anonymous": false,
      "inputs": [
        {
          "indexed": true,
          "internalType": "bytes32",
          "name": "role",
          "type": "bytes32"
        },
        {
          "indexed": true,
          "internalType": "bytes32",
          "name": "previousAdminRole",
          "type": "bytes32"
        },
        {
          "indexed": true,
          "internalType": "bytes32",
          "name": "newAdminRole",
          "type": "bytes32"
        }
      ],
      "name": "RoleAdminChanged",
      "type": "event"
    },
    {
      "anonymous": false,
      "inputs": [
        {
          "indexed": true,
          "internalType": "bytes32",
          "name": "role",
          "type": "bytes32"
        },
        {
          "indexed": true,
          "internalType": "address",
          "name": "account",
          "type": "address"
        },
        {
          "indexed": true,
          "internalType": "address",
          "name": "sender",
          "type": "address"
        }
      ],
      "name": "RoleGranted",
      "type": "event"
    },
    {
      "anonymous": false,
      "inputs": [
        {
          "indexed": true,
          "internalType": "bytes32",
          "name": "role",
          "type": "bytes32"
        },
        {
          "indexed": true,
          "internalType": "address",
          "name": "account",
          "type": "address"
        },
        {
          "indexed": true,
          "internalType": "address",
          "name": "sender",
          "type": "address"
        }
      ],
      "name": "RoleRevoked",
      "type": "event"
    },
    {
      "anonymous": false,
      "inputs": [
        {
          "indexed": true,
          "internalType": "address",
          "name": "from",
          "type": "address"
        },
        {
          "indexed": true,
          "internalType": "address",
          "name": "to",
          "type": "address"
        },
        {
          "indexed": true,
          "internalType": "uint256",
          "name": "tokenId",
          "type": "uint256"
        }
      ],
      "name": "Transfer",
      "type": "event"
    },
    {
      "anonymous": false,
      "inputs": [
        {
          "indexed": true,
          "internalType": "address",
          "name": "implementation",
          "type": "address"
        }
      ],
      "name": "Upgraded",
      "type": "event"
    },
    {
      "inputs": [],
      "name": "DEFAULT_ADMIN_ROLE",
      "outputs": [
        {
          "internalType": "bytes32",
          "name": "",
          "type": "bytes32"
        }
      ],
      "stateMutability": "view",
      "type": "function"
    },
    {
      "inputs": [
        {
          "internalType": "address",
          "name": "to",
          "type": "address"
        },
        {
          "internalType": "uint256",
          "name": "tokenId",
          "type": "uint256"
        }
      ],
      "name": "approve",
      "outputs": [],
      "stateMutability": "nonpayable",
      "type": "function"
    },
    {
      "inputs": [
        {
          "internalType": "address",
          "name": "owner",
          "type": "address"
        }
      ],
      "name": "balanceOf",
      "outputs": [
        {
          "internalType": "uint256",
          "name": "",
          "type": "uint256"
        }
      ],
      "stateMutability": "view",
      "type": "function"
    },
    {
      "inputs": [],
      "name": "currToken",
      "outputs": [
        {
          "internalType": "contract IERC20Upgradeable",
          "name": "",
          "type": "address"
        }
      ],
      "stateMutability": "view",
      "type": "function"
    },
    {
      "inputs": [
        {
          "internalType": "uint256",
          "name": "tokenId",
          "type": "uint256"
        }
      ],
      "name": "getApproved",
      "outputs": [
        {
          "internalType": "address",
          "name": "",
          "type": "address"
        }
      ],
      "stateMutability": "view",
      "type": "function"
    },
    {
      "inputs": [
        {
          "internalType": "bytes32",
          "name": "role",
          "type": "bytes32"
        }
      ],
      "name": "getRoleAdmin",
      "outputs": [
        {
          "internalType": "bytes32",
          "name": "",
          "type": "bytes32"
        }
      ],
      "stateMutability": "view",
      "type": "function"
    },
    {
      "inputs": [
        {
          "internalType": "bytes32",
          "name": "role",
          "type": "bytes32"
        },
        {
          "internalType": "uint256",
          "name": "index",
          "type": "uint256"
        }
      ],
      "name": "getRoleMember",
      "outputs": [
        {
          "internalType": "address",
          "name": "",
          "type": "address"
        }
      ],
      "stateMutability": "view",
      "type": "function"
    },
    {
      "inputs": [
        {
          "internalType": "bytes32",
          "name": "role",
          "type": "bytes32"
        }
      ],
      "name": "getRoleMemberCount",
      "outputs": [
        {
          "internalType": "uint256",
          "name": "",
          "type": "uint256"
        }
      ],
      "stateMutability": "view",
      "type": "function"
    },
    {
      "inputs": [
        {
          "internalType": "bytes32",
          "name": "role",
          "type": "bytes32"
        },
        {
          "internalType": "address",
          "name": "account",
          "type": "address"
        }
      ],
      "name": "grantRole",
      "outputs": [],
      "stateMutability": "nonpayable",
      "type": "function"
    },
    {
      "inputs": [
        {
          "internalType": "bytes32",
          "name": "role",
          "type": "bytes32"
        },
        {
          "internalType": "address",
          "name": "account",
          "type": "address"
        }
      ],
      "name": "hasRole",
      "outputs": [
        {
          "internalType": "bool",
          "name": "",
          "type": "bool"
        }
      ],
      "stateMutability": "view",
      "type": "function"
    },
    {
      "inputs": [
        {
          "internalType": "contract IERC20Upgradeable",
          "name": "currToken_",
          "type": "address"
        },
        {
          "internalType": "uint256",
          "name": "nftPrice_",
          "type": "uint256"
        },
        {
          "internalType": "address",
          "name": "tokenReceiveAddress_",
          "type": "address"
        }
      ],
      "name": "initialize",
      "outputs": [],
      "stateMutability": "nonpayable",
      "type": "function"
    },
    {
      "inputs": [
        {
          "internalType": "address",
          "name": "owner",
          "type": "address"
        },
        {
          "internalType": "address",
          "name": "operator",
          "type": "address"
        }
      ],
      "name": "isApprovedForAll",
      "outputs": [
        {
          "internalType": "bool",
          "name": "",
          "type": "bool"
        }
      ],
      "stateMutability": "view",
      "type": "function"
    },
    {
      "inputs": [
        {
          "internalType": "uint256",
          "name": "amount",
          "type": "uint256"
        }
      ],
      "name": "mintMulti",
      "outputs": [],
      "stateMutability": "nonpayable",
      "type": "function"
    },
    {
      "inputs": [],
      "name": "name",
      "outputs": [
        {
          "internalType": "string",
          "name": "",
          "type": "string"
        }
      ],
      "stateMutability": "view",
      "type": "function"
    },
    {
      "inputs": [],
      "name": "nftPrice",
      "outputs": [
        {
          "internalType": "uint256",
          "name": "",
          "type": "uint256"
        }
      ],
      "stateMutability": "view",
      "type": "function"
    },
    {
      "inputs": [],
      "name": "owner",
      "outputs": [
        {
          "internalType": "address",
          "name": "",
          "type": "address"
        }
      ],
      "stateMutability": "view",
      "type": "function"
    },
    {
      "inputs": [
        {
          "internalType": "uint256",
          "name": "tokenId",
          "type": "uint256"
        }
      ],
      "name": "ownerOf",
      "outputs": [
        {
          "internalType": "address",
          "name": "",
          "type": "address"
        }
      ],
      "stateMutability": "view",
      "type": "function"
    },
    {
      "inputs": [],
      "name": "proxiableUUID",
      "outputs": [
        {
          "internalType": "bytes32",
          "name": "",
          "type": "bytes32"
        }
      ],
      "stateMutability": "view",
      "type": "function"
    },
    {
      "inputs": [],
      "name": "renounceOwnership",
      "outputs": [],
      "stateMutability": "nonpayable",
      "type": "function"
    },
    {
      "inputs": [
        {
          "internalType": "bytes32",
          "name": "role",
          "type": "bytes32"
        },
        {
          "internalType": "address",
          "name": "account",
          "type": "address"
        }
      ],
      "name": "renounceRole",
      "outputs": [],
      "stateMutability": "nonpayable",
      "type": "function"
    },
    {
      "inputs": [
        {
          "internalType": "bytes32",
          "name": "role",
          "type": "bytes32"
        },
        {
          "internalType": "address",
          "name": "account",
          "type": "address"
        }
      ],
      "name": "revokeRole",
      "outputs": [],
      "stateMutability": "nonpayable",
      "type": "function"
    },
    {
      "inputs": [
        {
          "internalType": "address",
          "name": "from",
          "type": "address"
        },
        {
          "internalType": "address",
          "name": "to",
          "type": "address"
        },
        {
          "internalType": "uint256",
          "name": "tokenId",
          "type": "uint256"
        }
      ],
      "name": "safeTransferFrom",
      "outputs": [],
      "stateMutability": "nonpayable",
      "type": "function"
    },
    {
      "inputs": [
        {
          "internalType": "address",
          "name": "from",
          "type": "address"
        },
        {
          "internalType": "address",
          "name": "to",
          "type": "address"
        },
        {
          "internalType": "uint256",
          "name": "tokenId",
          "type": "uint256"
        },
        {
          "internalType": "bytes",
          "name": "_data",
          "type": "bytes"
        }
      ],
      "name": "safeTransferFrom",
      "outputs": [],
      "stateMutability": "nonpayable",
      "type": "function"
    },
    {
      "inputs": [
        {
          "internalType": "address",
          "name": "operator",
          "type": "address"
        },
        {
          "internalType": "bool",
          "name": "approved",
          "type": "bool"
        }
      ],
      "name": "setApprovalForAll",
      "outputs": [],
      "stateMutability": "nonpayable",
      "type": "function"
    },
    {
      "inputs": [
        {
          "internalType": "bytes4",
          "name": "interfaceId",
          "type": "bytes4"
        }
      ],
      "name": "supportsInterface",
      "outputs": [
        {
          "internalType": "bool",
          "name": "",
          "type": "bool"
        }
      ],
      "stateMutability": "view",
      "type": "function"
    },
    {
      "inputs": [],
      "name": "symbol",
      "outputs": [
        {
          "internalType": "string",
          "name": "",
          "type": "string"
        }
      ],
      "stateMutability": "view",
      "type": "function"
    },
    {
      "inputs": [
        {
          "internalType": "uint256",
          "name": "index",
          "type": "uint256"
        }
      ],
      "name": "tokenByIndex",
      "outputs": [
        {
          "internalType": "uint256",
          "name": "",
          "type": "uint256"
        }
      ],
      "stateMutability": "view",
      "type": "function"
    },
    {
      "inputs": [
        {
          "internalType": "address",
          "name": "owner",
          "type": "address"
        },
        {
          "internalType": "uint256",
          "name": "index",
          "type": "uint256"
        }
      ],
      "name": "tokenOfOwnerByIndex",
      "outputs": [
        {
          "internalType": "uint256",
          "name": "",
          "type": "uint256"
        }
      ],
      "stateMutability": "view",
      "type": "function"
    },
    {
      "inputs": [],
      "name": "tokenReceiveAddress",
      "outputs": [
        {
          "internalType": "address",
          "name": "",
          "type": "address"
        }
      ],
      "stateMutability": "view",
      "type": "function"
    },
    {
      "inputs": [
        {
          "internalType": "uint256",
          "name": "tokenId",
          "type": "uint256"
        }
      ],
      "name": "tokenURI",
      "outputs": [
        {
          "internalType": "string",
          "name": "",
          "type": "string"
        }
      ],
      "stateMutability": "view",
      "type": "function"
    },
    {
      "inputs": [],
      "name": "totalSupply",
      "outputs": [
        {
          "internalType": "uint256",
          "name": "",
          "type": "uint256"
        }
      ],
      "stateMutability": "view",
      "type": "function"
    },
    {
      "inputs": [
        {
          "internalType": "address",
          "name": "from",
          "type": "address"
        },
        {
          "internalType": "address",
          "name": "to",
          "type": "address"
        },
        {
          "internalType": "uint256",
          "name": "tokenId",
          "type": "uint256"
        }
      ],
      "name": "transferFrom",
      "outputs": [],
      "stateMutability": "nonpayable",
      "type": "function"
    },
    {
      "inputs": [
        {
          "internalType": "address",
          "name": "newOwner",
          "type": "address"
        }
      ],
      "name": "transferOwnership",
      "outputs": [],
      "stateMutability": "nonpayable",
      "type": "function"
    },
    {
      "inputs": [
        {
          "internalType": "address",
          "name": "newImplementation",
          "type": "address"
        }
      ],
      "name": "upgradeTo",
      "outputs": [],
      "stateMutability": "nonpayable",
      "type": "function"
    },
    {
      "inputs": [
        {
          "internalType": "address",
          "name": "newImplementation",
          "type": "address"
        },
        {
          "internalType": "bytes",
          "name": "data",
          "type": "bytes"
        }
      ],
      "name": "upgradeToAndCall",
      "outputs": [],
      "stateMutability": "payable",
      "type": "function"
    }
  ],
  "transactionHash": "0x67e7a06b42db082f80c09483f62a0540b4167a3416315221a6e46bf847c35eaa",
  "args": [],
  "numDeployments": 1,
  "solcInputHash": "88f3a754ea8034a3ed89c998c624871d",
  "bytecode": "0x60a06040523060805234801561001457600080fd5b5060805161343861004c60003960008181610a5e01528181610a9e01528181610b5901528181610b990152610e5c01526134386000f3fe6080604052600436106102045760003560e01c806352d1902d11610118578063a217fddf116100a0578063c87b56dd1161006f578063c87b56dd146105cc578063ca15c873146105ec578063d547741f1461060c578063e985e9c51461062c578063f2fde38b1461067557600080fd5b8063a217fddf14610557578063a22cb4651461056c578063b88d4fde1461058c578063c350a1b5146105ac57600080fd5b806388aac7b4116100e757806388aac7b4146104c25780638da5cb5b146104e35780639010d07c1461050257806391d148541461052257806395d89b411461054257600080fd5b806352d1902d146104585780636352211e1461046d57806370a082311461048d578063715018a6146104ad57600080fd5b8063248a9ca31161019b5780633659cfe61161016a5780633659cfe6146103c557806342842e0e146103e55780634f1ef286146104055780634f6ccce71461041857806351e5d91d1461043857600080fd5b8063248a9ca3146103355780632f2ff15d146103655780632f745c591461038557806336568abe146103a557600080fd5b80630d39fc81116101d75780630d39fc81146102ba5780630ed36832146102df57806318160ddd1461030057806323b872dd1461031557600080fd5b806301ffc9a71461020957806306fdde031461023e578063081812fc14610260578063095ea7b314610298575b600080fd5b34801561021557600080fd5b50610229610224366004612bb6565b610695565b60405190151581526020015b60405180910390f35b34801561024a57600080fd5b506102536106a6565b6040516102359190612c2b565b34801561026c57600080fd5b5061028061027b366004612c3e565b610738565b6040516001600160a01b039091168152602001610235565b3480156102a457600080fd5b506102b86102b3366004612c6c565b6107d2565b005b3480156102c657600080fd5b506102d16101c55481565b604051908152602001610235565b3480156102eb57600080fd5b506101c654610280906001600160a01b031681565b34801561030c57600080fd5b5060fd546102d1565b34801561032157600080fd5b506102b8610330366004612c98565b6108e8565b34801561034157600080fd5b506102d1610350366004612c3e565b60009081526065602052604090206001015490565b34801561037157600080fd5b506102b8610380366004612cd9565b610919565b34801561039157600080fd5b506102d16103a0366004612c6c565b61093f565b3480156103b157600080fd5b506102b86103c0366004612cd9565b6109d5565b3480156103d157600080fd5b506102b86103e0366004612d09565b610a53565b3480156103f157600080fd5b506102b8610400366004612c98565b610b33565b6102b8610413366004612dc9565b610b4e565b34801561042457600080fd5b506102d1610433366004612c3e565b610c1b565b34801561044457600080fd5b506102b8610453366004612c3e565b610cae565b34801561046457600080fd5b506102d1610e4f565b34801561047957600080fd5b50610280610488366004612c3e565b610f02565b34801561049957600080fd5b506102d16104a8366004612d09565b610f79565b3480156104b957600080fd5b506102b8611000565b3480156104ce57600080fd5b506101c454610280906001600160a01b031681565b3480156104ef57600080fd5b50610191546001600160a01b0316610280565b34801561050e57600080fd5b5061028061051d366004612e19565b611037565b34801561052e57600080fd5b5061022961053d366004612cd9565b611056565b34801561054e57600080fd5b50610253611081565b34801561056357600080fd5b506102d1600081565b34801561057857600080fd5b506102b8610587366004612e49565b611090565b34801561059857600080fd5b506102b86105a7366004612e77565b61109b565b3480156105b857600080fd5b506102b86105c7366004612ee3565b6110d3565b3480156105d857600080fd5b506102536105e7366004612c3e565b611233565b3480156105f857600080fd5b506102d1610607366004612c3e565b61131a565b34801561061857600080fd5b506102b8610627366004612cd9565b611331565b34801561063857600080fd5b50610229610647366004612f25565b6001600160a01b03918216600090815260ce6020908152604080832093909416825291909152205460ff1690565b34801561068157600080fd5b506102b8610690366004612d09565b611357565b60006106a0826113f0565b92915050565b606060c980546106b590612f53565b80601f01602080910402602001604051908101604052809291908181526020018280546106e190612f53565b801561072e5780601f106107035761010080835404028352916020019161072e565b820191906000526020600020905b81548152906001019060200180831161071157829003601f168201915b5050505050905090565b600081815260cb60205260408120546001600160a01b03166107b65760405162461bcd60e51b815260206004820152602c60248201527f4552433732313a20617070726f76656420717565727920666f72206e6f6e657860448201526b34b9ba32b73a103a37b5b2b760a11b60648201526084015b60405180910390fd5b50600090815260cd60205260409020546001600160a01b031690565b60006107dd82610f02565b9050806001600160a01b0316836001600160a01b0316141561084b5760405162461bcd60e51b815260206004820152602160248201527f4552433732313a20617070726f76616c20746f2063757272656e74206f776e656044820152603960f91b60648201526084016107ad565b336001600160a01b038216148061086757506108678133610647565b6108d95760405162461bcd60e51b815260206004820152603860248201527f4552433732313a20617070726f76652063616c6c6572206973206e6f74206f7760448201527f6e6572206e6f7220617070726f76656420666f7220616c6c000000000000000060648201526084016107ad565b6108e38383611415565b505050565b6108f23382611483565b61090e5760405162461bcd60e51b81526004016107ad90612f8e565b6108e383838361157a565b6000828152606560205260409020600101546109358133611721565b6108e38383611785565b600061094a83610f79565b82106109ac5760405162461bcd60e51b815260206004820152602b60248201527f455243373231456e756d657261626c653a206f776e657220696e646578206f7560448201526a74206f6620626f756e647360a81b60648201526084016107ad565b506001600160a01b0391909116600090815260fb60209081526040808320938352929052205490565b6001600160a01b0381163314610a455760405162461bcd60e51b815260206004820152602f60248201527f416363657373436f6e74726f6c3a2063616e206f6e6c792072656e6f756e636560448201526e103937b632b9903337b91039b2b63360891b60648201526084016107ad565b610a4f82826117a7565b5050565b306001600160a01b037f0000000000000000000000000000000000000000000000000000000000000000161415610a9c5760405162461bcd60e51b81526004016107ad90612fdf565b7f00000000000000000000000000000000000000000000000000000000000000006001600160a01b0316610ae56000805160206133bc833981519152546001600160a01b031690565b6001600160a01b031614610b0b5760405162461bcd60e51b81526004016107ad9061302b565b610b14816117c9565b60408051600080825260208201909252610b30918391906117f4565b50565b6108e38383836040518060200160405280600081525061109b565b306001600160a01b037f0000000000000000000000000000000000000000000000000000000000000000161415610b975760405162461bcd60e51b81526004016107ad90612fdf565b7f00000000000000000000000000000000000000000000000000000000000000006001600160a01b0316610be06000805160206133bc833981519152546001600160a01b031690565b6001600160a01b031614610c065760405162461bcd60e51b81526004016107ad9061302b565b610c0f826117c9565b610a4f828260016117f4565b6000610c2660fd5490565b8210610c895760405162461bcd60e51b815260206004820152602c60248201527f455243373231456e756d657261626c653a20676c6f62616c20696e646578206f60448201526b7574206f6620626f756e647360a01b60648201526084016107ad565b60fd8281548110610c9c57610c9c613077565b90600052602060002001549050919050565b333214610cf15760405162461bcd60e51b8152602060048201526011602482015270426c696e64626f783a206e6f7420656f6160781b60448201526064016107ad565b60008111610d415760405162461bcd60e51b815260206004820152601860248201527f426c696e64426f783a206d697373696e6720616d6f756e74000000000000000060448201526064016107ad565b60005b81811015610db957610d59336101c35461196e565b6101c35460408051338152602081019290925280517f0f6798a560793a54c3bcfe86a93cde1e73087d944c0ea20544137d41213968859281900390910190a1610da76101c380546001019055565b80610db1816130a3565b915050610d44565b506000816101c554610dcb91906130be565b9050610df660405180604001604052806007815260200166031b7b9ba101e960cd1b81525082611abc565b610e16336101c6546101c4546001600160a01b0390811692911684611b01565b60405182815233907f53dd95d829e31e93d4b97ced80cdb8c1d859de42fc3b07850e70e7f71ceaab359060200160405180910390a25050565b6000306001600160a01b037f00000000000000000000000000000000000000000000000000000000000000001614610eef5760405162461bcd60e51b815260206004820152603860248201527f555550535570677261646561626c653a206d757374206e6f742062652063616c60448201527f6c6564207468726f7567682064656c656761746563616c6c000000000000000060648201526084016107ad565b506000805160206133bc83398151915290565b600081815260cb60205260408120546001600160a01b0316806106a05760405162461bcd60e51b815260206004820152602960248201527f4552433732313a206f776e657220717565727920666f72206e6f6e657869737460448201526832b73a103a37b5b2b760b91b60648201526084016107ad565b60006001600160a01b038216610fe45760405162461bcd60e51b815260206004820152602a60248201527f4552433732313a2062616c616e636520717565727920666f7220746865207a65604482015269726f206164647265737360b01b60648201526084016107ad565b506001600160a01b0316600090815260cc602052604090205490565b610191546001600160a01b0316331461102b5760405162461bcd60e51b81526004016107ad906130dd565b6110356000611b5b565b565b600082815260976020526040812061104f9083611bae565b9392505050565b60009182526065602090815260408084206001600160a01b0393909316845291905290205460ff1690565b606060ca80546106b590612f53565b610a4f338383611bba565b6110a53383611483565b6110c15760405162461bcd60e51b81526004016107ad90612f8e565b6110cd84848484611c89565b50505050565b600054610100900460ff166110ee5760005460ff16156110f2565b303b155b6111555760405162461bcd60e51b815260206004820152602e60248201527f496e697469616c697a61626c653a20636f6e747261637420697320616c72656160448201526d191e481a5b9a5d1a585b1a5e995960921b60648201526084016107ad565b600054610100900460ff16158015611177576000805461ffff19166101011790555b61117f611cbc565b6111cc6040518060400160405280600c81526020016b08aa0964090cae4de4084def60a31b815250604051806040016040528060078152602001660908aa49e849eb60cb1b815250611ce3565b6111d4611cbc565b6111dc611cbc565b6111e4611d31565b6101c480546001600160a01b038087166001600160a01b0319928316179092556101c58590556101c680549285169290911691909117905580156110cd576000805461ff001916905550505050565b600081815260cb60205260409020546060906001600160a01b03166112b25760405162461bcd60e51b815260206004820152602f60248201527f4552433732314d657461646174613a2055524920717565727920666f72206e6f60448201526e3732bc34b9ba32b73a103a37b5b2b760891b60648201526084016107ad565b60006112c960408051602081019091526000815290565b905060008151116112e9576040518060200160405280600081525061104f565b806112f384611d60565b604051602001611304929190613112565b6040516020818303038152906040529392505050565b60008181526097602052604081206106a090611e5e565b60008281526065602052604090206001015461134d8133611721565b6108e383836117a7565b610191546001600160a01b031633146113825760405162461bcd60e51b81526004016107ad906130dd565b6001600160a01b0381166113e75760405162461bcd60e51b815260206004820152602660248201527f4f776e61626c653a206e6577206f776e657220697320746865207a65726f206160448201526564647265737360d01b60648201526084016107ad565b610b3081611b5b565b60006001600160e01b0319821663780e9d6360e01b14806106a057506106a082611e68565b600081815260cd6020526040902080546001600160a01b0319166001600160a01b038416908117909155819061144a82610f02565b6001600160a01b03167f8c5be1e5ebec7d5bd14f71427d1e84f3dd0314c0f7b2291e5b200ac8c7c3b92560405160405180910390a45050565b600081815260cb60205260408120546001600160a01b03166114fc5760405162461bcd60e51b815260206004820152602c60248201527f4552433732313a206f70657261746f7220717565727920666f72206e6f6e657860448201526b34b9ba32b73a103a37b5b2b760a11b60648201526084016107ad565b600061150783610f02565b9050806001600160a01b0316846001600160a01b031614806115425750836001600160a01b031661153784610738565b6001600160a01b0316145b8061157257506001600160a01b03808216600090815260ce602090815260408083209388168352929052205460ff165b949350505050565b826001600160a01b031661158d82610f02565b6001600160a01b0316146115f15760405162461bcd60e51b815260206004820152602560248201527f4552433732313a207472616e736665722066726f6d20696e636f72726563742060448201526437bbb732b960d91b60648201526084016107ad565b6001600160a01b0382166116535760405162461bcd60e51b8152602060048201526024808201527f4552433732313a207472616e7366657220746f20746865207a65726f206164646044820152637265737360e01b60648201526084016107ad565b61165e838383611ea8565b611669600082611415565b6001600160a01b038316600090815260cc60205260408120805460019290611692908490613141565b90915550506001600160a01b038216600090815260cc602052604081208054600192906116c0908490613158565b9091555050600081815260cb602052604080822080546001600160a01b0319166001600160a01b0386811691821790925591518493918716917fddf252ad1be2c89b69c2b068fc378daa952ba7f163c4a11628f55a4df523b3ef91a4505050565b61172b8282611056565b610a4f57611743816001600160a01b03166014611f60565b61174e836020611f60565b60405160200161175f929190613170565b60408051601f198184030181529082905262461bcd60e51b82526107ad91600401612c2b565b61178f82826120fc565b60008281526097602052604090206108e39082612182565b6117b18282612197565b60008281526097602052604090206108e390826121fe565b610191546001600160a01b03163314610b305760405162461bcd60e51b81526004016107ad906130dd565b7f4910fdfa16fed3260ed0e7147f7cc6da11a60208b5b9406d12a635614ffd91435460ff1615611827576108e383612213565b826001600160a01b03166352d1902d6040518163ffffffff1660e01b815260040160206040518083038186803b15801561186057600080fd5b505afa925050508015611890575060408051601f3d908101601f1916820190925261188d918101906131e5565b60015b6118f35760405162461bcd60e51b815260206004820152602e60248201527f45524331393637557067726164653a206e657720696d706c656d656e7461746960448201526d6f6e206973206e6f74205555505360901b60648201526084016107ad565b6000805160206133bc83398151915281146119625760405162461bcd60e51b815260206004820152602960248201527f45524331393637557067726164653a20756e737570706f727465642070726f786044820152681a58589b195555525160ba1b60648201526084016107ad565b506108e38383836122af565b6001600160a01b0382166119c45760405162461bcd60e51b815260206004820181905260248201527f4552433732313a206d696e7420746f20746865207a65726f206164647265737360448201526064016107ad565b600081815260cb60205260409020546001600160a01b031615611a295760405162461bcd60e51b815260206004820152601c60248201527f4552433732313a20746f6b656e20616c7265616479206d696e7465640000000060448201526064016107ad565b611a3560008383611ea8565b6001600160a01b038216600090815260cc60205260408120805460019290611a5e908490613158565b9091555050600081815260cb602052604080822080546001600160a01b0319166001600160a01b03861690811790915590518392907fddf252ad1be2c89b69c2b068fc378daa952ba7f163c4a11628f55a4df523b3ef908290a45050565b610a4f8282604051602401611ad29291906131fe565b60408051601f198184030181529190526020810180516001600160e01b03166309710a9d60e41b1790526122d4565b604080516001600160a01b0385811660248301528416604482015260648082018490528251808303909101815260849091019091526020810180516001600160e01b03166323b872dd60e01b1790526110cd9085906122f5565b61019180546001600160a01b038381166001600160a01b0319831681179093556040519116919082907f8be0079c531659141344cd1fd0a4f28419497f9722a3daafe3b4186f6b6457e090600090a35050565b600061104f83836123c7565b816001600160a01b0316836001600160a01b03161415611c1c5760405162461bcd60e51b815260206004820152601960248201527f4552433732313a20617070726f766520746f2063616c6c65720000000000000060448201526064016107ad565b6001600160a01b03838116600081815260ce6020908152604080832094871680845294825291829020805460ff191686151590811790915591519182527f17307eab39ab6107e8899845ad3d59bd9653f200f220920489ca2b5937696c31910160405180910390a3505050565b611c9484848461157a565b611ca0848484846123f1565b6110cd5760405162461bcd60e51b81526004016107ad90613220565b600054610100900460ff166110355760405162461bcd60e51b81526004016107ad90613272565b600054610100900460ff16611d0a5760405162461bcd60e51b81526004016107ad90613272565b8151611d1d9060c9906020850190612b07565b5080516108e39060ca906020840190612b07565b600054610100900460ff16611d585760405162461bcd60e51b81526004016107ad90613272565b6110356124fe565b606081611d845750506040805180820190915260018152600360fc1b602082015290565b8160005b8115611dae5780611d98816130a3565b9150611da79050600a836132d3565b9150611d88565b60008167ffffffffffffffff811115611dc957611dc9612d26565b6040519080825280601f01601f191660200182016040528015611df3576020820181803683370190505b5090505b841561157257611e08600183613141565b9150611e15600a866132e7565b611e20906030613158565b60f81b818381518110611e3557611e35613077565b60200101906001600160f81b031916908160001a905350611e57600a866132d3565b9450611df7565b60006106a0825490565b60006001600160e01b031982166380ac58cd60e01b1480611e9957506001600160e01b03198216635b5e139f60e01b145b806106a057506106a08261252e565b6001600160a01b038316611f0357611efe8160fd8054600083815260fe60205260408120829055600182018355919091527f9346ac6dd7de6b96975fec380d4d994c4c12e6a8897544f22915316cc6cca2800155565b611f26565b816001600160a01b0316836001600160a01b031614611f2657611f268382612553565b6001600160a01b038216611f3d576108e3816125f0565b826001600160a01b0316826001600160a01b0316146108e3576108e3828261269f565b60606000611f6f8360026130be565b611f7a906002613158565b67ffffffffffffffff811115611f9257611f92612d26565b6040519080825280601f01601f191660200182016040528015611fbc576020820181803683370190505b509050600360fc1b81600081518110611fd757611fd7613077565b60200101906001600160f81b031916908160001a905350600f60fb1b8160018151811061200657612006613077565b60200101906001600160f81b031916908160001a905350600061202a8460026130be565b612035906001613158565b90505b60018111156120ad576f181899199a1a9b1b9c1cb0b131b232b360811b85600f166010811061206957612069613077565b1a60f81b82828151811061207f5761207f613077565b60200101906001600160f81b031916908160001a90535060049490941c936120a6816132fb565b9050612038565b50831561104f5760405162461bcd60e51b815260206004820181905260248201527f537472696e67733a20686578206c656e67746820696e73756666696369656e7460448201526064016107ad565b6121068282611056565b610a4f5760008281526065602090815260408083206001600160a01b03851684529091529020805460ff1916600117905561213e3390565b6001600160a01b0316816001600160a01b0316837f2f8788117e7eff1d82e926ec794901d17c78024a50270940304540a733656f0d60405160405180910390a45050565b600061104f836001600160a01b0384166126e3565b6121a18282611056565b15610a4f5760008281526065602090815260408083206001600160a01b0385168085529252808320805460ff1916905551339285917ff6391f5c32d9c69d2a47ea670b442974b53935d1edc7fd64eb21e047a839171b9190a45050565b600061104f836001600160a01b038416612732565b6001600160a01b0381163b6122805760405162461bcd60e51b815260206004820152602d60248201527f455243313936373a206e657720696d706c656d656e746174696f6e206973206e60448201526c1bdd08184818dbdb9d1c9858dd609a1b60648201526084016107ad565b6000805160206133bc83398151915280546001600160a01b0319166001600160a01b0392909216919091179055565b6122b883612825565b6000825111806122c55750805b156108e3576110cd8383612865565b80516a636f6e736f6c652e6c6f67602083016000808483855afa5050505050565b600061234a826040518060400160405280602081526020017f5361666545524332303a206c6f772d6c6576656c2063616c6c206661696c6564815250856001600160a01b03166129599092919063ffffffff16565b8051909150156108e357808060200190518101906123689190613312565b6108e35760405162461bcd60e51b815260206004820152602a60248201527f5361666545524332303a204552433230206f7065726174696f6e20646964206e6044820152691bdd081cdd58d8d9595960b21b60648201526084016107ad565b60008260000182815481106123de576123de613077565b9060005260206000200154905092915050565b60006001600160a01b0384163b156124f357604051630a85bd0160e11b81526001600160a01b0385169063150b7a029061243590339089908890889060040161332f565b602060405180830381600087803b15801561244f57600080fd5b505af192505050801561247f575060408051601f3d908101601f1916820190925261247c9181019061336c565b60015b6124d9573d8080156124ad576040519150601f19603f3d011682016040523d82523d6000602084013e6124b2565b606091505b5080516124d15760405162461bcd60e51b81526004016107ad90613220565b805181602001fd5b6001600160e01b031916630a85bd0160e11b149050611572565b506001949350505050565b600054610100900460ff166125255760405162461bcd60e51b81526004016107ad90613272565b61103533611b5b565b60006001600160e01b03198216635a05180f60e01b14806106a057506106a082612968565b6000600161256084610f79565b61256a9190613141565b600083815260fc60205260409020549091508082146125bd576001600160a01b038416600090815260fb60209081526040808320858452825280832054848452818420819055835260fc90915290208190555b50600091825260fc602090815260408084208490556001600160a01b03909416835260fb81528383209183525290812055565b60fd5460009061260290600190613141565b600083815260fe602052604081205460fd805493945090928490811061262a5761262a613077565b906000526020600020015490508060fd838154811061264b5761264b613077565b600091825260208083209091019290925582815260fe909152604080822084905585825281205560fd80548061268357612683613389565b6001900381819060005260206000200160009055905550505050565b60006126aa83610f79565b6001600160a01b03909316600090815260fb60209081526040808320868452825280832085905593825260fc9052919091209190915550565b600081815260018301602052604081205461272a575081546001818101845560008481526020808220909301849055845484825282860190935260409020919091556106a0565b5060006106a0565b6000818152600183016020526040812054801561281b576000612756600183613141565b855490915060009061276a90600190613141565b90508181146127cf57600086600001828154811061278a5761278a613077565b90600052602060002001549050808760000184815481106127ad576127ad613077565b6000918252602080832090910192909255918252600188019052604090208390555b85548690806127e0576127e0613389565b6001900381819060005260206000200160009055905585600101600086815260200190815260200160002060009055600193505050506106a0565b60009150506106a0565b61282e81612213565b6040516001600160a01b038216907fbc7cd75a20ee27fd9adebab32041f755214dbc6bffa90cc0225b39da2e5c2d3b90600090a250565b60606001600160a01b0383163b6128cd5760405162461bcd60e51b815260206004820152602660248201527f416464726573733a2064656c65676174652063616c6c20746f206e6f6e2d636f6044820152651b9d1c9858dd60d21b60648201526084016107ad565b600080846001600160a01b0316846040516128e8919061339f565b600060405180830381855af49150503d8060008114612923576040519150601f19603f3d011682016040523d82523d6000602084013e612928565b606091505b509150915061295082826040518060600160405280602781526020016133dc6027913961299d565b95945050505050565b606061157284846000856129d6565b60006001600160e01b03198216637965db0b60e01b14806106a057506301ffc9a760e01b6001600160e01b03198316146106a0565b606083156129ac57508161104f565b8251156129bc5782518084602001fd5b8160405162461bcd60e51b81526004016107ad9190612c2b565b606082471015612a375760405162461bcd60e51b815260206004820152602660248201527f416464726573733a20696e73756666696369656e742062616c616e636520666f6044820152651c8818d85b1b60d21b60648201526084016107ad565b6001600160a01b0385163b612a8e5760405162461bcd60e51b815260206004820152601d60248201527f416464726573733a2063616c6c20746f206e6f6e2d636f6e747261637400000060448201526064016107ad565b600080866001600160a01b03168587604051612aaa919061339f565b60006040518083038185875af1925050503d8060008114612ae7576040519150601f19603f3d011682016040523d82523d6000602084013e612aec565b606091505b5091509150612afc82828661299d565b979650505050505050565b828054612b1390612f53565b90600052602060002090601f016020900481019282612b355760008555612b7b565b82601f10612b4e57805160ff1916838001178555612b7b565b82800160010185558215612b7b579182015b82811115612b7b578251825591602001919060010190612b60565b50612b87929150612b8b565b5090565b5b80821115612b875760008155600101612b8c565b6001600160e01b031981168114610b3057600080fd5b600060208284031215612bc857600080fd5b813561104f81612ba0565b60005b83811015612bee578181015183820152602001612bd6565b838111156110cd5750506000910152565b60008151808452612c17816020860160208601612bd3565b601f01601f19169290920160200192915050565b60208152600061104f6020830184612bff565b600060208284031215612c5057600080fd5b5035919050565b6001600160a01b0381168114610b3057600080fd5b60008060408385031215612c7f57600080fd5b8235612c8a81612c57565b946020939093013593505050565b600080600060608486031215612cad57600080fd5b8335612cb881612c57565b92506020840135612cc881612c57565b929592945050506040919091013590565b60008060408385031215612cec57600080fd5b823591506020830135612cfe81612c57565b809150509250929050565b600060208284031215612d1b57600080fd5b813561104f81612c57565b634e487b7160e01b600052604160045260246000fd5b600082601f830112612d4d57600080fd5b813567ffffffffffffffff80821115612d6857612d68612d26565b604051601f8301601f19908116603f01168101908282118183101715612d9057612d90612d26565b81604052838152866020858801011115612da957600080fd5b836020870160208301376000602085830101528094505050505092915050565b60008060408385031215612ddc57600080fd5b8235612de781612c57565b9150602083013567ffffffffffffffff811115612e0357600080fd5b612e0f85828601612d3c565b9150509250929050565b60008060408385031215612e2c57600080fd5b50508035926020909101359150565b8015158114610b3057600080fd5b60008060408385031215612e5c57600080fd5b8235612e6781612c57565b91506020830135612cfe81612e3b565b60008060008060808587031215612e8d57600080fd5b8435612e9881612c57565b93506020850135612ea881612c57565b925060408501359150606085013567ffffffffffffffff811115612ecb57600080fd5b612ed787828801612d3c565b91505092959194509250565b600080600060608486031215612ef857600080fd5b8335612f0381612c57565b9250602084013591506040840135612f1a81612c57565b809150509250925092565b60008060408385031215612f3857600080fd5b8235612f4381612c57565b91506020830135612cfe81612c57565b600181811c90821680612f6757607f821691505b60208210811415612f8857634e487b7160e01b600052602260045260246000fd5b50919050565b60208082526031908201527f4552433732313a207472616e736665722063616c6c6572206973206e6f74206f6040820152701ddb995c881b9bdc88185c1c1c9bdd9959607a1b606082015260800190565b6020808252602c908201527f46756e6374696f6e206d7573742062652063616c6c6564207468726f7567682060408201526b19195b1959d85d1958d85b1b60a21b606082015260800190565b6020808252602c908201527f46756e6374696f6e206d7573742062652063616c6c6564207468726f7567682060408201526b6163746976652070726f787960a01b606082015260800190565b634e487b7160e01b600052603260045260246000fd5b634e487b7160e01b600052601160045260246000fd5b60006000198214156130b7576130b761308d565b5060010190565b60008160001904831182151516156130d8576130d861308d565b500290565b6020808252818101527f4f776e61626c653a2063616c6c6572206973206e6f7420746865206f776e6572604082015260600190565b60008351613124818460208801612bd3565b835190830190613138818360208801612bd3565b01949350505050565b6000828210156131535761315361308d565b500390565b6000821982111561316b5761316b61308d565b500190565b7f416363657373436f6e74726f6c3a206163636f756e74200000000000000000008152600083516131a8816017850160208801612bd3565b7001034b99036b4b9b9b4b733903937b6329607d1b60179184019182015283516131d9816028840160208801612bd3565b01602801949350505050565b6000602082840312156131f757600080fd5b5051919050565b6040815260006132116040830185612bff565b90508260208301529392505050565b60208082526032908201527f4552433732313a207472616e7366657220746f206e6f6e20455243373231526560408201527131b2b4bb32b91034b6b83632b6b2b73a32b960711b606082015260800190565b6020808252602b908201527f496e697469616c697a61626c653a20636f6e7472616374206973206e6f74206960408201526a6e697469616c697a696e6760a81b606082015260800190565b634e487b7160e01b600052601260045260246000fd5b6000826132e2576132e26132bd565b500490565b6000826132f6576132f66132bd565b500690565b60008161330a5761330a61308d565b506000190190565b60006020828403121561332457600080fd5b815161104f81612e3b565b6001600160a01b038581168252841660208201526040810183905260806060820181905260009061336290830184612bff565b9695505050505050565b60006020828403121561337e57600080fd5b815161104f81612ba0565b634e487b7160e01b600052603160045260246000fd5b600082516133b1818460208701612bd3565b919091019291505056fe360894a13ba1a3210667c828492db98dca3e2076cc3735a920a3ca505d382bbc416464726573733a206c6f772d6c6576656c2064656c65676174652063616c6c206661696c6564a264697066735822122001f54ae3315110eea49ff87c3184230468d0bf312953b811eaac67001c85ddc464736f6c63430008090033",
  "devdoc": {
    "kind": "dev",
    "methods": {
      "approve(address,uint256)": {
        "details": "See {IERC721-approve}."
      },
      "balanceOf(address)": {
        "details": "See {IERC721-balanceOf}."
      },
      "getApproved(uint256)": {
        "details": "See {IERC721-getApproved}."
      },
      "getRoleAdmin(bytes32)": {
        "details": "Returns the admin role that controls `role`. See {grantRole} and {revokeRole}. To change a role's admin, use {_setRoleAdmin}."
      },
      "getRoleMember(bytes32,uint256)": {
        "details": "Returns one of the accounts that have `role`. `index` must be a value between 0 and {getRoleMemberCount}, non-inclusive. Role bearers are not sorted in any particular way, and their ordering may change at any point. WARNING: When using {getRoleMember} and {getRoleMemberCount}, make sure you perform all queries on the same block. See the following https://forum.openzeppelin.com/t/iterating-over-elements-on-enumerableset-in-openzeppelin-contracts/2296[forum post] for more information."
      },
      "getRoleMemberCount(bytes32)": {
        "details": "Returns the number of accounts that have `role`. Can be used together with {getRoleMember} to enumerate all bearers of a role."
      },
      "grantRole(bytes32,address)": {
        "details": "Grants `role` to `account`. If `account` had not been already granted `role`, emits a {RoleGranted} event. Requirements: - the caller must have ``role``'s admin role."
      },
      "hasRole(bytes32,address)": {
        "details": "Returns `true` if `account` has been granted `role`."
      },
      "isApprovedForAll(address,address)": {
        "details": "See {IERC721-isApprovedForAll}."
      },
      "name()": {
        "details": "See {IERC721Metadata-name}."
      },
      "owner()": {
        "details": "Returns the address of the current owner."
      },
      "ownerOf(uint256)": {
        "details": "See {IERC721-ownerOf}."
      },
      "proxiableUUID()": {
        "details": "Implementation of the ERC1822 {proxiableUUID} function. This returns the storage slot used by the implementation. It is used to validate that the this implementation remains valid after an upgrade. IMPORTANT: A proxy pointing at a proxiable contract should not be considered proxiable itself, because this risks bricking a proxy that upgrades to it, by delegating to itself until out of gas. Thus it is critical that this function revert if invoked through a proxy. This is guaranteed by the `notDelegated` modifier."
      },
      "renounceOwnership()": {
        "details": "Leaves the contract without owner. It will not be possible to call `onlyOwner` functions anymore. Can only be called by the current owner. NOTE: Renouncing ownership will leave the contract without an owner, thereby removing any functionality that is only available to the owner."
      },
      "renounceRole(bytes32,address)": {
        "details": "Revokes `role` from the calling account. Roles are often managed via {grantRole} and {revokeRole}: this function's purpose is to provide a mechanism for accounts to lose their privileges if they are compromised (such as when a trusted device is misplaced). If the calling account had been revoked `role`, emits a {RoleRevoked} event. Requirements: - the caller must be `account`."
      },
      "revokeRole(bytes32,address)": {
        "details": "Revokes `role` from `account`. If `account` had been granted `role`, emits a {RoleRevoked} event. Requirements: - the caller must have ``role``'s admin role."
      },
      "safeTransferFrom(address,address,uint256)": {
        "details": "See {IERC721-safeTransferFrom}."
      },
      "safeTransferFrom(address,address,uint256,bytes)": {
        "details": "See {IERC721-safeTransferFrom}."
      },
      "setApprovalForAll(address,bool)": {
        "details": "See {IERC721-setApprovalForAll}."
      },
      "symbol()": {
        "details": "See {IERC721Metadata-symbol}."
      },
      "tokenByIndex(uint256)": {
        "details": "See {IERC721Enumerable-tokenByIndex}."
      },
      "tokenOfOwnerByIndex(address,uint256)": {
        "details": "See {IERC721Enumerable-tokenOfOwnerByIndex}."
      },
      "tokenURI(uint256)": {
        "details": "See {IERC721Metadata-tokenURI}."
      },
      "totalSupply()": {
        "details": "See {IERC721Enumerable-totalSupply}."
      },
      "transferFrom(address,address,uint256)": {
        "details": "See {IERC721-transferFrom}."
      },
      "transferOwnership(address)": {
        "details": "Transfers ownership of the contract to a new account (`newOwner`). Can only be called by the current owner."
      },
      "upgradeTo(address)": {
        "details": "Upgrade the implementation of the proxy to `newImplementation`. Calls {_authorizeUpgrade}. Emits an {Upgraded} event."
      },
      "upgradeToAndCall(address,bytes)": {
        "details": "Upgrade the implementation of the proxy to `newImplementation`, and subsequently execute the function call encoded in `data`. Calls {_authorizeUpgrade}. Emits an {Upgraded} event."
      }
    },
    "version": 1
  },
  "userdoc": {
    "kind": "user",
    "methods": {},
    "version": 1
  },
  "storageLayout": {
    "storage": [
      {
        "astId": 1091,
        "contract": "contracts/HeroBoxUUPS.sol:HeroBoxUUPS",
        "label": "_initialized",
        "offset": 0,
        "slot": "0",
        "type": "t_bool"
      },
      {
        "astId": 1094,
        "contract": "contracts/HeroBoxUUPS.sol:HeroBoxUUPS",
        "label": "_initializing",
        "offset": 1,
        "slot": "0",
        "type": "t_bool"
      },
      {
        "astId": 3589,
        "contract": "contracts/HeroBoxUUPS.sol:HeroBoxUUPS",
        "label": "__gap",
        "offset": 0,
        "slot": "1",
        "type": "t_array(t_uint256)50_storage"
      },
      {
        "astId": 3970,
        "contract": "contracts/HeroBoxUUPS.sol:HeroBoxUUPS",
        "label": "__gap",
        "offset": 0,
        "slot": "51",
        "type": "t_array(t_uint256)50_storage"
      },
      {
        "astId": 184,
        "contract": "contracts/HeroBoxUUPS.sol:HeroBoxUUPS",
        "label": "_roles",
        "offset": 0,
        "slot": "101",
        "type": "t_mapping(t_bytes32,t_struct(RoleData)179_storage)"
      },
      {
        "astId": 472,
        "contract": "contracts/HeroBoxUUPS.sol:HeroBoxUUPS",
        "label": "__gap",
        "offset": 0,
        "slot": "102",
        "type": "t_array(t_uint256)49_storage"
      },
      {
        "astId": 33,
        "contract": "contracts/HeroBoxUUPS.sol:HeroBoxUUPS",
        "label": "_roleMembers",
        "offset": 0,
        "slot": "151",
        "type": "t_mapping(t_bytes32,t_struct(AddressSet)4295_storage)"
      },
      {
        "astId": 143,
        "contract": "contracts/HeroBoxUUPS.sol:HeroBoxUUPS",
        "label": "__gap",
        "offset": 0,
        "slot": "152",
        "type": "t_array(t_uint256)49_storage"
      },
      {
        "astId": 1736,
        "contract": "contracts/HeroBoxUUPS.sol:HeroBoxUUPS",
        "label": "_name",
        "offset": 0,
        "slot": "201",
        "type": "t_string_storage"
      },
      {
        "astId": 1738,
        "contract": "contracts/HeroBoxUUPS.sol:HeroBoxUUPS",
        "label": "_symbol",
        "offset": 0,
        "slot": "202",
        "type": "t_string_storage"
      },
      {
        "astId": 1742,
        "contract": "contracts/HeroBoxUUPS.sol:HeroBoxUUPS",
        "label": "_owners",
        "offset": 0,
        "slot": "203",
        "type": "t_mapping(t_uint256,t_address)"
      },
      {
        "astId": 1746,
        "contract": "contracts/HeroBoxUUPS.sol:HeroBoxUUPS",
        "label": "_balances",
        "offset": 0,
        "slot": "204",
        "type": "t_mapping(t_address,t_uint256)"
      },
      {
        "astId": 1750,
        "contract": "contracts/HeroBoxUUPS.sol:HeroBoxUUPS",
        "label": "_tokenApprovals",
        "offset": 0,
        "slot": "205",
        "type": "t_mapping(t_uint256,t_address)"
      },
      {
        "astId": 1756,
        "contract": "contracts/HeroBoxUUPS.sol:HeroBoxUUPS",
        "label": "_operatorApprovals",
        "offset": 0,
        "slot": "206",
        "type": "t_mapping(t_address,t_mapping(t_address,t_bool))"
      },
      {
        "astId": 2597,
        "contract": "contracts/HeroBoxUUPS.sol:HeroBoxUUPS",
        "label": "__gap",
        "offset": 0,
        "slot": "207",
        "type": "t_array(t_uint256)44_storage"
      },
      {
        "astId": 2812,
        "contract": "contracts/HeroBoxUUPS.sol:HeroBoxUUPS",
        "label": "_ownedTokens",
        "offset": 0,
        "slot": "251",
        "type": "t_mapping(t_address,t_mapping(t_uint256,t_uint256))"
      },
      {
        "astId": 2816,
        "contract": "contracts/HeroBoxUUPS.sol:HeroBoxUUPS",
        "label": "_ownedTokensIndex",
        "offset": 0,
        "slot": "252",
        "type": "t_mapping(t_uint256,t_uint256)"
      },
      {
        "astId": 2819,
        "contract": "contracts/HeroBoxUUPS.sol:HeroBoxUUPS",
        "label": "_allTokens",
        "offset": 0,
        "slot": "253",
        "type": "t_array(t_uint256)dyn_storage"
      },
      {
        "astId": 2823,
        "contract": "contracts/HeroBoxUUPS.sol:HeroBoxUUPS",
        "label": "_allTokensIndex",
        "offset": 0,
        "slot": "254",
        "type": "t_mapping(t_uint256,t_uint256)"
      },
      {
        "astId": 3139,
        "contract": "contracts/HeroBoxUUPS.sol:HeroBoxUUPS",
        "label": "__gap",
        "offset": 0,
        "slot": "255",
        "type": "t_array(t_uint256)46_storage"
      },
      {
        "astId": 1073,
        "contract": "contracts/HeroBoxUUPS.sol:HeroBoxUUPS",
        "label": "__gap",
        "offset": 0,
        "slot": "301",
        "type": "t_array(t_uint256)50_storage"
      },
      {
        "astId": 1293,
        "contract": "contracts/HeroBoxUUPS.sol:HeroBoxUUPS",
        "label": "__gap",
        "offset": 0,
        "slot": "351",
        "type": "t_array(t_uint256)50_storage"
      },
      {
        "astId": 582,
        "contract": "contracts/HeroBoxUUPS.sol:HeroBoxUUPS",
        "label": "_owner",
        "offset": 0,
        "slot": "401",
        "type": "t_address"
      },
      {
        "astId": 694,
        "contract": "contracts/HeroBoxUUPS.sol:HeroBoxUUPS",
        "label": "__gap",
        "offset": 0,
        "slot": "402",
        "type": "t_array(t_uint256)49_storage"
      },
      {
        "astId": 4618,
        "contract": "contracts/HeroBoxUUPS.sol:HeroBoxUUPS",
        "label": "_tokenIdTracker",
        "offset": 0,
        "slot": "451",
        "type": "t_struct(Counter)3596_storage"
      },
      {
        "astId": 4621,
        "contract": "contracts/HeroBoxUUPS.sol:HeroBoxUUPS",
        "label": "currToken",
        "offset": 0,
        "slot": "452",
        "type": "t_contract(IERC20Upgradeable)1483"
      },
      {
        "astId": 4623,
        "contract": "contracts/HeroBoxUUPS.sol:HeroBoxUUPS",
        "label": "nftPrice",
        "offset": 0,
        "slot": "453",
        "type": "t_uint256"
      },
      {
        "astId": 4625,
        "contract": "contracts/HeroBoxUUPS.sol:HeroBoxUUPS",
        "label": "tokenReceiveAddress",
        "offset": 0,
        "slot": "454",
        "type": "t_address"
      }
    ],
    "types": {
      "t_address": {
        "encoding": "inplace",
        "label": "address",
        "numberOfBytes": "20"
      },
      "t_array(t_bytes32)dyn_storage": {
        "base": "t_bytes32",
        "encoding": "dynamic_array",
        "label": "bytes32[]",
        "numberOfBytes": "32"
      },
      "t_array(t_uint256)44_storage": {
        "base": "t_uint256",
        "encoding": "inplace",
        "label": "uint256[44]",
        "numberOfBytes": "1408"
      },
      "t_array(t_uint256)46_storage": {
        "base": "t_uint256",
        "encoding": "inplace",
        "label": "uint256[46]",
        "numberOfBytes": "1472"
      },
      "t_array(t_uint256)49_storage": {
        "base": "t_uint256",
        "encoding": "inplace",
        "label": "uint256[49]",
        "numberOfBytes": "1568"
      },
      "t_array(t_uint256)50_storage": {
        "base": "t_uint256",
        "encoding": "inplace",
        "label": "uint256[50]",
        "numberOfBytes": "1600"
      },
      "t_array(t_uint256)dyn_storage": {
        "base": "t_uint256",
        "encoding": "dynamic_array",
        "label": "uint256[]",
        "numberOfBytes": "32"
      },
      "t_bool": {
        "encoding": "inplace",
        "label": "bool",
        "numberOfBytes": "1"
      },
      "t_bytes32": {
        "encoding": "inplace",
        "label": "bytes32",
        "numberOfBytes": "32"
      },
      "t_contract(IERC20Upgradeable)1483": {
        "encoding": "inplace",
        "label": "contract IERC20Upgradeable",
        "numberOfBytes": "20"
      },
      "t_mapping(t_address,t_bool)": {
        "encoding": "mapping",
        "key": "t_address",
        "label": "mapping(address => bool)",
        "numberOfBytes": "32",
        "value": "t_bool"
      },
      "t_mapping(t_address,t_mapping(t_address,t_bool))": {
        "encoding": "mapping",
        "key": "t_address",
        "label": "mapping(address => mapping(address => bool))",
        "numberOfBytes": "32",
        "value": "t_mapping(t_address,t_bool)"
      },
      "t_mapping(t_address,t_mapping(t_uint256,t_uint256))": {
        "encoding": "mapping",
        "key": "t_address",
        "label": "mapping(address => mapping(uint256 => uint256))",
        "numberOfBytes": "32",
        "value": "t_mapping(t_uint256,t_uint256)"
      },
      "t_mapping(t_address,t_uint256)": {
        "encoding": "mapping",
        "key": "t_address",
        "label": "mapping(address => uint256)",
        "numberOfBytes": "32",
        "value": "t_uint256"
      },
      "t_mapping(t_bytes32,t_struct(AddressSet)4295_storage)": {
        "encoding": "mapping",
        "key": "t_bytes32",
        "label": "mapping(bytes32 => struct EnumerableSetUpgradeable.AddressSet)",
        "numberOfBytes": "32",
        "value": "t_struct(AddressSet)4295_storage"
      },
      "t_mapping(t_bytes32,t_struct(RoleData)179_storage)": {
        "encoding": "mapping",
        "key": "t_bytes32",
        "label": "mapping(bytes32 => struct AccessControlUpgradeable.RoleData)",
        "numberOfBytes": "32",
        "value": "t_struct(RoleData)179_storage"
      },
      "t_mapping(t_bytes32,t_uint256)": {
        "encoding": "mapping",
        "key": "t_bytes32",
        "label": "mapping(bytes32 => uint256)",
        "numberOfBytes": "32",
        "value": "t_uint256"
      },
      "t_mapping(t_uint256,t_address)": {
        "encoding": "mapping",
        "key": "t_uint256",
        "label": "mapping(uint256 => address)",
        "numberOfBytes": "32",
        "value": "t_address"
      },
      "t_mapping(t_uint256,t_uint256)": {
        "encoding": "mapping",
        "key": "t_uint256",
        "label": "mapping(uint256 => uint256)",
        "numberOfBytes": "32",
        "value": "t_uint256"
      },
      "t_string_storage": {
        "encoding": "bytes",
        "label": "string",
        "numberOfBytes": "32"
      },
      "t_struct(AddressSet)4295_storage": {
        "encoding": "inplace",
        "label": "struct EnumerableSetUpgradeable.AddressSet",
        "members": [
          {
            "astId": 4294,
            "contract": "contracts/HeroBoxUUPS.sol:HeroBoxUUPS",
            "label": "_inner",
            "offset": 0,
            "slot": "0",
            "type": "t_struct(Set)3994_storage"
          }
        ],
        "numberOfBytes": "64"
      },
      "t_struct(Counter)3596_storage": {
        "encoding": "inplace",
        "label": "struct CountersUpgradeable.Counter",
        "members": [
          {
            "astId": 3595,
            "contract": "contracts/HeroBoxUUPS.sol:HeroBoxUUPS",
            "label": "_value",
            "offset": 0,
            "slot": "0",
            "type": "t_uint256"
          }
        ],
        "numberOfBytes": "32"
      },
      "t_struct(RoleData)179_storage": {
        "encoding": "inplace",
        "label": "struct AccessControlUpgradeable.RoleData",
        "members": [
          {
            "astId": 176,
            "contract": "contracts/HeroBoxUUPS.sol:HeroBoxUUPS",
            "label": "members",
            "offset": 0,
            "slot": "0",
            "type": "t_mapping(t_address,t_bool)"
          },
          {
            "astId": 178,
            "contract": "contracts/HeroBoxUUPS.sol:HeroBoxUUPS",
            "label": "adminRole",
            "offset": 0,
            "slot": "1",
            "type": "t_bytes32"
          }
        ],
        "numberOfBytes": "64"
      },
      "t_struct(Set)3994_storage": {
        "encoding": "inplace",
        "label": "struct EnumerableSetUpgradeable.Set",
        "members": [
          {
            "astId": 3989,
            "contract": "contracts/HeroBoxUUPS.sol:HeroBoxUUPS",
            "label": "_values",
            "offset": 0,
            "slot": "0",
            "type": "t_array(t_bytes32)dyn_storage"
          },
          {
            "astId": 3993,
            "contract": "contracts/HeroBoxUUPS.sol:HeroBoxUUPS",
            "label": "_indexes",
            "offset": 0,
            "slot": "1",
            "type": "t_mapping(t_bytes32,t_uint256)"
          }
        ],
        "numberOfBytes": "64"
      },
      "t_uint256": {
        "encoding": "inplace",
        "label": "uint256",
        "numberOfBytes": "32"
      }
    }
  }
}